{
  "_format": "hh-sol-artifact-1",
  "contractName": "FrontierMultisig",
  "sourceName": "contracts/FrontierMultisig.sol",
  "abi": [
    {
      "inputs": [
        {
          "internalType": "address",
          "name": "owner",
          "type": "address"
        }
      ],
      "stateMutability": "nonpayable",
      "type": "constructor"
    },
    {
      "anonymous": false,
      "inputs": [
        {
          "indexed": false,
          "internalType": "uint256",
          "name": "required",
          "type": "uint256"
        }
      ],
      "name": "ApprovalRequirementChange",
      "type": "event"
    },
    {
      "anonymous": false,
      "inputs": [
        {
          "indexed": true,
          "internalType": "address",
          "name": "owner",
          "type": "address"
        },
        {
          "indexed": true,
          "internalType": "uint256",
          "name": "txIndex",
          "type": "uint256"
        }
      ],
      "name": "ApproveTransaction",
      "type": "event"
    },
    {
      "anonymous": false,
      "inputs": [
        {
          "indexed": false,
          "internalType": "uint256",
          "name": "required",
          "type": "uint256"
        }
      ],
      "name": "DenyRequirementChange",
      "type": "event"
    },
    {
      "anonymous": false,
      "inputs": [
        {
          "indexed": true,
          "internalType": "address",
          "name": "owner",
          "type": "address"
        },
        {
          "indexed": true,
          "internalType": "uint256",
          "name": "txIndex",
          "type": "uint256"
        }
      ],
      "name": "DenyTransaction",
      "type": "event"
    },
    {
      "anonymous": false,
      "inputs": [
        {
          "indexed": true,
          "internalType": "address",
          "name": "sender",
          "type": "address"
        },
        {
          "indexed": false,
          "internalType": "uint256",
          "name": "value",
          "type": "uint256"
        }
      ],
      "name": "Deposit",
      "type": "event"
    },
    {
      "anonymous": false,
      "inputs": [
        {
          "indexed": true,
          "internalType": "address",
          "name": "owner",
          "type": "address"
        },
        {
          "indexed": true,
          "internalType": "uint256",
          "name": "txIndex",
          "type": "uint256"
        }
      ],
      "name": "ExecuteTransaction",
      "type": "event"
    },
    {
      "anonymous": false,
      "inputs": [
        {
          "indexed": true,
          "internalType": "address",
          "name": "owner",
          "type": "address"
        }
      ],
      "name": "OwnerAddition",
      "type": "event"
    },
    {
      "anonymous": false,
      "inputs": [
        {
          "indexed": true,
          "internalType": "address",
          "name": "owner",
          "type": "address"
        }
      ],
      "name": "OwnerRemoval",
      "type": "event"
    },
    {
      "anonymous": false,
      "inputs": [
        {
          "indexed": true,
          "internalType": "address",
          "name": "owner",
          "type": "address"
        },
        {
          "indexed": true,
          "internalType": "uint256",
          "name": "txIndex",
          "type": "uint256"
        }
      ],
      "name": "RevokeTransaction",
      "type": "event"
    },
    {
      "anonymous": false,
      "inputs": [
        {
          "indexed": true,
          "internalType": "address",
          "name": "owner",
          "type": "address"
        },
        {
          "indexed": true,
          "internalType": "uint256",
          "name": "txIndex",
          "type": "uint256"
        },
        {
          "indexed": true,
          "internalType": "address",
          "name": "to",
          "type": "address"
        },
        {
          "indexed": false,
          "internalType": "uint256",
          "name": "value",
          "type": "uint256"
        },
        {
          "indexed": false,
          "internalType": "bytes",
          "name": "data",
          "type": "bytes"
        },
        {
          "indexed": false,
          "internalType": "string",
          "name": "title",
          "type": "string"
        },
        {
          "indexed": false,
          "internalType": "string",
          "name": "description",
          "type": "string"
        }
      ],
      "name": "SubmitTransaction",
      "type": "event"
    },
    {
      "inputs": [
        {
          "internalType": "address",
          "name": "owner",
          "type": "address"
        }
      ],
      "name": "addOwner",
      "outputs": [],
      "stateMutability": "nonpayable",
      "type": "function"
    },
    {
      "inputs": [
        {
          "internalType": "uint256",
          "name": "",
          "type": "uint256"
        },
        {
          "internalType": "address",
          "name": "",
          "type": "address"
        }
      ],
      "name": "approvals",
      "outputs": [
        {
          "internalType": "bool",
          "name": "",
          "type": "bool"
        }
      ],
      "stateMutability": "view",
      "type": "function"
    },
    {
      "inputs": [],
      "name": "approvalsRequired",
      "outputs": [
        {
          "internalType": "uint256",
          "name": "",
          "type": "uint256"
        }
      ],
      "stateMutability": "view",
      "type": "function"
    },
    {
      "inputs": [
        {
          "internalType": "uint256",
          "name": "txIndex",
          "type": "uint256"
        }
      ],
      "name": "approveTransaction",
      "outputs": [],
      "stateMutability": "nonpayable",
      "type": "function"
    },
    {
      "inputs": [
        {
          "internalType": "uint256",
          "name": "_approvalsRequired",
          "type": "uint256"
        }
      ],
      "name": "changeApprovalsRequired",
      "outputs": [],
      "stateMutability": "nonpayable",
      "type": "function"
    },
    {
      "inputs": [
        {
          "internalType": "uint256",
          "name": "_denialsRequired",
          "type": "uint256"
        }
      ],
      "name": "changeDenialsRequired",
      "outputs": [],
      "stateMutability": "nonpayable",
      "type": "function"
    },
    {
      "inputs": [
        {
          "internalType": "uint256",
          "name": "",
          "type": "uint256"
        },
        {
          "internalType": "address",
          "name": "",
          "type": "address"
        }
      ],
      "name": "denials",
      "outputs": [
        {
          "internalType": "bool",
          "name": "",
          "type": "bool"
        }
      ],
      "stateMutability": "view",
      "type": "function"
    },
    {
      "inputs": [],
      "name": "denialsRequired",
      "outputs": [
        {
          "internalType": "uint256",
          "name": "",
          "type": "uint256"
        }
      ],
      "stateMutability": "view",
      "type": "function"
    },
    {
      "inputs": [
        {
          "internalType": "uint256",
          "name": "txIndex",
          "type": "uint256"
        }
      ],
      "name": "denyTransaction",
      "outputs": [],
      "stateMutability": "nonpayable",
      "type": "function"
    },
    {
      "inputs": [
        {
          "internalType": "uint256",
          "name": "txIndex",
          "type": "uint256"
        }
      ],
      "name": "executeTransaction",
      "outputs": [],
      "stateMutability": "payable",
      "type": "function"
    },
    {
      "inputs": [],
      "name": "getApprovalsRequired",
      "outputs": [
        {
          "internalType": "uint256",
          "name": "",
          "type": "uint256"
        }
      ],
      "stateMutability": "view",
      "type": "function"
    },
    {
      "inputs": [],
      "name": "getBalance",
      "outputs": [
        {
          "internalType": "uint256",
          "name": "",
          "type": "uint256"
        }
      ],
      "stateMutability": "view",
      "type": "function"
    },
    {
      "inputs": [],
      "name": "getCompleteTransactions",
      "outputs": [
        {
          "internalType": "address[]",
          "name": "",
          "type": "address[]"
        },
        {
          "internalType": "uint256[]",
          "name": "",
          "type": "uint256[]"
        },
        {
          "internalType": "bytes[]",
          "name": "",
          "type": "bytes[]"
        },
        {
          "internalType": "bool[]",
          "name": "",
          "type": "bool[]"
        },
        {
          "internalType": "bool[]",
          "name": "",
          "type": "bool[]"
        },
        {
          "internalType": "string[]",
          "name": "",
          "type": "string[]"
        },
        {
          "internalType": "string[]",
          "name": "",
          "type": "string[]"
        }
      ],
      "stateMutability": "view",
      "type": "function"
    },
    {
      "inputs": [],
      "name": "getDenialsRequired",
      "outputs": [
        {
          "internalType": "uint256",
          "name": "",
          "type": "uint256"
        }
      ],
      "stateMutability": "view",
      "type": "function"
    },
    {
      "inputs": [],
      "name": "getOriginalOwners",
      "outputs": [
        {
          "internalType": "address[]",
          "name": "",
          "type": "address[]"
        }
      ],
      "stateMutability": "view",
      "type": "function"
    },
    {
      "inputs": [],
      "name": "getOwners",
      "outputs": [
        {
          "internalType": "address[]",
          "name": "",
          "type": "address[]"
        }
      ],
      "stateMutability": "view",
      "type": "function"
    },
    {
      "inputs": [],
      "name": "getPendingTransactions",
      "outputs": [
        {
          "components": [
            {
              "internalType": "uint256",
              "name": "transactionIndex",
              "type": "uint256"
            },
            {
              "internalType": "address",
              "name": "to",
              "type": "address"
            },
            {
              "internalType": "uint256",
              "name": "value",
              "type": "uint256"
            },
            {
              "internalType": "bytes",
              "name": "data",
              "type": "bytes"
            },
            {
              "internalType": "bool",
              "name": "executed",
              "type": "bool"
            },
            {
              "internalType": "bool",
              "name": "denied",
              "type": "bool"
            },
            {
              "internalType": "string",
              "name": "title",
              "type": "string"
            },
            {
              "internalType": "string",
              "name": "description",
              "type": "string"
            }
          ],
          "internalType": "struct FrontierMultisig.PendingTransaction[]",
          "name": "",
          "type": "tuple[]"
        }
      ],
      "stateMutability": "view",
      "type": "function"
    },
    {
      "inputs": [
        {
          "internalType": "uint256",
          "name": "txIndex",
          "type": "uint256"
        }
      ],
      "name": "getTransactionApprovalCount",
      "outputs": [
        {
          "internalType": "uint256",
          "name": "",
          "type": "uint256"
        }
      ],
      "stateMutability": "view",
      "type": "function"
    },
    {
      "inputs": [
        {
          "internalType": "uint256",
          "name": "txIndex",
          "type": "uint256"
        }
      ],
      "name": "getTransactionApprovals",
      "outputs": [
        {
          "internalType": "uint256",
          "name": "",
          "type": "uint256"
        }
      ],
      "stateMutability": "view",
      "type": "function"
    },
    {
      "inputs": [
        {
          "internalType": "uint256",
          "name": "txIndex",
          "type": "uint256"
        }
      ],
      "name": "getTransactionDenialCount",
      "outputs": [
        {
          "internalType": "uint256",
          "name": "",
          "type": "uint256"
        }
      ],
      "stateMutability": "view",
      "type": "function"
    },
    {
      "inputs": [
        {
          "internalType": "uint256",
          "name": "txIndex",
          "type": "uint256"
        }
      ],
      "name": "getTransactionDenials",
      "outputs": [
        {
          "internalType": "uint256",
          "name": "",
          "type": "uint256"
        }
      ],
      "stateMutability": "view",
      "type": "function"
    },
    {
      "inputs": [
        {
          "internalType": "address",
          "name": "",
          "type": "address"
        }
      ],
      "name": "isOriginalOwner",
      "outputs": [
        {
          "internalType": "bool",
          "name": "",
          "type": "bool"
        }
      ],
      "stateMutability": "view",
      "type": "function"
    },
    {
      "inputs": [
        {
          "internalType": "address",
          "name": "",
          "type": "address"
        }
      ],
      "name": "isOwner",
      "outputs": [
        {
          "internalType": "bool",
          "name": "",
          "type": "bool"
        }
      ],
      "stateMutability": "view",
      "type": "function"
    },
    {
      "inputs": [
        {
          "internalType": "uint256",
          "name": "",
          "type": "uint256"
        }
      ],
      "name": "originalOwners",
      "outputs": [
        {
          "internalType": "address",
          "name": "",
          "type": "address"
        }
      ],
      "stateMutability": "view",
      "type": "function"
    },
    {
      "inputs": [
        {
          "internalType": "uint256",
          "name": "",
          "type": "uint256"
        }
      ],
      "name": "owners",
      "outputs": [
        {
          "internalType": "address",
          "name": "",
          "type": "address"
        }
      ],
      "stateMutability": "view",
      "type": "function"
    },
    {
      "inputs": [
        {
          "internalType": "address",
          "name": "owner",
          "type": "address"
        }
      ],
      "name": "removeOwner",
      "outputs": [],
      "stateMutability": "nonpayable",
      "type": "function"
    },
    {
      "inputs": [
        {
          "internalType": "uint256",
          "name": "txIndex",
          "type": "uint256"
        }
      ],
      "name": "revokeTransaction",
      "outputs": [],
      "stateMutability": "nonpayable",
      "type": "function"
    },
    {
      "inputs": [
        {
          "internalType": "address",
          "name": "to",
          "type": "address"
        },
        {
          "internalType": "uint256",
          "name": "value",
          "type": "uint256"
        },
        {
          "internalType": "bytes",
          "name": "data",
          "type": "bytes"
        },
        {
          "internalType": "string",
          "name": "title",
          "type": "string"
        },
        {
          "internalType": "string",
          "name": "description",
          "type": "string"
        }
      ],
      "name": "submitTransaction",
      "outputs": [],
      "stateMutability": "nonpayable",
      "type": "function"
    },
    {
      "inputs": [
        {
          "internalType": "uint256",
          "name": "",
          "type": "uint256"
        }
      ],
      "name": "transactions",
      "outputs": [
        {
          "internalType": "address",
          "name": "to",
          "type": "address"
        },
        {
          "internalType": "uint256",
          "name": "value",
          "type": "uint256"
        },
        {
          "internalType": "bytes",
          "name": "data",
          "type": "bytes"
        },
        {
          "internalType": "bool",
          "name": "executed",
          "type": "bool"
        },
        {
          "internalType": "bool",
          "name": "denied",
          "type": "bool"
        },
        {
          "internalType": "string",
          "name": "title",
          "type": "string"
        },
        {
          "internalType": "string",
          "name": "description",
          "type": "string"
        }
      ],
      "stateMutability": "view",
      "type": "function"
    },
    {
      "stateMutability": "payable",
      "type": "receive"
    }
  ],
  "bytecode": "0x6080604052600160025560016003553480156200001b57600080fd5b50604051620052613803806200526183398181016040528101906200004191906200029a565b600073ffffffffffffffffffffffffffffffffffffffff168173ffffffffffffffffffffffffffffffffffffffff1603620000b3576040517f08c379a0000000000000000000000000000000000000000000000000000000008152600401620000aa906200032d565b60405180910390fd5b6001600460008373ffffffffffffffffffffffffffffffffffffffff1673ffffffffffffffffffffffffffffffffffffffff16815260200190815260200160002060006101000a81548160ff0219169083151502179055506000819080600181540180825580915050600190039060005260206000200160009091909190916101000a81548173ffffffffffffffffffffffffffffffffffffffff021916908373ffffffffffffffffffffffffffffffffffffffff1602179055506001600560008373ffffffffffffffffffffffffffffffffffffffff1673ffffffffffffffffffffffffffffffffffffffff16815260200190815260200160002060006101000a81548160ff0219169083151502179055506001819080600181540180825580915050600190039060005260206000200160009091909190916101000a81548173ffffffffffffffffffffffffffffffffffffffff021916908373ffffffffffffffffffffffffffffffffffffffff160217905550506200034f565b600080fd5b600073ffffffffffffffffffffffffffffffffffffffff82169050919050565b6000620002628262000235565b9050919050565b620002748162000255565b81146200028057600080fd5b50565b600081519050620002948162000269565b92915050565b600060208284031215620002b357620002b262000230565b5b6000620002c38482850162000283565b91505092915050565b600082825260208201905092915050565b7f6f776e657220697320746865207a65726f206164647265737300000000000000600082015250565b600062000315601983620002cc565b91506200032282620002dd565b602082019050919050565b60006020820190508181036000830152620003488162000306565b9050919050565b614f02806200035f6000396000f3fe6080604052600436106101c55760003560e01c806371a1c5d8116100f7578063d11db83f11610095578063ea1d59c911610064578063ea1d59c914610702578063ee22610b1461072d578063f04fb07a14610749578063f592ba45146107745761021a565b8063d11db83f14610640578063de5d22d61461066b578063e022249b146106a8578063e9c1ed9b146106d95761021a565b80639ace38c2116100d15780639ace38c214610558578063a0e67e2b1461059b578063a4ee77f3146105c6578063ab2850da146106035761021a565b806371a1c5d8146104db578063735631ad146105045780638ad6afec1461052d5761021a565b806322e3d3d71161016457806332f0cba01161013e57806332f0cba01461040d5780633c6f868c1461044a57806346da8e73146104755780637065cb48146104b25761021a565b806322e3d3d71461037c578063242232d1146103a75780632f54bf6e146103d05761021a565b806311402c76116101a057806311402c76146102c257806312065fe0146102eb578063173825d9146103165780631ade0a3b1461033f5761021a565b806251acbc1461021f578063025e7c27146102485780630dd07bdb146102855761021a565b3661021a573373ffffffffffffffffffffffffffffffffffffffff167fe1fffcc4923d04b559f4d29a8bfc6cda04eb5b0d3c460751c2402c5c5cc9109c3460405161021091906133f2565b60405180910390a2005b600080fd5b34801561022b57600080fd5b506102466004803603810190610241919061344d565b6107b1565b005b34801561025457600080fd5b5061026f600480360381019061026a919061344d565b6108db565b60405161027c91906134bb565b60405180910390f35b34801561029157600080fd5b506102ac60048036038101906102a79190613502565b61091a565b6040516102b9919061355d565b60405180910390f35b3480156102ce57600080fd5b506102e960048036038101906102e4919061344d565b610949565b005b3480156102f757600080fd5b50610300610a73565b60405161030d91906133f2565b60405180910390f35b34801561032257600080fd5b5061033d60048036038101906103389190613578565b610a7b565b005b34801561034b57600080fd5b506103666004803603810190610361919061344d565b610ec6565b60405161037391906134bb565b60405180910390f35b34801561038857600080fd5b50610391610f05565b60405161039e91906133f2565b60405180910390f35b3480156103b357600080fd5b506103ce60048036038101906103c9919061344d565b610f0b565b005b3480156103dc57600080fd5b506103f760048036038101906103f29190613578565b6111d5565b604051610404919061355d565b60405180910390f35b34801561041957600080fd5b50610434600480360381019061042f919061344d565b6111f5565b60405161044191906133f2565b60405180910390f35b34801561045657600080fd5b5061045f6112d9565b60405161046c91906133f2565b60405180910390f35b34801561048157600080fd5b5061049c60048036038101906104979190613578565b6112e3565b6040516104a9919061355d565b60405180910390f35b3480156104be57600080fd5b506104d960048036038101906104d49190613578565b611303565b005b3480156104e757600080fd5b5061050260048036038101906104fd919061344d565b61158c565b005b34801561051057600080fd5b5061052b6004803603810190610526919061344d565b61188b565b005b34801561053957600080fd5b50610542611b32565b60405161054f91906133f2565b60405180910390f35b34801561056457600080fd5b5061057f600480360381019061057a919061344d565b611b3c565b604051610592979695949392919061368a565b60405180910390f35b3480156105a757600080fd5b506105b0611d60565b6040516105bd91906137cc565b60405180910390f35b3480156105d257600080fd5b506105ed60048036038101906105e8919061344d565b611dee565b6040516105fa91906133f2565b60405180910390f35b34801561060f57600080fd5b5061062a60048036038101906106259190613502565b611ed2565b604051610637919061355d565b60405180910390f35b34801561064c57600080fd5b50610655611f01565b6040516106629190613a20565b60405180910390f35b34801561067757600080fd5b50610692600480360381019061068d919061344d565b6123fd565b60405161069f91906133f2565b60405180910390f35b3480156106b457600080fd5b506106bd6124e1565b6040516106d09796959493929190613d24565b60405180910390f35b3480156106e557600080fd5b5061070060048036038101906106fb9190613f9a565b612c75565b005b34801561070e57600080fd5b50610717612ece565b60405161072491906133f2565b60405180910390f35b6107476004803603810190610742919061344d565b612ed4565b005b34801561075557600080fd5b5061075e613208565b60405161076b91906137cc565b60405180910390f35b34801561078057600080fd5b5061079b6004803603810190610796919061344d565b613296565b6040516107a891906133f2565b60405180910390f35b600560003373ffffffffffffffffffffffffffffffffffffffff1673ffffffffffffffffffffffffffffffffffffffff16815260200190815260200160002060009054906101000a900460ff1661083d576040517f08c379a000000000000000000000000000000000000000000000000000000000815260040161083490614101565b60405180910390fd5b6000610847611d60565b905060008211801561085a575080518211155b610899576040517f08c379a0000000000000000000000000000000000000000000000000000000008152600401610890906141b9565b60405180910390fd5b816002819055507f82d358668ec18939208535db7d6f67cf9b8b8a3f3f791a226ca20bed738e3de0826040516108cf91906133f2565b60405180910390a15050565b600081815481106108eb57600080fd5b906000526020600020016000915054906101000a900473ffffffffffffffffffffffffffffffffffffffff1681565b60086020528160005260406000206020528060005260406000206000915091509054906101000a900460ff1681565b600560003373ffffffffffffffffffffffffffffffffffffffff1673ffffffffffffffffffffffffffffffffffffffff16815260200190815260200160002060009054906101000a900460ff166109d5576040517f08c379a00000000000000000000000000000000000000000000000000000000081526004016109cc9061424b565b60405180910390fd5b60006109df611d60565b90506000821180156109f2575080518211155b610a31576040517f08c379a0000000000000000000000000000000000000000000000000000000008152600401610a2890614303565b60405180910390fd5b816003819055507fb8ee0b0ffdcaa3f1628d7fc815008e4fd254f2914dc687df6a73206af29d06c282604051610a6791906133f2565b60405180910390a15050565b600047905090565b600560008273ffffffffffffffffffffffffffffffffffffffff1673ffffffffffffffffffffffffffffffffffffffff16815260200190815260200160002060009054906101000a900460ff1615610b08576040517f08c379a0000000000000000000000000000000000000000000000000000000008152600401610aff90614395565b60405180910390fd5b600460003373ffffffffffffffffffffffffffffffffffffffff1673ffffffffffffffffffffffffffffffffffffffff16815260200190815260200160002060009054906101000a900460ff16610b94576040517f08c379a0000000000000000000000000000000000000000000000000000000008152600401610b8b90614401565b60405180910390fd5b600073ffffffffffffffffffffffffffffffffffffffff168173ffffffffffffffffffffffffffffffffffffffff1603610c03576040517f08c379a0000000000000000000000000000000000000000000000000000000008152600401610bfa9061446d565b60405180910390fd5b600460008273ffffffffffffffffffffffffffffffffffffffff1673ffffffffffffffffffffffffffffffffffffffff16815260200190815260200160002060009054906101000a900460ff16610c8f576040517f08c379a0000000000000000000000000000000000000000000000000000000008152600401610c86906144d9565b60405180910390fd5b6000600460008373ffffffffffffffffffffffffffffffffffffffff1673ffffffffffffffffffffffffffffffffffffffff16815260200190815260200160002060006101000a81548160ff02191690831515021790555060005b6001600080549050610cfc9190614528565b811015610e38578173ffffffffffffffffffffffffffffffffffffffff1660008281548110610d2e57610d2d61455c565b5b9060005260206000200160009054906101000a900473ffffffffffffffffffffffffffffffffffffffff1673ffffffffffffffffffffffffffffffffffffffff1603610e255760006001600080549050610d889190614528565b81548110610d9957610d9861455c565b5b9060005260206000200160009054906101000a900473ffffffffffffffffffffffffffffffffffffffff1660008281548110610dd857610dd761455c565b5b9060005260206000200160006101000a81548173ffffffffffffffffffffffffffffffffffffffff021916908373ffffffffffffffffffffffffffffffffffffffff160217905550610e38565b8080610e309061458b565b915050610cea565b506000805480610e4b57610e4a6145d3565b5b6001900381819060005260206000200160006101000a81549073ffffffffffffffffffffffffffffffffffffffff021916905590558073ffffffffffffffffffffffffffffffffffffffff167f8001553a916ef2f495d26a907cc54d96ed840d7bda71e73194bf5a9df7a76b9060405160405180910390a250565b60018181548110610ed657600080fd5b906000526020600020016000915054906101000a900473ffffffffffffffffffffffffffffffffffffffff1681565b60035481565b600460003373ffffffffffffffffffffffffffffffffffffffff1673ffffffffffffffffffffffffffffffffffffffff16815260200190815260200160002060009054906101000a900460ff16610f97576040517f08c379a0000000000000000000000000000000000000000000000000000000008152600401610f8e90614401565b60405180910390fd5b6007600082815260200190815260200160002060003373ffffffffffffffffffffffffffffffffffffffff1673ffffffffffffffffffffffffffffffffffffffff16815260200190815260200160002060009054906101000a900460ff1615611035576040517f08c379a000000000000000000000000000000000000000000000000000000000815260040161102c90614674565b60405180910390fd5b600115156008600083815260200190815260200160002060003373ffffffffffffffffffffffffffffffffffffffff1673ffffffffffffffffffffffffffffffffffffffff16815260200190815260200160002060009054906101000a900460ff161515036110a8576110a78161188b565b5b60016007600083815260200190815260200160002060003373ffffffffffffffffffffffffffffffffffffffff1673ffffffffffffffffffffffffffffffffffffffff16815260200190815260200160002060006101000a81548160ff021916908315150217905550600061111c82611dee565b905060006002549050808210158061117d5750600560003373ffffffffffffffffffffffffffffffffffffffff1673ffffffffffffffffffffffffffffffffffffffff16815260200190815260200160002060009054906101000a900460ff165b1561118c5761118b83612ed4565b5b823373ffffffffffffffffffffffffffffffffffffffff167ffa624aadd8a0eae4ee975eae5cf13c9803b361b7fa2d832427db6207c088219360405160405180910390a3505050565b60046020528060005260406000206000915054906101000a900460ff1681565b6000806000905060005b6000805490508110156112cf576007600085815260200190815260200160002060008083815481106112345761123361455c565b5b9060005260206000200160009054906101000a900473ffffffffffffffffffffffffffffffffffffffff1673ffffffffffffffffffffffffffffffffffffffff1673ffffffffffffffffffffffffffffffffffffffff16815260200190815260200160002060009054906101000a900460ff16156112bc576001826112b99190614694565b91505b80806112c79061458b565b9150506111ff565b5080915050919050565b6000600254905090565b60056020528060005260406000206000915054906101000a900460ff1681565b600460003373ffffffffffffffffffffffffffffffffffffffff1673ffffffffffffffffffffffffffffffffffffffff16815260200190815260200160002060009054906101000a900460ff1661138f576040517f08c379a000000000000000000000000000000000000000000000000000000000815260040161138690614401565b60405180910390fd5b600073ffffffffffffffffffffffffffffffffffffffff168173ffffffffffffffffffffffffffffffffffffffff16036113fe576040517f08c379a00000000000000000000000000000000000000000000000000000000081526004016113f59061446d565b60405180910390fd5b600460008273ffffffffffffffffffffffffffffffffffffffff1673ffffffffffffffffffffffffffffffffffffffff16815260200190815260200160002060009054906101000a900460ff161561148b576040517f08c379a000000000000000000000000000000000000000000000000000000000815260040161148290614714565b60405180910390fd5b6001600460008373ffffffffffffffffffffffffffffffffffffffff1673ffffffffffffffffffffffffffffffffffffffff16815260200190815260200160002060006101000a81548160ff0219169083151502179055506000819080600181540180825580915050600190039060005260206000200160009091909190916101000a81548173ffffffffffffffffffffffffffffffffffffffff021916908373ffffffffffffffffffffffffffffffffffffffff1602179055508073ffffffffffffffffffffffffffffffffffffffff167ff39e6e1eb0edcf53c221607b54b00cd28f3196fed0a24994dc308b8f611b682d60405160405180910390a250565b600460003373ffffffffffffffffffffffffffffffffffffffff1673ffffffffffffffffffffffffffffffffffffffff16815260200190815260200160002060009054906101000a900460ff16611618576040517f08c379a000000000000000000000000000000000000000000000000000000000815260040161160f90614401565b60405180910390fd5b6008600082815260200190815260200160002060003373ffffffffffffffffffffffffffffffffffffffff1673ffffffffffffffffffffffffffffffffffffffff16815260200190815260200160002060009054906101000a900460ff16156116b6576040517f08c379a00000000000000000000000000000000000000000000000000000000081526004016116ad906147a6565b60405180910390fd5b600115156007600083815260200190815260200160002060003373ffffffffffffffffffffffffffffffffffffffff1673ffffffffffffffffffffffffffffffffffffffff16815260200190815260200160002060009054906101000a900460ff16151503611729576117288161188b565b5b60016008600083815260200190815260200160002060003373ffffffffffffffffffffffffffffffffffffffff1673ffffffffffffffffffffffffffffffffffffffff16815260200190815260200160002060006101000a81548160ff021916908315150217905550600061179d82613296565b90506000600354905080821015806117fe5750600560003373ffffffffffffffffffffffffffffffffffffffff1673ffffffffffffffffffffffffffffffffffffffff16815260200190815260200160002060009054906101000a900460ff165b15611842576001600684815481106118195761181861455c565b5b906000526020600020906006020160030160016101000a81548160ff0219169083151502179055505b823373ffffffffffffffffffffffffffffffffffffffff167fb22956aab7df08f483a6c7570110f8f745af34d6e5495cd82e04d48d79fff99160405160405180910390a3505050565b600460003373ffffffffffffffffffffffffffffffffffffffff1673ffffffffffffffffffffffffffffffffffffffff16815260200190815260200160002060009054906101000a900460ff16611917576040517f08c379a000000000000000000000000000000000000000000000000000000000815260040161190e90614401565b60405180910390fd5b6007600082815260200190815260200160002060003373ffffffffffffffffffffffffffffffffffffffff1673ffffffffffffffffffffffffffffffffffffffff16815260200190815260200160002060009054906101000a900460ff16806119da57506008600082815260200190815260200160002060003373ffffffffffffffffffffffffffffffffffffffff1673ffffffffffffffffffffffffffffffffffffffff16815260200190815260200160002060009054906101000a900460ff165b611a19576040517f08c379a0000000000000000000000000000000000000000000000000000000008152600401611a1090614838565b60405180910390fd5b60006007600083815260200190815260200160002060003373ffffffffffffffffffffffffffffffffffffffff1673ffffffffffffffffffffffffffffffffffffffff16815260200190815260200160002060006101000a81548160ff02191690831515021790555060006008600083815260200190815260200160002060003373ffffffffffffffffffffffffffffffffffffffff1673ffffffffffffffffffffffffffffffffffffffff16815260200190815260200160002060006101000a81548160ff021916908315150217905550803373ffffffffffffffffffffffffffffffffffffffff167f1ad870073a851011d852bccd8634c29c7c0ac2265ba96d2bab01285001a465a860405160405180910390a350565b6000600354905090565b60068181548110611b4c57600080fd5b90600052602060002090600602016000915090508060000160009054906101000a900473ffffffffffffffffffffffffffffffffffffffff1690806001015490806002018054611b9b90614887565b80601f0160208091040260200160405190810160405280929190818152602001828054611bc790614887565b8015611c145780601f10611be957610100808354040283529160200191611c14565b820191906000526020600020905b815481529060010190602001808311611bf757829003601f168201915b5050505050908060030160009054906101000a900460ff16908060030160019054906101000a900460ff1690806004018054611c4f90614887565b80601f0160208091040260200160405190810160405280929190818152602001828054611c7b90614887565b8015611cc85780601f10611c9d57610100808354040283529160200191611cc8565b820191906000526020600020905b815481529060010190602001808311611cab57829003601f168201915b505050505090806005018054611cdd90614887565b80601f0160208091040260200160405190810160405280929190818152602001828054611d0990614887565b8015611d565780601f10611d2b57610100808354040283529160200191611d56565b820191906000526020600020905b815481529060010190602001808311611d3957829003601f168201915b5050505050905087565b60606000805480602002602001604051908101604052809291908181526020018280548015611de457602002820191906000526020600020905b8160009054906101000a900473ffffffffffffffffffffffffffffffffffffffff1673ffffffffffffffffffffffffffffffffffffffff1681526020019060010190808311611d9a575b5050505050905090565b6000806000905060005b600080549050811015611ec857600760008581526020019081526020016000206000808381548110611e2d57611e2c61455c565b5b9060005260206000200160009054906101000a900473ffffffffffffffffffffffffffffffffffffffff1673ffffffffffffffffffffffffffffffffffffffff1673ffffffffffffffffffffffffffffffffffffffff16815260200190815260200160002060009054906101000a900460ff1615611eb557600182611eb29190614694565b91505b8080611ec09061458b565b915050611df8565b5080915050919050565b60076020528160005260406000206020528060005260406000206000915091509054906101000a900460ff1681565b60606000805b600680549050811015611fab5760068181548110611f2857611f2761455c565b5b906000526020600020906006020160030160009054906101000a900460ff16158015611f84575060068181548110611f6357611f6261455c565b5b906000526020600020906006020160030160019054906101000a900460ff16155b15611f98578180611f949061458b565b9250505b8080611fa39061458b565b915050611f07565b5060008167ffffffffffffffff811115611fc857611fc7613dce565b5b60405190808252806020026020018201604052801561200157816020015b611fee61337a565b815260200190600190039081611fe65790505b5090506000805b6006805490508110156123f357600681815481106120295761202861455c565b5b906000526020600020906006020160030160009054906101000a900460ff161580156120855750600681815481106120645761206361455c565b5b906000526020600020906006020160030160019054906101000a900460ff16155b156123e057604051806101000160405280828152602001600683815481106120b0576120af61455c565b5b906000526020600020906006020160000160009054906101000a900473ffffffffffffffffffffffffffffffffffffffff1673ffffffffffffffffffffffffffffffffffffffff168152602001600683815481106121115761211061455c565b5b90600052602060002090600602016001015481526020016006838154811061213c5761213b61455c565b5b9060005260206000209060060201600201805461215890614887565b80601f016020809104026020016040519081016040528092919081815260200182805461218490614887565b80156121d15780601f106121a6576101008083540402835291602001916121d1565b820191906000526020600020905b8154815290600101906020018083116121b457829003601f168201915b50505050508152602001600683815481106121ef576121ee61455c565b5b906000526020600020906006020160030160009054906101000a900460ff1615158152602001600683815481106122295761222861455c565b5b906000526020600020906006020160030160019054906101000a900460ff1615158152602001600683815481106122635761226261455c565b5b9060005260206000209060060201600401805461227f90614887565b80601f01602080910402602001604051908101604052809291908181526020018280546122ab90614887565b80156122f85780601f106122cd576101008083540402835291602001916122f8565b820191906000526020600020905b8154815290600101906020018083116122db57829003601f168201915b50505050508152602001600683815481106123165761231561455c565b5b9060005260206000209060060201600501805461233290614887565b80601f016020809104026020016040519081016040528092919081815260200182805461235e90614887565b80156123ab5780601f10612380576101008083540402835291602001916123ab565b820191906000526020600020905b81548152906001019060200180831161238e57829003601f168201915b50505050508152508383815181106123c6576123c561455c565b5b602002602001018190525081806123dc9061458b565b9250505b80806123eb9061458b565b915050612008565b5081935050505090565b6000806000905060005b6000805490508110156124d75760086000858152602001908152602001600020600080838154811061243c5761243b61455c565b5b9060005260206000200160009054906101000a900473ffffffffffffffffffffffffffffffffffffffff1673ffffffffffffffffffffffffffffffffffffffff1673ffffffffffffffffffffffffffffffffffffffff16815260200190815260200160002060009054906101000a900460ff16156124c4576001826124c19190614694565b91505b80806124cf9061458b565b915050612407565b5080915050919050565b60608060608060608060606000805b60068054905081101561259157600681815481106125115761251061455c565b5b906000526020600020906006020160030160009054906101000a900460ff168061256a57506006818154811061254a5761254961455c565b5b906000526020600020906006020160030160019054906101000a900460ff165b1561257e57818061257a9061458b565b9250505b80806125899061458b565b9150506124f0565b5060008167ffffffffffffffff8111156125ae576125ad613dce565b5b6040519080825280602002602001820160405280156125dc5781602001602082028036833780820191505090505b50905060008267ffffffffffffffff8111156125fb576125fa613dce565b5b6040519080825280602002602001820160405280156126295781602001602082028036833780820191505090505b50905060008367ffffffffffffffff81111561264857612647613dce565b5b60405190808252806020026020018201604052801561267b57816020015b60608152602001906001900390816126665790505b50905060008467ffffffffffffffff81111561269a57612699613dce565b5b6040519080825280602002602001820160405280156126c85781602001602082028036833780820191505090505b50905060008567ffffffffffffffff8111156126e7576126e6613dce565b5b6040519080825280602002602001820160405280156127155781602001602082028036833780820191505090505b50905060008667ffffffffffffffff81111561273457612733613dce565b5b60405190808252806020026020018201604052801561276757816020015b60608152602001906001900390816127525790505b50905060008767ffffffffffffffff81111561278657612785613dce565b5b6040519080825280602002602001820160405280156127b957816020015b60608152602001906001900390816127a45790505b5090506000805b600680549050811015612c4d57600681815481106127e1576127e061455c565b5b906000526020600020906006020160030160009054906101000a900460ff168061283a57506006818154811061281a5761281961455c565b5b906000526020600020906006020160030160019054906101000a900460ff165b15612c3a57600681815481106128535761285261455c565b5b906000526020600020906006020160000160009054906101000a900473ffffffffffffffffffffffffffffffffffffffff168983815181106128985761289761455c565b5b602002602001019073ffffffffffffffffffffffffffffffffffffffff16908173ffffffffffffffffffffffffffffffffffffffff1681525050600681815481106128e6576128e561455c565b5b90600052602060002090600602016001015488838151811061290b5761290a61455c565b5b6020026020010181815250506006818154811061292b5761292a61455c565b5b9060005260206000209060060201600201805461294790614887565b80601f016020809104026020016040519081016040528092919081815260200182805461297390614887565b80156129c05780601f10612995576101008083540402835291602001916129c0565b820191906000526020600020905b8154815290600101906020018083116129a357829003601f168201915b50505050508783815181106129d8576129d761455c565b5b6020026020010181905250600681815481106129f7576129f661455c565b5b906000526020600020906006020160030160009054906101000a900460ff16868381518110612a2957612a2861455c565b5b60200260200101901515908115158152505060068181548110612a4f57612a4e61455c565b5b906000526020600020906006020160030160019054906101000a900460ff16858381518110612a8157612a8061455c565b5b60200260200101901515908115158152505060068181548110612aa757612aa661455c565b5b90600052602060002090600602016004018054612ac390614887565b80601f0160208091040260200160405190810160405280929190818152602001828054612aef90614887565b8015612b3c5780601f10612b1157610100808354040283529160200191612b3c565b820191906000526020600020905b815481529060010190602001808311612b1f57829003601f168201915b5050505050848381518110612b5457612b5361455c565b5b602002602001018190525060068181548110612b7357612b7261455c565b5b90600052602060002090600602016005018054612b8f90614887565b80601f0160208091040260200160405190810160405280929190818152602001828054612bbb90614887565b8015612c085780601f10612bdd57610100808354040283529160200191612c08565b820191906000526020600020905b815481529060010190602001808311612beb57829003601f168201915b5050505050838381518110612c2057612c1f61455c565b5b60200260200101819052508180612c369061458b565b9250505b8080612c459061458b565b9150506127c0565b50878787878787879f509f509f509f509f509f509f5050505050505050505090919293949596565b600460003373ffffffffffffffffffffffffffffffffffffffff1673ffffffffffffffffffffffffffffffffffffffff16815260200190815260200160002060009054906101000a900460ff16612d01576040517f08c379a0000000000000000000000000000000000000000000000000000000008152600401612cf890614401565b60405180910390fd5b6000600680549050905060066040518060e001604052808873ffffffffffffffffffffffffffffffffffffffff16815260200187815260200186815260200160001515815260200160001515815260200185815260200184815250908060018154018082558091505060019003906000526020600020906006020160009091909190915060008201518160000160006101000a81548173ffffffffffffffffffffffffffffffffffffffff021916908373ffffffffffffffffffffffffffffffffffffffff160217905550602082015181600101556040820151816002019081612deb9190614a64565b5060608201518160030160006101000a81548160ff02191690831515021790555060808201518160030160016101000a81548160ff02191690831515021790555060a0820151816004019081612e419190614b91565b5060c0820151816005019081612e579190614b91565b5050508573ffffffffffffffffffffffffffffffffffffffff16813373ffffffffffffffffffffffffffffffffffffffff167fc9a2c504dbf2cd0ddc4ab54bff20b057ff12210b428dfeb83a3ca5a884786a5588888888604051612ebe9493929190614c63565b60405180910390a4505050505050565b60025481565b600460003373ffffffffffffffffffffffffffffffffffffffff1673ffffffffffffffffffffffffffffffffffffffff16815260200190815260200160002060009054906101000a900460ff16612f60576040517f08c379a0000000000000000000000000000000000000000000000000000000008152600401612f5790614401565b60405180910390fd5b60068181548110612f7457612f7361455c565b5b906000526020600020906006020160030160009054906101000a900460ff1615612fd3576040517f08c379a0000000000000000000000000000000000000000000000000000000008152600401612fca90614d2f565b60405180910390fd5b60068181548110612fe757612fe661455c565b5b906000526020600020906006020160030160019054906101000a900460ff1615613046576040517f08c379a000000000000000000000000000000000000000000000000000000000815260040161303d90614d9b565b60405180910390fd5b60016006828154811061305c5761305b61455c565b5b906000526020600020906006020160030160006101000a81548160ff02191690831515021790555060006006828154811061309a5761309961455c565b5b906000526020600020906006020160000160009054906101000a900473ffffffffffffffffffffffffffffffffffffffff1673ffffffffffffffffffffffffffffffffffffffff16600683815481106130f6576130f561455c565b5b9060005260206000209060060201600101546006848154811061311c5761311b61455c565b5b906000526020600020906006020160020160405161313a9190614e49565b60006040518083038185875af1925050503d8060008114613177576040519150601f19603f3d011682016040523d82523d6000602084013e61317c565b606091505b50509050806131c0576040517f08c379a00000000000000000000000000000000000000000000000000000000081526004016131b790614eac565b60405180910390fd5b813373ffffffffffffffffffffffffffffffffffffffff167f5445f318f4f5fcfb66592e68e0cc5822aa15664039bd5f0ffde24c5a8142b1ac60405160405180910390a35050565b6060600180548060200260200160405190810160405280929190818152602001828054801561328c57602002820191906000526020600020905b8160009054906101000a900473ffffffffffffffffffffffffffffffffffffffff1673ffffffffffffffffffffffffffffffffffffffff1681526020019060010190808311613242575b5050505050905090565b6000806000905060005b600080549050811015613370576008600085815260200190815260200160002060008083815481106132d5576132d461455c565b5b9060005260206000200160009054906101000a900473ffffffffffffffffffffffffffffffffffffffff1673ffffffffffffffffffffffffffffffffffffffff1673ffffffffffffffffffffffffffffffffffffffff16815260200190815260200160002060009054906101000a900460ff161561335d5760018261335a9190614694565b91505b80806133689061458b565b9150506132a0565b5080915050919050565b60405180610100016040528060008152602001600073ffffffffffffffffffffffffffffffffffffffff168152602001600081526020016060815260200160001515815260200160001515815260200160608152602001606081525090565b6000819050919050565b6133ec816133d9565b82525050565b600060208201905061340760008301846133e3565b92915050565b6000604051905090565b600080fd5b600080fd5b61342a816133d9565b811461343557600080fd5b50565b60008135905061344781613421565b92915050565b60006020828403121561346357613462613417565b5b600061347184828501613438565b91505092915050565b600073ffffffffffffffffffffffffffffffffffffffff82169050919050565b60006134a58261347a565b9050919050565b6134b58161349a565b82525050565b60006020820190506134d060008301846134ac565b92915050565b6134df8161349a565b81146134ea57600080fd5b50565b6000813590506134fc816134d6565b92915050565b6000806040838503121561351957613518613417565b5b600061352785828601613438565b9250506020613538858286016134ed565b9150509250929050565b60008115159050919050565b61355781613542565b82525050565b6000602082019050613572600083018461354e565b92915050565b60006020828403121561358e5761358d613417565b5b600061359c848285016134ed565b91505092915050565b600081519050919050565b600082825260208201905092915050565b60005b838110156135df5780820151818401526020810190506135c4565b60008484015250505050565b6000601f19601f8301169050919050565b6000613607826135a5565b61361181856135b0565b93506136218185602086016135c1565b61362a816135eb565b840191505092915050565b600081519050919050565b600082825260208201905092915050565b600061365c82613635565b6136668185613640565b93506136768185602086016135c1565b61367f816135eb565b840191505092915050565b600060e08201905061369f600083018a6134ac565b6136ac60208301896133e3565b81810360408301526136be81886135fc565b90506136cd606083018761354e565b6136da608083018661354e565b81810360a08301526136ec8185613651565b905081810360c08301526137008184613651565b905098975050505050505050565b600081519050919050565b600082825260208201905092915050565b6000819050602082019050919050565b6137438161349a565b82525050565b6000613755838361373a565b60208301905092915050565b6000602082019050919050565b60006137798261370e565b6137838185613719565b935061378e8361372a565b8060005b838110156137bf5781516137a68882613749565b97506137b183613761565b925050600181019050613792565b5085935050505092915050565b600060208201905081810360008301526137e6818461376e565b905092915050565b600081519050919050565b600082825260208201905092915050565b6000819050602082019050919050565b613823816133d9565b82525050565b600082825260208201905092915050565b6000613845826135a5565b61384f8185613829565b935061385f8185602086016135c1565b613868816135eb565b840191505092915050565b61387c81613542565b82525050565b600082825260208201905092915050565b600061389e82613635565b6138a88185613882565b93506138b88185602086016135c1565b6138c1816135eb565b840191505092915050565b6000610100830160008301516138e5600086018261381a565b5060208301516138f8602086018261373a565b50604083015161390b604086018261381a565b5060608301518482036060860152613923828261383a565b91505060808301516139386080860182613873565b5060a083015161394b60a0860182613873565b5060c083015184820360c08601526139638282613893565b91505060e083015184820360e086015261397d8282613893565b9150508091505092915050565b600061399683836138cc565b905092915050565b6000602082019050919050565b60006139b6826137ee565b6139c081856137f9565b9350836020820285016139d28561380a565b8060005b85811015613a0e57848403895281516139ef858261398a565b94506139fa8361399e565b925060208a019950506001810190506139d6565b50829750879550505050505092915050565b60006020820190508181036000830152613a3a81846139ab565b905092915050565b600081519050919050565b600082825260208201905092915050565b6000819050602082019050919050565b6000613a7a838361381a565b60208301905092915050565b6000602082019050919050565b6000613a9e82613a42565b613aa88185613a4d565b9350613ab383613a5e565b8060005b83811015613ae4578151613acb8882613a6e565b9750613ad683613a86565b925050600181019050613ab7565b5085935050505092915050565b600081519050919050565b600082825260208201905092915050565b6000819050602082019050919050565b6000613b29838361383a565b905092915050565b6000602082019050919050565b6000613b4982613af1565b613b538185613afc565b935083602082028501613b6585613b0d565b8060005b85811015613ba15784840389528151613b828582613b1d565b9450613b8d83613b31565b925060208a01995050600181019050613b69565b50829750879550505050505092915050565b600081519050919050565b600082825260208201905092915050565b6000819050602082019050919050565b6000613beb8383613873565b60208301905092915050565b6000602082019050919050565b6000613c0f82613bb3565b613c198185613bbe565b9350613c2483613bcf565b8060005b83811015613c55578151613c3c8882613bdf565b9750613c4783613bf7565b925050600181019050613c28565b5085935050505092915050565b600081519050919050565b600082825260208201905092915050565b6000819050602082019050919050565b6000613c9a8383613893565b905092915050565b6000602082019050919050565b6000613cba82613c62565b613cc48185613c6d565b935083602082028501613cd685613c7e565b8060005b85811015613d125784840389528151613cf38582613c8e565b9450613cfe83613ca2565b925060208a01995050600181019050613cda565b50829750879550505050505092915050565b600060e0820190508181036000830152613d3e818a61376e565b90508181036020830152613d528189613a93565b90508181036040830152613d668188613b3e565b90508181036060830152613d7a8187613c04565b90508181036080830152613d8e8186613c04565b905081810360a0830152613da28185613caf565b905081810360c0830152613db68184613caf565b905098975050505050505050565b600080fd5b600080fd5b7f4e487b7100000000000000000000000000000000000000000000000000000000600052604160045260246000fd5b613e06826135eb565b810181811067ffffffffffffffff82111715613e2557613e24613dce565b5b80604052505050565b6000613e3861340d565b9050613e448282613dfd565b919050565b600067ffffffffffffffff821115613e6457613e63613dce565b5b613e6d826135eb565b9050602081019050919050565b82818337600083830152505050565b6000613e9c613e9784613e49565b613e2e565b905082815260208101848484011115613eb857613eb7613dc9565b5b613ec3848285613e7a565b509392505050565b600082601f830112613ee057613edf613dc4565b5b8135613ef0848260208601613e89565b91505092915050565b600067ffffffffffffffff821115613f1457613f13613dce565b5b613f1d826135eb565b9050602081019050919050565b6000613f3d613f3884613ef9565b613e2e565b905082815260208101848484011115613f5957613f58613dc9565b5b613f64848285613e7a565b509392505050565b600082601f830112613f8157613f80613dc4565b5b8135613f91848260208601613f2a565b91505092915050565b600080600080600060a08688031215613fb657613fb5613417565b5b6000613fc4888289016134ed565b9550506020613fd588828901613438565b945050604086013567ffffffffffffffff811115613ff657613ff561341c565b5b61400288828901613ecb565b935050606086013567ffffffffffffffff8111156140235761402261341c565b5b61402f88828901613f6c565b925050608086013567ffffffffffffffff8111156140505761404f61341c565b5b61405c88828901613f6c565b9150509295509295909350565b7f55736572206973206e6f7420616e206f726967696e616c206f776e65722c207360008201527f6f2063616e6e6f74206368616e676520617070726f76616c732072657175697260208201527f6564000000000000000000000000000000000000000000000000000000000000604082015250565b60006140eb604283613640565b91506140f682614069565b606082019050919050565b6000602082019050818103600083015261411a816140de565b9050919050565b7f417070726f76616c73207265717569726564206d75737420626520677265617460008201527f6572207468616e203020616e64206c657373207468616e206f7220657175616c60208201527f20746f20746865206e756d626572206f66206f776e6572730000000000000000604082015250565b60006141a3605883613640565b91506141ae82614121565b606082019050919050565b600060208201905081810360008301526141d281614196565b9050919050565b7f55736572206973206e6f7420616e206f726967696e616c206f776e65722c207360008201527f6f2063616e6e6f74206368616e67652064656e69616c73207265717569726564602082015250565b6000614235604083613640565b9150614240826141d9565b604082019050919050565b6000602082019050818103600083015261426481614228565b9050919050565b7f44656e69616c73207265717569726564206d757374206265206772656174657260008201527f207468616e203020616e64206c657373207468616e206f7220657175616c207460208201527f6f20746865206e756d626572206f66206f776e65727300000000000000000000604082015250565b60006142ed605683613640565b91506142f88261426b565b606082019050919050565b6000602082019050818103600083015261431c816142e0565b9050919050565b7f5573657220697320616e206f726967696e616c206f776e657220736f2063616e60008201527f6e6f742062652072656d6f766564000000000000000000000000000000000000602082015250565b600061437f602e83613640565b915061438a82614323565b604082019050919050565b600060208201905081810360008301526143ae81614372565b9050919050565b7f55736572206973206e6f7420616e206f776e6572000000000000000000000000600082015250565b60006143eb601483613640565b91506143f6826143b5565b602082019050919050565b6000602082019050818103600083015261441a816143de565b9050919050565b7f6f776e657220697320746865207a65726f206164647265737300000000000000600082015250565b6000614457601983613640565b915061446282614421565b602082019050919050565b600060208201905081810360008301526144868161444a565b9050919050565b7f6f776e6572206973206e6f7420616e206f776e65720000000000000000000000600082015250565b60006144c3601583613640565b91506144ce8261448d565b602082019050919050565b600060208201905081810360008301526144f2816144b6565b9050919050565b7f4e487b7100000000000000000000000000000000000000000000000000000000600052601160045260246000fd5b6000614533826133d9565b915061453e836133d9565b9250828203905081811115614556576145556144f9565b5b92915050565b7f4e487b7100000000000000000000000000000000000000000000000000000000600052603260045260246000fd5b6000614596826133d9565b91507fffffffffffffffffffffffffffffffffffffffffffffffffffffffffffffffff82036145c8576145c76144f9565b5b600182019050919050565b7f4e487b7100000000000000000000000000000000000000000000000000000000600052603160045260246000fd5b7f557365722068617320616c726561647920617070726f7665642074686973207460008201527f72616e73616374696f6e00000000000000000000000000000000000000000000602082015250565b600061465e602a83613640565b915061466982614602565b604082019050919050565b6000602082019050818103600083015261468d81614651565b9050919050565b600061469f826133d9565b91506146aa836133d9565b92508282019050808211156146c2576146c16144f9565b5b92915050565b7f6f776e657220616c726561647920616464656400000000000000000000000000600082015250565b60006146fe601383613640565b9150614709826146c8565b602082019050919050565b6000602082019050818103600083015261472d816146f1565b9050919050565b7f557365722068617320616c72656164792064656e69656420746869732074726160008201527f6e73616374696f6e000000000000000000000000000000000000000000000000602082015250565b6000614790602883613640565b915061479b82614734565b604082019050919050565b600060208201905081810360008301526147bf81614783565b9050919050565b7f5573657220686173206e6f7420617070726f766564206f722064656e6965642060008201527f74686973207472616e73616374696f6e00000000000000000000000000000000602082015250565b6000614822603083613640565b915061482d826147c6565b604082019050919050565b6000602082019050818103600083015261485181614815565b9050919050565b7f4e487b7100000000000000000000000000000000000000000000000000000000600052602260045260246000fd5b6000600282049050600182168061489f57607f821691505b6020821081036148b2576148b1614858565b5b50919050565b60008190508160005260206000209050919050565b60006020601f8301049050919050565b600082821b905092915050565b60006008830261491a7fffffffffffffffffffffffffffffffffffffffffffffffffffffffffffffffff826148dd565b61492486836148dd565b95508019841693508086168417925050509392505050565b6000819050919050565b600061496161495c614957846133d9565b61493c565b6133d9565b9050919050565b6000819050919050565b61497b83614946565b61498f61498782614968565b8484546148ea565b825550505050565b600090565b6149a4614997565b6149af818484614972565b505050565b5b818110156149d3576149c860008261499c565b6001810190506149b5565b5050565b601f821115614a18576149e9816148b8565b6149f2846148cd565b81016020851015614a01578190505b614a15614a0d856148cd565b8301826149b4565b50505b505050565b600082821c905092915050565b6000614a3b60001984600802614a1d565b1980831691505092915050565b6000614a548383614a2a565b9150826002028217905092915050565b614a6d826135a5565b67ffffffffffffffff811115614a8657614a85613dce565b5b614a908254614887565b614a9b8282856149d7565b600060209050601f831160018114614ace5760008415614abc578287015190505b614ac68582614a48565b865550614b2e565b601f198416614adc866148b8565b60005b82811015614b0457848901518255600182019150602085019450602081019050614adf565b86831015614b215784890151614b1d601f891682614a2a565b8355505b6001600288020188555050505b505050505050565b60008190508160005260206000209050919050565b601f821115614b8c57614b5d81614b36565b614b66846148cd565b81016020851015614b75578190505b614b89614b81856148cd565b8301826149b4565b50505b505050565b614b9a82613635565b67ffffffffffffffff811115614bb357614bb2613dce565b5b614bbd8254614887565b614bc8828285614b4b565b600060209050601f831160018114614bfb5760008415614be9578287015190505b614bf38582614a48565b865550614c5b565b601f198416614c0986614b36565b60005b82811015614c3157848901518255600182019150602085019450602081019050614c0c565b86831015614c4e5784890151614c4a601f891682614a2a565b8355505b6001600288020188555050505b505050505050565b6000608082019050614c7860008301876133e3565b8181036020830152614c8a81866135fc565b90508181036040830152614c9e8185613651565b90508181036060830152614cb28184613651565b905095945050505050565b7f5472616e73616374696f6e2068617320616c7265616479206265656e2065786560008201527f6375746564000000000000000000000000000000000000000000000000000000602082015250565b6000614d19602583613640565b9150614d2482614cbd565b604082019050919050565b60006020820190508181036000830152614d4881614d0c565b9050919050565b7f5472616e73616374696f6e20686173206265656e2064656e6965640000000000600082015250565b6000614d85601b83613640565b9150614d9082614d4f565b602082019050919050565b60006020820190508181036000830152614db481614d78565b9050919050565b600081905092915050565b60008154614dd381614887565b614ddd8186614dbb565b94506001821660008114614df85760018114614e0d57614e40565b60ff1983168652811515820286019350614e40565b614e16856148b8565b60005b83811015614e3857815481890152600182019150602081019050614e19565b838801955050505b50505092915050565b6000614e558284614dc6565b915081905092915050565b7f5472616e73616374696f6e206661696c65640000000000000000000000000000600082015250565b6000614e96601283613640565b9150614ea182614e60565b602082019050919050565b60006020820190508181036000830152614ec581614e89565b905091905056fea26469706673582212206e3e6184009841a0a7cdef1fd1111bbef1336d8d299e2ef4a501ee161bb0bb0364736f6c63430008110033",
  "linkReferences": {},
  "deployedLinkReferences": {}
}