{
  "_format": "hh-sol-artifact-1",
  "contractName": "FrontierMultisig",
  "sourceName": "contracts/FrontierMultisig.sol",
  "abi": [
    {
      "inputs": [
        {
          "internalType": "address",
          "name": "owner",
          "type": "address"
        }
      ],
      "stateMutability": "nonpayable",
      "type": "constructor"
    },
    {
      "anonymous": false,
      "inputs": [
        {
          "indexed": false,
          "internalType": "uint256",
          "name": "required",
          "type": "uint256"
        }
      ],
      "name": "ApprovalRequirementChange",
      "type": "event"
    },
    {
      "anonymous": false,
      "inputs": [
        {
          "indexed": true,
          "internalType": "address",
          "name": "owner",
          "type": "address"
        },
        {
          "indexed": true,
          "internalType": "uint256",
          "name": "txIndex",
          "type": "uint256"
        }
      ],
      "name": "ApproveTransaction",
      "type": "event"
    },
    {
      "anonymous": false,
      "inputs": [
        {
          "indexed": false,
          "internalType": "uint256",
          "name": "required",
          "type": "uint256"
        }
      ],
      "name": "DenyRequirementChange",
      "type": "event"
    },
    {
      "anonymous": false,
      "inputs": [
        {
          "indexed": true,
          "internalType": "address",
          "name": "owner",
          "type": "address"
        },
        {
          "indexed": true,
          "internalType": "uint256",
          "name": "txIndex",
          "type": "uint256"
        }
      ],
      "name": "DenyTransaction",
      "type": "event"
    },
    {
      "anonymous": false,
      "inputs": [
        {
          "indexed": true,
          "internalType": "address",
          "name": "sender",
          "type": "address"
        },
        {
          "indexed": false,
          "internalType": "uint256",
          "name": "value",
          "type": "uint256"
        }
      ],
      "name": "Deposit",
      "type": "event"
    },
    {
      "anonymous": false,
      "inputs": [
        {
          "indexed": true,
          "internalType": "address",
          "name": "owner",
          "type": "address"
        },
        {
          "indexed": true,
          "internalType": "uint256",
          "name": "txIndex",
          "type": "uint256"
        }
      ],
      "name": "ExecuteTransaction",
      "type": "event"
    },
    {
      "anonymous": false,
      "inputs": [
        {
          "indexed": true,
          "internalType": "address",
          "name": "owner",
          "type": "address"
        }
      ],
      "name": "OwnerAddition",
      "type": "event"
    },
    {
      "anonymous": false,
      "inputs": [
        {
          "indexed": true,
          "internalType": "address",
          "name": "owner",
          "type": "address"
        }
      ],
      "name": "OwnerRemoval",
      "type": "event"
    },
    {
      "anonymous": false,
      "inputs": [
        {
          "indexed": true,
          "internalType": "address",
          "name": "owner",
          "type": "address"
        },
        {
          "indexed": true,
          "internalType": "uint256",
          "name": "txIndex",
          "type": "uint256"
        }
      ],
      "name": "RevokeTransaction",
      "type": "event"
    },
    {
      "anonymous": false,
      "inputs": [
        {
          "indexed": true,
          "internalType": "address",
          "name": "owner",
          "type": "address"
        },
        {
          "indexed": true,
          "internalType": "uint256",
          "name": "txIndex",
          "type": "uint256"
        },
        {
          "indexed": true,
          "internalType": "address",
          "name": "to",
          "type": "address"
        },
        {
          "indexed": false,
          "internalType": "uint256",
          "name": "value",
          "type": "uint256"
        },
        {
          "indexed": false,
          "internalType": "bytes",
          "name": "data",
          "type": "bytes"
        }
      ],
      "name": "SubmitTransaction",
      "type": "event"
    },
    {
      "inputs": [
        {
          "internalType": "address",
          "name": "owner",
          "type": "address"
        }
      ],
      "name": "addOwner",
      "outputs": [],
      "stateMutability": "nonpayable",
      "type": "function"
    },
    {
      "inputs": [
        {
          "internalType": "uint256",
          "name": "",
          "type": "uint256"
        },
        {
          "internalType": "address",
          "name": "",
          "type": "address"
        }
      ],
      "name": "approvals",
      "outputs": [
        {
          "internalType": "bool",
          "name": "",
          "type": "bool"
        }
      ],
      "stateMutability": "view",
      "type": "function"
    },
    {
      "inputs": [],
      "name": "approvalsRequired",
      "outputs": [
        {
          "internalType": "uint256",
          "name": "",
          "type": "uint256"
        }
      ],
      "stateMutability": "view",
      "type": "function"
    },
    {
      "inputs": [
        {
          "internalType": "uint256",
          "name": "txIndex",
          "type": "uint256"
        }
      ],
      "name": "approveTransaction",
      "outputs": [],
      "stateMutability": "nonpayable",
      "type": "function"
    },
    {
      "inputs": [
        {
          "internalType": "uint256",
          "name": "_approvalsRequired",
          "type": "uint256"
        }
      ],
      "name": "changeApprovalsRequired",
      "outputs": [],
      "stateMutability": "nonpayable",
      "type": "function"
    },
    {
      "inputs": [
        {
          "internalType": "uint256",
          "name": "_denialsRequired",
          "type": "uint256"
        }
      ],
      "name": "changeDenialsRequired",
      "outputs": [],
      "stateMutability": "nonpayable",
      "type": "function"
    },
    {
      "inputs": [
        {
          "internalType": "uint256",
          "name": "",
          "type": "uint256"
        },
        {
          "internalType": "address",
          "name": "",
          "type": "address"
        }
      ],
      "name": "denials",
      "outputs": [
        {
          "internalType": "bool",
          "name": "",
          "type": "bool"
        }
      ],
      "stateMutability": "view",
      "type": "function"
    },
    {
      "inputs": [],
      "name": "denialsRequired",
      "outputs": [
        {
          "internalType": "uint256",
          "name": "",
          "type": "uint256"
        }
      ],
      "stateMutability": "view",
      "type": "function"
    },
    {
      "inputs": [
        {
          "internalType": "uint256",
          "name": "txIndex",
          "type": "uint256"
        }
      ],
      "name": "denyTransaction",
      "outputs": [],
      "stateMutability": "nonpayable",
      "type": "function"
    },
    {
      "inputs": [
        {
          "internalType": "uint256",
          "name": "txIndex",
          "type": "uint256"
        }
      ],
      "name": "executeTransaction",
      "outputs": [],
      "stateMutability": "payable",
      "type": "function"
    },
    {
      "inputs": [],
      "name": "getApprovalsRequired",
      "outputs": [
        {
          "internalType": "uint256",
          "name": "",
          "type": "uint256"
        }
      ],
      "stateMutability": "view",
      "type": "function"
    },
    {
      "inputs": [],
      "name": "getBalance",
      "outputs": [
        {
          "internalType": "uint256",
          "name": "",
          "type": "uint256"
        }
      ],
      "stateMutability": "view",
      "type": "function"
    },
    {
      "inputs": [],
      "name": "getCompleteTransactions",
      "outputs": [
        {
          "internalType": "address[]",
          "name": "",
          "type": "address[]"
        },
        {
          "internalType": "uint256[]",
          "name": "",
          "type": "uint256[]"
        },
        {
          "internalType": "bytes[]",
          "name": "",
          "type": "bytes[]"
        },
        {
          "internalType": "bool[]",
          "name": "",
          "type": "bool[]"
        },
        {
          "internalType": "bool[]",
          "name": "",
          "type": "bool[]"
        }
      ],
      "stateMutability": "view",
      "type": "function"
    },
    {
      "inputs": [],
      "name": "getDenialsRequired",
      "outputs": [
        {
          "internalType": "uint256",
          "name": "",
          "type": "uint256"
        }
      ],
      "stateMutability": "view",
      "type": "function"
    },
    {
      "inputs": [],
      "name": "getOriginalOwners",
      "outputs": [
        {
          "internalType": "address[]",
          "name": "",
          "type": "address[]"
        }
      ],
      "stateMutability": "view",
      "type": "function"
    },
    {
      "inputs": [],
      "name": "getOwners",
      "outputs": [
        {
          "internalType": "address[]",
          "name": "",
          "type": "address[]"
        }
      ],
      "stateMutability": "view",
      "type": "function"
    },
    {
      "inputs": [],
      "name": "getPendingTransactions",
      "outputs": [
        {
          "internalType": "uint256[]",
          "name": "",
          "type": "uint256[]"
        },
        {
          "internalType": "address[]",
          "name": "",
          "type": "address[]"
        },
        {
          "internalType": "uint256[]",
          "name": "",
          "type": "uint256[]"
        },
        {
          "internalType": "bytes[]",
          "name": "",
          "type": "bytes[]"
        },
        {
          "internalType": "bool[]",
          "name": "",
          "type": "bool[]"
        },
        {
          "internalType": "bool[]",
          "name": "",
          "type": "bool[]"
        }
      ],
      "stateMutability": "view",
      "type": "function"
    },
    {
      "inputs": [
        {
          "internalType": "uint256",
          "name": "txIndex",
          "type": "uint256"
        }
      ],
      "name": "getTransactionApprovalCount",
      "outputs": [
        {
          "internalType": "uint256",
          "name": "",
          "type": "uint256"
        }
      ],
      "stateMutability": "view",
      "type": "function"
    },
    {
      "inputs": [
        {
          "internalType": "uint256",
          "name": "txIndex",
          "type": "uint256"
        }
      ],
      "name": "getTransactionApprovals",
      "outputs": [
        {
          "internalType": "uint256",
          "name": "",
          "type": "uint256"
        }
      ],
      "stateMutability": "view",
      "type": "function"
    },
    {
      "inputs": [
        {
          "internalType": "uint256",
          "name": "txIndex",
          "type": "uint256"
        }
      ],
      "name": "getTransactionDenialCount",
      "outputs": [
        {
          "internalType": "uint256",
          "name": "",
          "type": "uint256"
        }
      ],
      "stateMutability": "view",
      "type": "function"
    },
    {
      "inputs": [
        {
          "internalType": "uint256",
          "name": "txIndex",
          "type": "uint256"
        }
      ],
      "name": "getTransactionDenials",
      "outputs": [
        {
          "internalType": "uint256",
          "name": "",
          "type": "uint256"
        }
      ],
      "stateMutability": "view",
      "type": "function"
    },
    {
      "inputs": [
        {
          "internalType": "address",
          "name": "",
          "type": "address"
        }
      ],
      "name": "isOriginalOwner",
      "outputs": [
        {
          "internalType": "bool",
          "name": "",
          "type": "bool"
        }
      ],
      "stateMutability": "view",
      "type": "function"
    },
    {
      "inputs": [
        {
          "internalType": "address",
          "name": "",
          "type": "address"
        }
      ],
      "name": "isOwner",
      "outputs": [
        {
          "internalType": "bool",
          "name": "",
          "type": "bool"
        }
      ],
      "stateMutability": "view",
      "type": "function"
    },
    {
      "inputs": [
        {
          "internalType": "uint256",
          "name": "",
          "type": "uint256"
        }
      ],
      "name": "originalOwners",
      "outputs": [
        {
          "internalType": "address",
          "name": "",
          "type": "address"
        }
      ],
      "stateMutability": "view",
      "type": "function"
    },
    {
      "inputs": [
        {
          "internalType": "uint256",
          "name": "",
          "type": "uint256"
        }
      ],
      "name": "owners",
      "outputs": [
        {
          "internalType": "address",
          "name": "",
          "type": "address"
        }
      ],
      "stateMutability": "view",
      "type": "function"
    },
    {
      "inputs": [
        {
          "internalType": "address",
          "name": "owner",
          "type": "address"
        }
      ],
      "name": "removeOwner",
      "outputs": [],
      "stateMutability": "nonpayable",
      "type": "function"
    },
    {
      "inputs": [
        {
          "internalType": "uint256",
          "name": "txIndex",
          "type": "uint256"
        }
      ],
      "name": "revokeTransaction",
      "outputs": [],
      "stateMutability": "nonpayable",
      "type": "function"
    },
    {
      "inputs": [
        {
          "internalType": "address",
          "name": "to",
          "type": "address"
        },
        {
          "internalType": "uint256",
          "name": "value",
          "type": "uint256"
        },
        {
          "internalType": "bytes",
          "name": "data",
          "type": "bytes"
        }
      ],
      "name": "submitTransaction",
      "outputs": [],
      "stateMutability": "nonpayable",
      "type": "function"
    },
    {
      "inputs": [
        {
          "internalType": "uint256",
          "name": "",
          "type": "uint256"
        }
      ],
      "name": "transactions",
      "outputs": [
        {
          "internalType": "address",
          "name": "to",
          "type": "address"
        },
        {
          "internalType": "uint256",
          "name": "value",
          "type": "uint256"
        },
        {
          "internalType": "bytes",
          "name": "data",
          "type": "bytes"
        },
        {
          "internalType": "bool",
          "name": "executed",
          "type": "bool"
        },
        {
          "internalType": "bool",
          "name": "denied",
          "type": "bool"
        }
      ],
      "stateMutability": "view",
      "type": "function"
    },
    {
      "stateMutability": "payable",
      "type": "receive"
    }
  ],
  "bytecode": "0x6080604052600160025560016003553480156200001b57600080fd5b50604051620049693803806200496983398181016040528101906200004191906200029a565b600073ffffffffffffffffffffffffffffffffffffffff168173ffffffffffffffffffffffffffffffffffffffff1603620000b3576040517f08c379a0000000000000000000000000000000000000000000000000000000008152600401620000aa906200032d565b60405180910390fd5b6001600460008373ffffffffffffffffffffffffffffffffffffffff1673ffffffffffffffffffffffffffffffffffffffff16815260200190815260200160002060006101000a81548160ff0219169083151502179055506000819080600181540180825580915050600190039060005260206000200160009091909190916101000a81548173ffffffffffffffffffffffffffffffffffffffff021916908373ffffffffffffffffffffffffffffffffffffffff1602179055506001600560008373ffffffffffffffffffffffffffffffffffffffff1673ffffffffffffffffffffffffffffffffffffffff16815260200190815260200160002060006101000a81548160ff0219169083151502179055506001819080600181540180825580915050600190039060005260206000200160009091909190916101000a81548173ffffffffffffffffffffffffffffffffffffffff021916908373ffffffffffffffffffffffffffffffffffffffff160217905550506200034f565b600080fd5b600073ffffffffffffffffffffffffffffffffffffffff82169050919050565b6000620002628262000235565b9050919050565b620002748162000255565b81146200028057600080fd5b50565b600081519050620002948162000269565b92915050565b600060208284031215620002b357620002b262000230565b5b6000620002c38482850162000283565b91505092915050565b600082825260208201905092915050565b7f6f776e657220697320746865207a65726f206164647265737300000000000000600082015250565b600062000315601983620002cc565b91506200032282620002dd565b602082019050919050565b60006020820190508181036000830152620003488162000306565b9050919050565b61460a806200035f6000396000f3fe6080604052600436106101c55760003560e01c806371a1c5d8116100f7578063c642747411610095578063ea1d59c911610064578063ea1d59c914610703578063ee22610b1461072e578063f04fb07a1461074a578063f592ba45146107755761021a565b8063c64274741461063e578063d11db83f14610667578063de5d22d614610697578063e022249b146106d45761021a565b80639ace38c2116100d15780639ace38c214610558578063a0e67e2b14610599578063a4ee77f3146105c4578063ab2850da146106015761021a565b806371a1c5d8146104db578063735631ad146105045780638ad6afec1461052d5761021a565b806322e3d3d71161016457806332f0cba01161013e57806332f0cba01461040d5780633c6f868c1461044a57806346da8e73146104755780637065cb48146104b25761021a565b806322e3d3d71461037c578063242232d1146103a75780632f54bf6e146103d05761021a565b806311402c76116101a057806311402c76146102c257806312065fe0146102eb578063173825d9146103165780631ade0a3b1461033f5761021a565b806251acbc1461021f578063025e7c27146102485780630dd07bdb146102855761021a565b3661021a573373ffffffffffffffffffffffffffffffffffffffff167fe1fffcc4923d04b559f4d29a8bfc6cda04eb5b0d3c460751c2402c5c5cc9109c34604051610210919061300d565b60405180910390a2005b600080fd5b34801561022b57600080fd5b5061024660048036038101906102419190613068565b6107b2565b005b34801561025457600080fd5b5061026f600480360381019061026a9190613068565b6108dc565b60405161027c91906130d6565b60405180910390f35b34801561029157600080fd5b506102ac60048036038101906102a7919061311d565b61091b565b6040516102b99190613178565b60405180910390f35b3480156102ce57600080fd5b506102e960048036038101906102e49190613068565b61094a565b005b3480156102f757600080fd5b50610300610a74565b60405161030d919061300d565b60405180910390f35b34801561032257600080fd5b5061033d60048036038101906103389190613193565b610a7c565b005b34801561034b57600080fd5b5061036660048036038101906103619190613068565b610ec7565b60405161037391906130d6565b60405180910390f35b34801561038857600080fd5b50610391610f06565b60405161039e919061300d565b60405180910390f35b3480156103b357600080fd5b506103ce60048036038101906103c99190613068565b610f0c565b005b3480156103dc57600080fd5b506103f760048036038101906103f29190613193565b611180565b6040516104049190613178565b60405180910390f35b34801561041957600080fd5b50610434600480360381019061042f9190613068565b6111a0565b604051610441919061300d565b60405180910390f35b34801561045657600080fd5b5061045f611284565b60405161046c919061300d565b60405180910390f35b34801561048157600080fd5b5061049c60048036038101906104979190613193565b61128e565b6040516104a99190613178565b60405180910390f35b3480156104be57600080fd5b506104d960048036038101906104d49190613193565b6112ae565b005b3480156104e757600080fd5b5061050260048036038101906104fd9190613068565b611537565b005b34801561051057600080fd5b5061052b60048036038101906105269190613068565b6117e0565b005b34801561053957600080fd5b50610542611a87565b60405161054f919061300d565b60405180910390f35b34801561056457600080fd5b5061057f600480360381019061057a9190613068565b611a91565b604051610590959493929190613250565b60405180910390f35b3480156105a557600080fd5b506105ae611b99565b6040516105bb9190613368565b60405180910390f35b3480156105d057600080fd5b506105eb60048036038101906105e69190613068565b611c27565b6040516105f8919061300d565b60405180910390f35b34801561060d57600080fd5b506106286004803603810190610623919061311d565b611d0b565b6040516106359190613178565b60405180910390f35b34801561064a57600080fd5b50610665600480360381019061066091906134bf565b611d3a565b005b34801561067357600080fd5b5061067c611f55565b60405161068e969594939291906137b6565b60405180910390f35b3480156106a357600080fd5b506106be60048036038101906106b99190613068565b612519565b6040516106cb919061300d565b60405180910390f35b3480156106e057600080fd5b506106e96125fd565b6040516106fa959493929190613841565b60405180910390f35b34801561070f57600080fd5b50610718612b48565b604051610725919061300d565b60405180910390f35b61074860048036038101906107439190613068565b612b4e565b005b34801561075657600080fd5b5061075f612e82565b60405161076c9190613368565b60405180910390f35b34801561078157600080fd5b5061079c60048036038101906107979190613068565b612f10565b6040516107a9919061300d565b60405180910390f35b600560003373ffffffffffffffffffffffffffffffffffffffff1673ffffffffffffffffffffffffffffffffffffffff16815260200190815260200160002060009054906101000a900460ff1661083e576040517f08c379a000000000000000000000000000000000000000000000000000000000815260040161083590613960565b60405180910390fd5b6000610848611b99565b905060008211801561085b575080518211155b61089a576040517f08c379a000000000000000000000000000000000000000000000000000000000815260040161089190613a18565b60405180910390fd5b816002819055507f82d358668ec18939208535db7d6f67cf9b8b8a3f3f791a226ca20bed738e3de0826040516108d0919061300d565b60405180910390a15050565b600081815481106108ec57600080fd5b906000526020600020016000915054906101000a900473ffffffffffffffffffffffffffffffffffffffff1681565b60086020528160005260406000206020528060005260406000206000915091509054906101000a900460ff1681565b600560003373ffffffffffffffffffffffffffffffffffffffff1673ffffffffffffffffffffffffffffffffffffffff16815260200190815260200160002060009054906101000a900460ff166109d6576040517f08c379a00000000000000000000000000000000000000000000000000000000081526004016109cd90613aaa565b60405180910390fd5b60006109e0611b99565b90506000821180156109f3575080518211155b610a32576040517f08c379a0000000000000000000000000000000000000000000000000000000008152600401610a2990613b62565b60405180910390fd5b816003819055507fb8ee0b0ffdcaa3f1628d7fc815008e4fd254f2914dc687df6a73206af29d06c282604051610a68919061300d565b60405180910390a15050565b600047905090565b600560008273ffffffffffffffffffffffffffffffffffffffff1673ffffffffffffffffffffffffffffffffffffffff16815260200190815260200160002060009054906101000a900460ff1615610b09576040517f08c379a0000000000000000000000000000000000000000000000000000000008152600401610b0090613bf4565b60405180910390fd5b600460003373ffffffffffffffffffffffffffffffffffffffff1673ffffffffffffffffffffffffffffffffffffffff16815260200190815260200160002060009054906101000a900460ff16610b95576040517f08c379a0000000000000000000000000000000000000000000000000000000008152600401610b8c90613c60565b60405180910390fd5b600073ffffffffffffffffffffffffffffffffffffffff168173ffffffffffffffffffffffffffffffffffffffff1603610c04576040517f08c379a0000000000000000000000000000000000000000000000000000000008152600401610bfb90613ccc565b60405180910390fd5b600460008273ffffffffffffffffffffffffffffffffffffffff1673ffffffffffffffffffffffffffffffffffffffff16815260200190815260200160002060009054906101000a900460ff16610c90576040517f08c379a0000000000000000000000000000000000000000000000000000000008152600401610c8790613d38565b60405180910390fd5b6000600460008373ffffffffffffffffffffffffffffffffffffffff1673ffffffffffffffffffffffffffffffffffffffff16815260200190815260200160002060006101000a81548160ff02191690831515021790555060005b6001600080549050610cfd9190613d87565b811015610e39578173ffffffffffffffffffffffffffffffffffffffff1660008281548110610d2f57610d2e613dbb565b5b9060005260206000200160009054906101000a900473ffffffffffffffffffffffffffffffffffffffff1673ffffffffffffffffffffffffffffffffffffffff1603610e265760006001600080549050610d899190613d87565b81548110610d9a57610d99613dbb565b5b9060005260206000200160009054906101000a900473ffffffffffffffffffffffffffffffffffffffff1660008281548110610dd957610dd8613dbb565b5b9060005260206000200160006101000a81548173ffffffffffffffffffffffffffffffffffffffff021916908373ffffffffffffffffffffffffffffffffffffffff160217905550610e39565b8080610e3190613dea565b915050610ceb565b506000805480610e4c57610e4b613e32565b5b6001900381819060005260206000200160006101000a81549073ffffffffffffffffffffffffffffffffffffffff021916905590558073ffffffffffffffffffffffffffffffffffffffff167f8001553a916ef2f495d26a907cc54d96ed840d7bda71e73194bf5a9df7a76b9060405160405180910390a250565b60018181548110610ed757600080fd5b906000526020600020016000915054906101000a900473ffffffffffffffffffffffffffffffffffffffff1681565b60035481565b600460003373ffffffffffffffffffffffffffffffffffffffff1673ffffffffffffffffffffffffffffffffffffffff16815260200190815260200160002060009054906101000a900460ff16610f98576040517f08c379a0000000000000000000000000000000000000000000000000000000008152600401610f8f90613c60565b60405180910390fd5b6007600082815260200190815260200160002060003373ffffffffffffffffffffffffffffffffffffffff1673ffffffffffffffffffffffffffffffffffffffff16815260200190815260200160002060009054906101000a900460ff1615611036576040517f08c379a000000000000000000000000000000000000000000000000000000000815260040161102d90613ed3565b60405180910390fd5b600115156008600083815260200190815260200160002060003373ffffffffffffffffffffffffffffffffffffffff1673ffffffffffffffffffffffffffffffffffffffff16815260200190815260200160002060009054906101000a900460ff161515036110a9576110a8816117e0565b5b60016007600083815260200190815260200160002060003373ffffffffffffffffffffffffffffffffffffffff1673ffffffffffffffffffffffffffffffffffffffff16815260200190815260200160002060006101000a81548160ff021916908315150217905550600061111d82611c27565b9050600060025490508082106111375761113683612b4e565b5b823373ffffffffffffffffffffffffffffffffffffffff167ffa624aadd8a0eae4ee975eae5cf13c9803b361b7fa2d832427db6207c088219360405160405180910390a3505050565b60046020528060005260406000206000915054906101000a900460ff1681565b6000806000905060005b60008054905081101561127a576007600085815260200190815260200160002060008083815481106111df576111de613dbb565b5b9060005260206000200160009054906101000a900473ffffffffffffffffffffffffffffffffffffffff1673ffffffffffffffffffffffffffffffffffffffff1673ffffffffffffffffffffffffffffffffffffffff16815260200190815260200160002060009054906101000a900460ff1615611267576001826112649190613ef3565b91505b808061127290613dea565b9150506111aa565b5080915050919050565b6000600254905090565b60056020528060005260406000206000915054906101000a900460ff1681565b600460003373ffffffffffffffffffffffffffffffffffffffff1673ffffffffffffffffffffffffffffffffffffffff16815260200190815260200160002060009054906101000a900460ff1661133a576040517f08c379a000000000000000000000000000000000000000000000000000000000815260040161133190613c60565b60405180910390fd5b600073ffffffffffffffffffffffffffffffffffffffff168173ffffffffffffffffffffffffffffffffffffffff16036113a9576040517f08c379a00000000000000000000000000000000000000000000000000000000081526004016113a090613ccc565b60405180910390fd5b600460008273ffffffffffffffffffffffffffffffffffffffff1673ffffffffffffffffffffffffffffffffffffffff16815260200190815260200160002060009054906101000a900460ff1615611436576040517f08c379a000000000000000000000000000000000000000000000000000000000815260040161142d90613f73565b60405180910390fd5b6001600460008373ffffffffffffffffffffffffffffffffffffffff1673ffffffffffffffffffffffffffffffffffffffff16815260200190815260200160002060006101000a81548160ff0219169083151502179055506000819080600181540180825580915050600190039060005260206000200160009091909190916101000a81548173ffffffffffffffffffffffffffffffffffffffff021916908373ffffffffffffffffffffffffffffffffffffffff1602179055508073ffffffffffffffffffffffffffffffffffffffff167ff39e6e1eb0edcf53c221607b54b00cd28f3196fed0a24994dc308b8f611b682d60405160405180910390a250565b600460003373ffffffffffffffffffffffffffffffffffffffff1673ffffffffffffffffffffffffffffffffffffffff16815260200190815260200160002060009054906101000a900460ff166115c3576040517f08c379a00000000000000000000000000000000000000000000000000000000081526004016115ba90613c60565b60405180910390fd5b6008600082815260200190815260200160002060003373ffffffffffffffffffffffffffffffffffffffff1673ffffffffffffffffffffffffffffffffffffffff16815260200190815260200160002060009054906101000a900460ff1615611661576040517f08c379a000000000000000000000000000000000000000000000000000000000815260040161165890614005565b60405180910390fd5b600115156007600083815260200190815260200160002060003373ffffffffffffffffffffffffffffffffffffffff1673ffffffffffffffffffffffffffffffffffffffff16815260200190815260200160002060009054906101000a900460ff161515036116d4576116d3816117e0565b5b60016008600083815260200190815260200160002060003373ffffffffffffffffffffffffffffffffffffffff1673ffffffffffffffffffffffffffffffffffffffff16815260200190815260200160002060006101000a81548160ff021916908315150217905550600061174882612f10565b9050600060035490508082106117975760016006848154811061176e5761176d613dbb565b5b906000526020600020906004020160030160016101000a81548160ff0219169083151502179055505b823373ffffffffffffffffffffffffffffffffffffffff167fb22956aab7df08f483a6c7570110f8f745af34d6e5495cd82e04d48d79fff99160405160405180910390a3505050565b600460003373ffffffffffffffffffffffffffffffffffffffff1673ffffffffffffffffffffffffffffffffffffffff16815260200190815260200160002060009054906101000a900460ff1661186c576040517f08c379a000000000000000000000000000000000000000000000000000000000815260040161186390613c60565b60405180910390fd5b6007600082815260200190815260200160002060003373ffffffffffffffffffffffffffffffffffffffff1673ffffffffffffffffffffffffffffffffffffffff16815260200190815260200160002060009054906101000a900460ff168061192f57506008600082815260200190815260200160002060003373ffffffffffffffffffffffffffffffffffffffff1673ffffffffffffffffffffffffffffffffffffffff16815260200190815260200160002060009054906101000a900460ff165b61196e576040517f08c379a000000000000000000000000000000000000000000000000000000000815260040161196590614097565b60405180910390fd5b60006007600083815260200190815260200160002060003373ffffffffffffffffffffffffffffffffffffffff1673ffffffffffffffffffffffffffffffffffffffff16815260200190815260200160002060006101000a81548160ff02191690831515021790555060006008600083815260200190815260200160002060003373ffffffffffffffffffffffffffffffffffffffff1673ffffffffffffffffffffffffffffffffffffffff16815260200190815260200160002060006101000a81548160ff021916908315150217905550803373ffffffffffffffffffffffffffffffffffffffff167f1ad870073a851011d852bccd8634c29c7c0ac2265ba96d2bab01285001a465a860405160405180910390a350565b6000600354905090565b60068181548110611aa157600080fd5b90600052602060002090600402016000915090508060000160009054906101000a900473ffffffffffffffffffffffffffffffffffffffff1690806001015490806002018054611af0906140e6565b80601f0160208091040260200160405190810160405280929190818152602001828054611b1c906140e6565b8015611b695780601f10611b3e57610100808354040283529160200191611b69565b820191906000526020600020905b815481529060010190602001808311611b4c57829003601f168201915b5050505050908060030160009054906101000a900460ff16908060030160019054906101000a900460ff16905085565b60606000805480602002602001604051908101604052809291908181526020018280548015611c1d57602002820191906000526020600020905b8160009054906101000a900473ffffffffffffffffffffffffffffffffffffffff1673ffffffffffffffffffffffffffffffffffffffff1681526020019060010190808311611bd3575b5050505050905090565b6000806000905060005b600080549050811015611d0157600760008581526020019081526020016000206000808381548110611c6657611c65613dbb565b5b9060005260206000200160009054906101000a900473ffffffffffffffffffffffffffffffffffffffff1673ffffffffffffffffffffffffffffffffffffffff1673ffffffffffffffffffffffffffffffffffffffff16815260200190815260200160002060009054906101000a900460ff1615611cee57600182611ceb9190613ef3565b91505b8080611cf990613dea565b915050611c31565b5080915050919050565b60076020528160005260406000206020528060005260406000206000915091509054906101000a900460ff1681565b600460003373ffffffffffffffffffffffffffffffffffffffff1673ffffffffffffffffffffffffffffffffffffffff16815260200190815260200160002060009054906101000a900460ff16611dc6576040517f08c379a0000000000000000000000000000000000000000000000000000000008152600401611dbd90613c60565b60405180910390fd5b6000600680549050905060066040518060a001604052808673ffffffffffffffffffffffffffffffffffffffff16815260200185815260200184815260200160001515815260200160001515815250908060018154018082558091505060019003906000526020600020906004020160009091909190915060008201518160000160006101000a81548173ffffffffffffffffffffffffffffffffffffffff021916908373ffffffffffffffffffffffffffffffffffffffff160217905550602082015181600101556040820151816002019081611ea491906142c3565b5060608201518160030160006101000a81548160ff02191690831515021790555060808201518160030160016101000a81548160ff02191690831515021790555050508373ffffffffffffffffffffffffffffffffffffffff16813373ffffffffffffffffffffffffffffffffffffffff167fd5a05bf70715ad82a09a756320284a1b54c9ff74cd0f8cce6219e79b563fe59d8686604051611f47929190614395565b60405180910390a450505050565b6060806060806060806000805b6006805490508110156120065760068181548110611f8357611f82613dbb565b5b906000526020600020906004020160030160009054906101000a900460ff16158015611fdf575060068181548110611fbe57611fbd613dbb565b5b906000526020600020906004020160030160019054906101000a900460ff16155b15611ff3578180611fef90613dea565b9250505b8080611ffe90613dea565b915050611f62565b5060008167ffffffffffffffff81111561202357612022613394565b5b6040519080825280602002602001820160405280156120515781602001602082028036833780820191505090505b50905060008267ffffffffffffffff8111156120705761206f613394565b5b60405190808252806020026020018201604052801561209e5781602001602082028036833780820191505090505b50905060008367ffffffffffffffff8111156120bd576120bc613394565b5b6040519080825280602002602001820160405280156120eb5781602001602082028036833780820191505090505b50905060008467ffffffffffffffff81111561210a57612109613394565b5b60405190808252806020026020018201604052801561213d57816020015b60608152602001906001900390816121285790505b50905060008567ffffffffffffffff81111561215c5761215b613394565b5b60405190808252806020026020018201604052801561218a5781602001602082028036833780820191505090505b50905060008667ffffffffffffffff8111156121a9576121a8613394565b5b6040519080825280602002602001820160405280156121d75781602001602082028036833780820191505090505b5090506000805b6006805490508110156124f657600681815481106121ff576121fe613dbb565b5b906000526020600020906004020160030160009054906101000a900460ff1615801561225b57506006818154811061223a57612239613dbb565b5b906000526020600020906004020160030160019054906101000a900460ff16155b156124e3578088838151811061227457612273613dbb565b5b6020026020010181815250506006818154811061229457612293613dbb565b5b906000526020600020906004020160000160009054906101000a900473ffffffffffffffffffffffffffffffffffffffff168783815181106122d9576122d8613dbb565b5b602002602001019073ffffffffffffffffffffffffffffffffffffffff16908173ffffffffffffffffffffffffffffffffffffffff16815250506006818154811061232757612326613dbb565b5b90600052602060002090600402016001015486838151811061234c5761234b613dbb565b5b6020026020010181815250506006818154811061236c5761236b613dbb565b5b90600052602060002090600402016002018054612388906140e6565b80601f01602080910402602001604051908101604052809291908181526020018280546123b4906140e6565b80156124015780601f106123d657610100808354040283529160200191612401565b820191906000526020600020905b8154815290600101906020018083116123e457829003601f168201915b505050505085838151811061241957612418613dbb565b5b60200260200101819052506006818154811061243857612437613dbb565b5b906000526020600020906004020160030160009054906101000a900460ff1684838151811061246a57612469613dbb565b5b602002602001019015159081151581525050600681815481106124905761248f613dbb565b5b906000526020600020906004020160030160019054906101000a900460ff168383815181106124c2576124c1613dbb565b5b60200260200101901515908115158152505081806124df90613dea565b9250505b80806124ee90613dea565b9150506121de565b508686868686869d509d509d509d509d509d505050505050505050909192939495565b6000806000905060005b6000805490508110156125f35760086000858152602001908152602001600020600080838154811061255857612557613dbb565b5b9060005260206000200160009054906101000a900473ffffffffffffffffffffffffffffffffffffffff1673ffffffffffffffffffffffffffffffffffffffff1673ffffffffffffffffffffffffffffffffffffffff16815260200190815260200160002060009054906101000a900460ff16156125e0576001826125dd9190613ef3565b91505b80806125eb90613dea565b915050612523565b5080915050919050565b60608060608060606000805b6006805490508110156126aa576006818154811061262a57612629613dbb565b5b906000526020600020906004020160030160009054906101000a900460ff168061268357506006818154811061266357612662613dbb565b5b906000526020600020906004020160030160019054906101000a900460ff165b1561269757818061269390613dea565b9250505b80806126a290613dea565b915050612609565b5060008167ffffffffffffffff8111156126c7576126c6613394565b5b6040519080825280602002602001820160405280156126f55781602001602082028036833780820191505090505b50905060008267ffffffffffffffff81111561271457612713613394565b5b6040519080825280602002602001820160405280156127425781602001602082028036833780820191505090505b50905060008367ffffffffffffffff81111561276157612760613394565b5b60405190808252806020026020018201604052801561279457816020015b606081526020019060019003908161277f5790505b50905060008467ffffffffffffffff8111156127b3576127b2613394565b5b6040519080825280602002602001820160405280156127e15781602001602082028036833780820191505090505b50905060008567ffffffffffffffff811115612800576127ff613394565b5b60405190808252806020026020018201604052801561282e5781602001602082028036833780820191505090505b5090506000805b600680549050811015612b2a576006818154811061285657612855613dbb565b5b906000526020600020906004020160030160009054906101000a900460ff16806128af57506006818154811061288f5761288e613dbb565b5b906000526020600020906004020160030160019054906101000a900460ff165b15612b1757600681815481106128c8576128c7613dbb565b5b906000526020600020906004020160000160009054906101000a900473ffffffffffffffffffffffffffffffffffffffff1687838151811061290d5761290c613dbb565b5b602002602001019073ffffffffffffffffffffffffffffffffffffffff16908173ffffffffffffffffffffffffffffffffffffffff16815250506006818154811061295b5761295a613dbb565b5b9060005260206000209060040201600101548683815181106129805761297f613dbb565b5b602002602001018181525050600681815481106129a05761299f613dbb565b5b906000526020600020906004020160020180546129bc906140e6565b80601f01602080910402602001604051908101604052809291908181526020018280546129e8906140e6565b8015612a355780601f10612a0a57610100808354040283529160200191612a35565b820191906000526020600020905b815481529060010190602001808311612a1857829003601f168201915b5050505050858381518110612a4d57612a4c613dbb565b5b602002602001018190525060068181548110612a6c57612a6b613dbb565b5b906000526020600020906004020160030160009054906101000a900460ff16848381518110612a9e57612a9d613dbb565b5b60200260200101901515908115158152505060068181548110612ac457612ac3613dbb565b5b906000526020600020906004020160030160019054906101000a900460ff16838381518110612af657612af5613dbb565b5b6020026020010190151590811515815250508180612b1390613dea565b9250505b8080612b2290613dea565b915050612835565b5085858585859b509b509b509b509b50505050505050509091929394565b60025481565b600460003373ffffffffffffffffffffffffffffffffffffffff1673ffffffffffffffffffffffffffffffffffffffff16815260200190815260200160002060009054906101000a900460ff16612bda576040517f08c379a0000000000000000000000000000000000000000000000000000000008152600401612bd190613c60565b60405180910390fd5b60068181548110612bee57612bed613dbb565b5b906000526020600020906004020160030160009054906101000a900460ff1615612c4d576040517f08c379a0000000000000000000000000000000000000000000000000000000008152600401612c4490614437565b60405180910390fd5b60068181548110612c6157612c60613dbb565b5b906000526020600020906004020160030160019054906101000a900460ff1615612cc0576040517f08c379a0000000000000000000000000000000000000000000000000000000008152600401612cb7906144a3565b60405180910390fd5b600160068281548110612cd657612cd5613dbb565b5b906000526020600020906004020160030160006101000a81548160ff021916908315150217905550600060068281548110612d1457612d13613dbb565b5b906000526020600020906004020160000160009054906101000a900473ffffffffffffffffffffffffffffffffffffffff1673ffffffffffffffffffffffffffffffffffffffff1660068381548110612d7057612d6f613dbb565b5b90600052602060002090600402016001015460068481548110612d9657612d95613dbb565b5b9060005260206000209060040201600201604051612db49190614551565b60006040518083038185875af1925050503d8060008114612df1576040519150601f19603f3d011682016040523d82523d6000602084013e612df6565b606091505b5050905080612e3a576040517f08c379a0000000000000000000000000000000000000000000000000000000008152600401612e31906145b4565b60405180910390fd5b813373ffffffffffffffffffffffffffffffffffffffff167f5445f318f4f5fcfb66592e68e0cc5822aa15664039bd5f0ffde24c5a8142b1ac60405160405180910390a35050565b60606001805480602002602001604051908101604052809291908181526020018280548015612f0657602002820191906000526020600020905b8160009054906101000a900473ffffffffffffffffffffffffffffffffffffffff1673ffffffffffffffffffffffffffffffffffffffff1681526020019060010190808311612ebc575b5050505050905090565b6000806000905060005b600080549050811015612fea57600860008581526020019081526020016000206000808381548110612f4f57612f4e613dbb565b5b9060005260206000200160009054906101000a900473ffffffffffffffffffffffffffffffffffffffff1673ffffffffffffffffffffffffffffffffffffffff1673ffffffffffffffffffffffffffffffffffffffff16815260200190815260200160002060009054906101000a900460ff1615612fd757600182612fd49190613ef3565b91505b8080612fe290613dea565b915050612f1a565b5080915050919050565b6000819050919050565b61300781612ff4565b82525050565b60006020820190506130226000830184612ffe565b92915050565b6000604051905090565b600080fd5b600080fd5b61304581612ff4565b811461305057600080fd5b50565b6000813590506130628161303c565b92915050565b60006020828403121561307e5761307d613032565b5b600061308c84828501613053565b91505092915050565b600073ffffffffffffffffffffffffffffffffffffffff82169050919050565b60006130c082613095565b9050919050565b6130d0816130b5565b82525050565b60006020820190506130eb60008301846130c7565b92915050565b6130fa816130b5565b811461310557600080fd5b50565b600081359050613117816130f1565b92915050565b6000806040838503121561313457613133613032565b5b600061314285828601613053565b925050602061315385828601613108565b9150509250929050565b60008115159050919050565b6131728161315d565b82525050565b600060208201905061318d6000830184613169565b92915050565b6000602082840312156131a9576131a8613032565b5b60006131b784828501613108565b91505092915050565b600081519050919050565b600082825260208201905092915050565b60005b838110156131fa5780820151818401526020810190506131df565b60008484015250505050565b6000601f19601f8301169050919050565b6000613222826131c0565b61322c81856131cb565b935061323c8185602086016131dc565b61324581613206565b840191505092915050565b600060a08201905061326560008301886130c7565b6132726020830187612ffe565b81810360408301526132848186613217565b90506132936060830185613169565b6132a06080830184613169565b9695505050505050565b600081519050919050565b600082825260208201905092915050565b6000819050602082019050919050565b6132df816130b5565b82525050565b60006132f183836132d6565b60208301905092915050565b6000602082019050919050565b6000613315826132aa565b61331f81856132b5565b935061332a836132c6565b8060005b8381101561335b57815161334288826132e5565b975061334d836132fd565b92505060018101905061332e565b5085935050505092915050565b60006020820190508181036000830152613382818461330a565b905092915050565b600080fd5b600080fd5b7f4e487b7100000000000000000000000000000000000000000000000000000000600052604160045260246000fd5b6133cc82613206565b810181811067ffffffffffffffff821117156133eb576133ea613394565b5b80604052505050565b60006133fe613028565b905061340a82826133c3565b919050565b600067ffffffffffffffff82111561342a57613429613394565b5b61343382613206565b9050602081019050919050565b82818337600083830152505050565b600061346261345d8461340f565b6133f4565b90508281526020810184848401111561347e5761347d61338f565b5b613489848285613440565b509392505050565b600082601f8301126134a6576134a561338a565b5b81356134b684826020860161344f565b91505092915050565b6000806000606084860312156134d8576134d7613032565b5b60006134e686828701613108565b93505060206134f786828701613053565b925050604084013567ffffffffffffffff81111561351857613517613037565b5b61352486828701613491565b9150509250925092565b600081519050919050565b600082825260208201905092915050565b6000819050602082019050919050565b61356381612ff4565b82525050565b6000613575838361355a565b60208301905092915050565b6000602082019050919050565b60006135998261352e565b6135a38185613539565b93506135ae8361354a565b8060005b838110156135df5781516135c68882613569565b97506135d183613581565b9250506001810190506135b2565b5085935050505092915050565b600081519050919050565b600082825260208201905092915050565b6000819050602082019050919050565b600082825260208201905092915050565b6000613634826131c0565b61363e8185613618565b935061364e8185602086016131dc565b61365781613206565b840191505092915050565b600061366e8383613629565b905092915050565b6000602082019050919050565b600061368e826135ec565b61369881856135f7565b9350836020820285016136aa85613608565b8060005b858110156136e657848403895281516136c78582613662565b94506136d283613676565b925060208a019950506001810190506136ae565b50829750879550505050505092915050565b600081519050919050565b600082825260208201905092915050565b6000819050602082019050919050565b61372d8161315d565b82525050565b600061373f8383613724565b60208301905092915050565b6000602082019050919050565b6000613763826136f8565b61376d8185613703565b935061377883613714565b8060005b838110156137a95781516137908882613733565b975061379b8361374b565b92505060018101905061377c565b5085935050505092915050565b600060c08201905081810360008301526137d0818961358e565b905081810360208301526137e4818861330a565b905081810360408301526137f8818761358e565b9050818103606083015261380c8186613683565b905081810360808301526138208185613758565b905081810360a08301526138348184613758565b9050979650505050505050565b600060a082019050818103600083015261385b818861330a565b9050818103602083015261386f818761358e565b905081810360408301526138838186613683565b905081810360608301526138978185613758565b905081810360808301526138ab8184613758565b90509695505050505050565b600082825260208201905092915050565b7f55736572206973206e6f7420616e206f726967696e616c206f776e65722c207360008201527f6f2063616e6e6f74206368616e676520617070726f76616c732072657175697260208201527f6564000000000000000000000000000000000000000000000000000000000000604082015250565b600061394a6042836138b7565b9150613955826138c8565b606082019050919050565b600060208201905081810360008301526139798161393d565b9050919050565b7f417070726f76616c73207265717569726564206d75737420626520677265617460008201527f6572207468616e203020616e64206c657373207468616e206f7220657175616c60208201527f20746f20746865206e756d626572206f66206f776e6572730000000000000000604082015250565b6000613a026058836138b7565b9150613a0d82613980565b606082019050919050565b60006020820190508181036000830152613a31816139f5565b9050919050565b7f55736572206973206e6f7420616e206f726967696e616c206f776e65722c207360008201527f6f2063616e6e6f74206368616e67652064656e69616c73207265717569726564602082015250565b6000613a946040836138b7565b9150613a9f82613a38565b604082019050919050565b60006020820190508181036000830152613ac381613a87565b9050919050565b7f44656e69616c73207265717569726564206d757374206265206772656174657260008201527f207468616e203020616e64206c657373207468616e206f7220657175616c207460208201527f6f20746865206e756d626572206f66206f776e65727300000000000000000000604082015250565b6000613b4c6056836138b7565b9150613b5782613aca565b606082019050919050565b60006020820190508181036000830152613b7b81613b3f565b9050919050565b7f5573657220697320616e206f726967696e616c206f776e657220736f2063616e60008201527f6e6f742062652072656d6f766564000000000000000000000000000000000000602082015250565b6000613bde602e836138b7565b9150613be982613b82565b604082019050919050565b60006020820190508181036000830152613c0d81613bd1565b9050919050565b7f55736572206973206e6f7420616e206f776e6572000000000000000000000000600082015250565b6000613c4a6014836138b7565b9150613c5582613c14565b602082019050919050565b60006020820190508181036000830152613c7981613c3d565b9050919050565b7f6f776e657220697320746865207a65726f206164647265737300000000000000600082015250565b6000613cb66019836138b7565b9150613cc182613c80565b602082019050919050565b60006020820190508181036000830152613ce581613ca9565b9050919050565b7f6f776e6572206973206e6f7420616e206f776e65720000000000000000000000600082015250565b6000613d226015836138b7565b9150613d2d82613cec565b602082019050919050565b60006020820190508181036000830152613d5181613d15565b9050919050565b7f4e487b7100000000000000000000000000000000000000000000000000000000600052601160045260246000fd5b6000613d9282612ff4565b9150613d9d83612ff4565b9250828203905081811115613db557613db4613d58565b5b92915050565b7f4e487b7100000000000000000000000000000000000000000000000000000000600052603260045260246000fd5b6000613df582612ff4565b91507fffffffffffffffffffffffffffffffffffffffffffffffffffffffffffffffff8203613e2757613e26613d58565b5b600182019050919050565b7f4e487b7100000000000000000000000000000000000000000000000000000000600052603160045260246000fd5b7f557365722068617320616c726561647920617070726f7665642074686973207460008201527f72616e73616374696f6e00000000000000000000000000000000000000000000602082015250565b6000613ebd602a836138b7565b9150613ec882613e61565b604082019050919050565b60006020820190508181036000830152613eec81613eb0565b9050919050565b6000613efe82612ff4565b9150613f0983612ff4565b9250828201905080821115613f2157613f20613d58565b5b92915050565b7f6f776e657220616c726561647920616464656400000000000000000000000000600082015250565b6000613f5d6013836138b7565b9150613f6882613f27565b602082019050919050565b60006020820190508181036000830152613f8c81613f50565b9050919050565b7f557365722068617320616c72656164792064656e69656420746869732074726160008201527f6e73616374696f6e000000000000000000000000000000000000000000000000602082015250565b6000613fef6028836138b7565b9150613ffa82613f93565b604082019050919050565b6000602082019050818103600083015261401e81613fe2565b9050919050565b7f5573657220686173206e6f7420617070726f766564206f722064656e6965642060008201527f74686973207472616e73616374696f6e00000000000000000000000000000000602082015250565b60006140816030836138b7565b915061408c82614025565b604082019050919050565b600060208201905081810360008301526140b081614074565b9050919050565b7f4e487b7100000000000000000000000000000000000000000000000000000000600052602260045260246000fd5b600060028204905060018216806140fe57607f821691505b602082108103614111576141106140b7565b5b50919050565b60008190508160005260206000209050919050565b60006020601f8301049050919050565b600082821b905092915050565b6000600883026141797fffffffffffffffffffffffffffffffffffffffffffffffffffffffffffffffff8261413c565b614183868361413c565b95508019841693508086168417925050509392505050565b6000819050919050565b60006141c06141bb6141b684612ff4565b61419b565b612ff4565b9050919050565b6000819050919050565b6141da836141a5565b6141ee6141e6826141c7565b848454614149565b825550505050565b600090565b6142036141f6565b61420e8184846141d1565b505050565b5b81811015614232576142276000826141fb565b600181019050614214565b5050565b601f8211156142775761424881614117565b6142518461412c565b81016020851015614260578190505b61427461426c8561412c565b830182614213565b50505b505050565b600082821c905092915050565b600061429a6000198460080261427c565b1980831691505092915050565b60006142b38383614289565b9150826002028217905092915050565b6142cc826131c0565b67ffffffffffffffff8111156142e5576142e4613394565b5b6142ef82546140e6565b6142fa828285614236565b600060209050601f83116001811461432d576000841561431b578287015190505b61432585826142a7565b86555061438d565b601f19841661433b86614117565b60005b828110156143635784890151825560018201915060208501945060208101905061433e565b86831015614380578489015161437c601f891682614289565b8355505b6001600288020188555050505b505050505050565b60006040820190506143aa6000830185612ffe565b81810360208301526143bc8184613217565b90509392505050565b7f5472616e73616374696f6e2068617320616c7265616479206265656e2065786560008201527f6375746564000000000000000000000000000000000000000000000000000000602082015250565b60006144216025836138b7565b915061442c826143c5565b604082019050919050565b6000602082019050818103600083015261445081614414565b9050919050565b7f5472616e73616374696f6e20686173206265656e2064656e6965640000000000600082015250565b600061448d601b836138b7565b915061449882614457565b602082019050919050565b600060208201905081810360008301526144bc81614480565b9050919050565b600081905092915050565b600081546144db816140e6565b6144e581866144c3565b94506001821660008114614500576001811461451557614548565b60ff1983168652811515820286019350614548565b61451e85614117565b60005b8381101561454057815481890152600182019150602081019050614521565b838801955050505b50505092915050565b600061455d82846144ce565b915081905092915050565b7f5472616e73616374696f6e206661696c65640000000000000000000000000000600082015250565b600061459e6012836138b7565b91506145a982614568565b602082019050919050565b600060208201905081810360008301526145cd81614591565b905091905056fea2646970667358221220869b1d560d9a1a6049974b7a737c169a81738184985d152dddd8854e433b191c64736f6c63430008110033",
  "linkReferences": {},
  "deployedLinkReferences": {}
}