{
  "_format": "hh-sol-artifact-1",
  "contractName": "FrontierMultisig",
  "sourceName": "contracts/FrontierMultisig.sol",
  "abi": [
    {
      "inputs": [
        {
          "internalType": "address",
          "name": "owner",
          "type": "address"
        }
      ],
      "stateMutability": "nonpayable",
      "type": "constructor"
    },
    {
      "anonymous": false,
      "inputs": [
        {
          "indexed": false,
          "internalType": "uint256",
          "name": "required",
          "type": "uint256"
        }
      ],
      "name": "ApprovalRequirementChange",
      "type": "event"
    },
    {
      "anonymous": false,
      "inputs": [
        {
          "indexed": true,
          "internalType": "address",
          "name": "owner",
          "type": "address"
        },
        {
          "indexed": true,
          "internalType": "uint256",
          "name": "txIndex",
          "type": "uint256"
        }
      ],
      "name": "ApproveTransaction",
      "type": "event"
    },
    {
      "anonymous": false,
      "inputs": [
        {
          "indexed": false,
          "internalType": "uint256",
          "name": "required",
          "type": "uint256"
        }
      ],
      "name": "DenyRequirementChange",
      "type": "event"
    },
    {
      "anonymous": false,
      "inputs": [
        {
          "indexed": true,
          "internalType": "address",
          "name": "owner",
          "type": "address"
        },
        {
          "indexed": true,
          "internalType": "uint256",
          "name": "txIndex",
          "type": "uint256"
        }
      ],
      "name": "DenyTransaction",
      "type": "event"
    },
    {
      "anonymous": false,
      "inputs": [
        {
          "indexed": true,
          "internalType": "address",
          "name": "sender",
          "type": "address"
        },
        {
          "indexed": false,
          "internalType": "uint256",
          "name": "value",
          "type": "uint256"
        }
      ],
      "name": "Deposit",
      "type": "event"
    },
    {
      "anonymous": false,
      "inputs": [
        {
          "indexed": true,
          "internalType": "address",
          "name": "owner",
          "type": "address"
        },
        {
          "indexed": true,
          "internalType": "uint256",
          "name": "txIndex",
          "type": "uint256"
        }
      ],
      "name": "ExecuteTransaction",
      "type": "event"
    },
    {
      "anonymous": false,
      "inputs": [
        {
          "indexed": true,
          "internalType": "address",
          "name": "owner",
          "type": "address"
        }
      ],
      "name": "OwnerAddition",
      "type": "event"
    },
    {
      "anonymous": false,
      "inputs": [
        {
          "indexed": true,
          "internalType": "address",
          "name": "owner",
          "type": "address"
        }
      ],
      "name": "OwnerRemoval",
      "type": "event"
    },
    {
      "anonymous": false,
      "inputs": [
        {
          "indexed": true,
          "internalType": "address",
          "name": "owner",
          "type": "address"
        },
        {
          "indexed": true,
          "internalType": "uint256",
          "name": "txIndex",
          "type": "uint256"
        }
      ],
      "name": "RevokeTransaction",
      "type": "event"
    },
    {
      "anonymous": false,
      "inputs": [
        {
          "indexed": true,
          "internalType": "address",
          "name": "owner",
          "type": "address"
        },
        {
          "indexed": true,
          "internalType": "uint256",
          "name": "txIndex",
          "type": "uint256"
        },
        {
          "indexed": true,
          "internalType": "address",
          "name": "to",
          "type": "address"
        },
        {
          "indexed": false,
          "internalType": "uint256",
          "name": "value",
          "type": "uint256"
        },
        {
          "indexed": false,
          "internalType": "bytes",
          "name": "data",
          "type": "bytes"
        }
      ],
      "name": "SubmitTransaction",
      "type": "event"
    },
    {
      "inputs": [
        {
          "internalType": "address",
          "name": "owner",
          "type": "address"
        }
      ],
      "name": "addOwner",
      "outputs": [],
      "stateMutability": "nonpayable",
      "type": "function"
    },
    {
      "inputs": [
        {
          "internalType": "uint256",
          "name": "",
          "type": "uint256"
        },
        {
          "internalType": "address",
          "name": "",
          "type": "address"
        }
      ],
      "name": "approvals",
      "outputs": [
        {
          "internalType": "bool",
          "name": "",
          "type": "bool"
        }
      ],
      "stateMutability": "view",
      "type": "function"
    },
    {
      "inputs": [],
      "name": "approvalsRequired",
      "outputs": [
        {
          "internalType": "uint256",
          "name": "",
          "type": "uint256"
        }
      ],
      "stateMutability": "view",
      "type": "function"
    },
    {
      "inputs": [
        {
          "internalType": "uint256",
          "name": "txIndex",
          "type": "uint256"
        }
      ],
      "name": "approveTransaction",
      "outputs": [],
      "stateMutability": "nonpayable",
      "type": "function"
    },
    {
      "inputs": [
        {
          "internalType": "uint256",
          "name": "_approvalsRequired",
          "type": "uint256"
        }
      ],
      "name": "changeApprovalsRequired",
      "outputs": [],
      "stateMutability": "nonpayable",
      "type": "function"
    },
    {
      "inputs": [
        {
          "internalType": "uint256",
          "name": "_denialsRequired",
          "type": "uint256"
        }
      ],
      "name": "changeDenialsRequired",
      "outputs": [],
      "stateMutability": "nonpayable",
      "type": "function"
    },
    {
      "inputs": [
        {
          "internalType": "uint256",
          "name": "",
          "type": "uint256"
        },
        {
          "internalType": "address",
          "name": "",
          "type": "address"
        }
      ],
      "name": "denials",
      "outputs": [
        {
          "internalType": "bool",
          "name": "",
          "type": "bool"
        }
      ],
      "stateMutability": "view",
      "type": "function"
    },
    {
      "inputs": [],
      "name": "denialsRequired",
      "outputs": [
        {
          "internalType": "uint256",
          "name": "",
          "type": "uint256"
        }
      ],
      "stateMutability": "view",
      "type": "function"
    },
    {
      "inputs": [
        {
          "internalType": "uint256",
          "name": "txIndex",
          "type": "uint256"
        }
      ],
      "name": "denyTransaction",
      "outputs": [],
      "stateMutability": "nonpayable",
      "type": "function"
    },
    {
      "inputs": [
        {
          "internalType": "uint256",
          "name": "txIndex",
          "type": "uint256"
        }
      ],
      "name": "executeTransaction",
      "outputs": [],
      "stateMutability": "payable",
      "type": "function"
    },
    {
      "inputs": [],
      "name": "getApprovalsRequired",
      "outputs": [
        {
          "internalType": "uint256",
          "name": "",
          "type": "uint256"
        }
      ],
      "stateMutability": "view",
      "type": "function"
    },
    {
      "inputs": [],
      "name": "getBalance",
      "outputs": [
        {
          "internalType": "uint256",
          "name": "",
          "type": "uint256"
        }
      ],
      "stateMutability": "view",
      "type": "function"
    },
    {
      "inputs": [],
      "name": "getDenialsRequired",
      "outputs": [
        {
          "internalType": "uint256",
          "name": "",
          "type": "uint256"
        }
      ],
      "stateMutability": "view",
      "type": "function"
    },
    {
      "inputs": [],
      "name": "getOwners",
      "outputs": [
        {
          "internalType": "address[]",
          "name": "",
          "type": "address[]"
        }
      ],
      "stateMutability": "view",
      "type": "function"
    },
    {
      "inputs": [],
      "name": "getPendingTransactions",
      "outputs": [
        {
          "internalType": "address[]",
          "name": "",
          "type": "address[]"
        },
        {
          "internalType": "uint256[]",
          "name": "",
          "type": "uint256[]"
        },
        {
          "internalType": "bytes[]",
          "name": "",
          "type": "bytes[]"
        },
        {
          "internalType": "bool[]",
          "name": "",
          "type": "bool[]"
        },
        {
          "internalType": "bool[]",
          "name": "",
          "type": "bool[]"
        }
      ],
      "stateMutability": "view",
      "type": "function"
    },
    {
      "inputs": [
        {
          "internalType": "uint256",
          "name": "txIndex",
          "type": "uint256"
        }
      ],
      "name": "getTransactionApprovalCount",
      "outputs": [
        {
          "internalType": "uint256",
          "name": "",
          "type": "uint256"
        }
      ],
      "stateMutability": "view",
      "type": "function"
    },
    {
      "inputs": [
        {
          "internalType": "uint256",
          "name": "txIndex",
          "type": "uint256"
        }
      ],
      "name": "getTransactionApprovals",
      "outputs": [
        {
          "internalType": "uint256",
          "name": "",
          "type": "uint256"
        }
      ],
      "stateMutability": "view",
      "type": "function"
    },
    {
      "inputs": [
        {
          "internalType": "uint256",
          "name": "txIndex",
          "type": "uint256"
        }
      ],
      "name": "getTransactionDenialCount",
      "outputs": [
        {
          "internalType": "uint256",
          "name": "",
          "type": "uint256"
        }
      ],
      "stateMutability": "view",
      "type": "function"
    },
    {
      "inputs": [
        {
          "internalType": "uint256",
          "name": "txIndex",
          "type": "uint256"
        }
      ],
      "name": "getTransactionDenials",
      "outputs": [
        {
          "internalType": "uint256",
          "name": "",
          "type": "uint256"
        }
      ],
      "stateMutability": "view",
      "type": "function"
    },
    {
      "inputs": [
        {
          "internalType": "address",
          "name": "",
          "type": "address"
        }
      ],
      "name": "isOriginalOwner",
      "outputs": [
        {
          "internalType": "bool",
          "name": "",
          "type": "bool"
        }
      ],
      "stateMutability": "view",
      "type": "function"
    },
    {
      "inputs": [
        {
          "internalType": "address",
          "name": "",
          "type": "address"
        }
      ],
      "name": "isOwner",
      "outputs": [
        {
          "internalType": "bool",
          "name": "",
          "type": "bool"
        }
      ],
      "stateMutability": "view",
      "type": "function"
    },
    {
      "inputs": [
        {
          "internalType": "uint256",
          "name": "",
          "type": "uint256"
        }
      ],
      "name": "originalOwners",
      "outputs": [
        {
          "internalType": "address",
          "name": "",
          "type": "address"
        }
      ],
      "stateMutability": "view",
      "type": "function"
    },
    {
      "inputs": [
        {
          "internalType": "uint256",
          "name": "",
          "type": "uint256"
        }
      ],
      "name": "owners",
      "outputs": [
        {
          "internalType": "address",
          "name": "",
          "type": "address"
        }
      ],
      "stateMutability": "view",
      "type": "function"
    },
    {
      "inputs": [
        {
          "internalType": "address",
          "name": "owner",
          "type": "address"
        }
      ],
      "name": "removeOwner",
      "outputs": [],
      "stateMutability": "nonpayable",
      "type": "function"
    },
    {
      "inputs": [
        {
          "internalType": "uint256",
          "name": "txIndex",
          "type": "uint256"
        }
      ],
      "name": "revokeTransaction",
      "outputs": [],
      "stateMutability": "nonpayable",
      "type": "function"
    },
    {
      "inputs": [
        {
          "internalType": "address",
          "name": "to",
          "type": "address"
        },
        {
          "internalType": "uint256",
          "name": "value",
          "type": "uint256"
        },
        {
          "internalType": "bytes",
          "name": "data",
          "type": "bytes"
        }
      ],
      "name": "submitTransaction",
      "outputs": [],
      "stateMutability": "nonpayable",
      "type": "function"
    },
    {
      "inputs": [
        {
          "internalType": "uint256",
          "name": "",
          "type": "uint256"
        }
      ],
      "name": "transactions",
      "outputs": [
        {
          "internalType": "address",
          "name": "to",
          "type": "address"
        },
        {
          "internalType": "uint256",
          "name": "value",
          "type": "uint256"
        },
        {
          "internalType": "bytes",
          "name": "data",
          "type": "bytes"
        },
        {
          "internalType": "bool",
          "name": "executed",
          "type": "bool"
        },
        {
          "internalType": "bool",
          "name": "denied",
          "type": "bool"
        }
      ],
      "stateMutability": "view",
      "type": "function"
    },
    {
      "stateMutability": "payable",
      "type": "receive"
    }
  ],
  "bytecode": "0x6080604052600160025560016003553480156200001b57600080fd5b50604051620042113803806200421183398181016040528101906200004191906200029a565b600073ffffffffffffffffffffffffffffffffffffffff168173ffffffffffffffffffffffffffffffffffffffff1603620000b3576040517f08c379a0000000000000000000000000000000000000000000000000000000008152600401620000aa906200032d565b60405180910390fd5b6001600460008373ffffffffffffffffffffffffffffffffffffffff1673ffffffffffffffffffffffffffffffffffffffff16815260200190815260200160002060006101000a81548160ff0219169083151502179055506000819080600181540180825580915050600190039060005260206000200160009091909190916101000a81548173ffffffffffffffffffffffffffffffffffffffff021916908373ffffffffffffffffffffffffffffffffffffffff1602179055506001600560008373ffffffffffffffffffffffffffffffffffffffff1673ffffffffffffffffffffffffffffffffffffffff16815260200190815260200160002060006101000a81548160ff0219169083151502179055506001819080600181540180825580915050600190039060005260206000200160009091909190916101000a81548173ffffffffffffffffffffffffffffffffffffffff021916908373ffffffffffffffffffffffffffffffffffffffff160217905550506200034f565b600080fd5b600073ffffffffffffffffffffffffffffffffffffffff82169050919050565b6000620002628262000235565b9050919050565b620002748162000255565b81146200028057600080fd5b50565b600081519050620002948162000269565b92915050565b600060208284031215620002b357620002b262000230565b5b6000620002c38482850162000283565b91505092915050565b600082825260208201905092915050565b7f6f776e657220697320746865207a65726f206164647265737300000000000000600082015250565b600062000315601983620002cc565b91506200032282620002dd565b602082019050919050565b60006020820190508181036000830152620003488162000306565b9050919050565b613eb2806200035f6000396000f3fe60806040526004361061019f5760003560e01c80637065cb48116100ec578063ab2850da1161008a578063de5d22d611610064578063de5d22d614610670578063ea1d59c9146106ad578063ee22610b146106d8578063f592ba45146106f4576101f4565b8063ab2850da146105db578063c642747414610618578063d11db83f14610641576101f4565b80638ad6afec116100c65780638ad6afec146105075780639ace38c214610532578063a0e67e2b14610573578063a4ee77f31461059e576101f4565b80637065cb481461048c57806371a1c5d8146104b5578063735631ad146104de576101f4565b80631ade0a3b116101595780632f54bf6e116101335780632f54bf6e146103aa57806332f0cba0146103e75780633c6f868c1461042457806346da8e731461044f576101f4565b80631ade0a3b1461031957806322e3d3d714610356578063242232d114610381576101f4565b806251acbc146101f9578063025e7c27146102225780630dd07bdb1461025f57806311402c761461029c57806312065fe0146102c5578063173825d9146102f0576101f4565b366101f4573373ffffffffffffffffffffffffffffffffffffffff167fe1fffcc4923d04b559f4d29a8bfc6cda04eb5b0d3c460751c2402c5c5cc9109c346040516101ea9190612940565b60405180910390a2005b600080fd5b34801561020557600080fd5b50610220600480360381019061021b919061299b565b610731565b005b34801561022e57600080fd5b506102496004803603810190610244919061299b565b61085b565b6040516102569190612a09565b60405180910390f35b34801561026b57600080fd5b5061028660048036038101906102819190612a50565b61089a565b6040516102939190612aab565b60405180910390f35b3480156102a857600080fd5b506102c360048036038101906102be919061299b565b6108c9565b005b3480156102d157600080fd5b506102da6109f3565b6040516102e79190612940565b60405180910390f35b3480156102fc57600080fd5b5061031760048036038101906103129190612ac6565b6109fb565b005b34801561032557600080fd5b50610340600480360381019061033b919061299b565b610e46565b60405161034d9190612a09565b60405180910390f35b34801561036257600080fd5b5061036b610e85565b6040516103789190612940565b60405180910390f35b34801561038d57600080fd5b506103a860048036038101906103a3919061299b565b610e8b565b005b3480156103b657600080fd5b506103d160048036038101906103cc9190612ac6565b6110ff565b6040516103de9190612aab565b60405180910390f35b3480156103f357600080fd5b5061040e6004803603810190610409919061299b565b61111f565b60405161041b9190612940565b60405180910390f35b34801561043057600080fd5b50610439611203565b6040516104469190612940565b60405180910390f35b34801561045b57600080fd5b5061047660048036038101906104719190612ac6565b61120d565b6040516104839190612aab565b60405180910390f35b34801561049857600080fd5b506104b360048036038101906104ae9190612ac6565b61122d565b005b3480156104c157600080fd5b506104dc60048036038101906104d7919061299b565b6114b6565b005b3480156104ea57600080fd5b506105056004803603810190610500919061299b565b61175f565b005b34801561051357600080fd5b5061051c611a06565b6040516105299190612940565b60405180910390f35b34801561053e57600080fd5b506105596004803603810190610554919061299b565b611a10565b60405161056a959493929190612b83565b60405180910390f35b34801561057f57600080fd5b50610588611b18565b6040516105959190612c9b565b60405180910390f35b3480156105aa57600080fd5b506105c560048036038101906105c0919061299b565b611ba6565b6040516105d29190612940565b60405180910390f35b3480156105e757600080fd5b5061060260048036038101906105fd9190612a50565b611c8a565b60405161060f9190612aab565b60405180910390f35b34801561062457600080fd5b5061063f600480360381019061063a9190612df2565b611cb9565b005b34801561064d57600080fd5b50610656611ed4565b6040516106679594939291906130e9565b60405180910390f35b34801561067c57600080fd5b506106976004803603810190610692919061299b565b612425565b6040516106a49190612940565b60405180910390f35b3480156106b957600080fd5b506106c2612509565b6040516106cf9190612940565b60405180910390f35b6106f260048036038101906106ed919061299b565b61250f565b005b34801561070057600080fd5b5061071b6004803603810190610716919061299b565b612843565b6040516107289190612940565b60405180910390f35b600560003373ffffffffffffffffffffffffffffffffffffffff1673ffffffffffffffffffffffffffffffffffffffff16815260200190815260200160002060009054906101000a900460ff166107bd576040517f08c379a00000000000000000000000000000000000000000000000000000000081526004016107b490613208565b60405180910390fd5b60006107c7611b18565b90506000821180156107da575080518211155b610819576040517f08c379a0000000000000000000000000000000000000000000000000000000008152600401610810906132c0565b60405180910390fd5b816002819055507f82d358668ec18939208535db7d6f67cf9b8b8a3f3f791a226ca20bed738e3de08260405161084f9190612940565b60405180910390a15050565b6000818154811061086b57600080fd5b906000526020600020016000915054906101000a900473ffffffffffffffffffffffffffffffffffffffff1681565b60086020528160005260406000206020528060005260406000206000915091509054906101000a900460ff1681565b600560003373ffffffffffffffffffffffffffffffffffffffff1673ffffffffffffffffffffffffffffffffffffffff16815260200190815260200160002060009054906101000a900460ff16610955576040517f08c379a000000000000000000000000000000000000000000000000000000000815260040161094c90613352565b60405180910390fd5b600061095f611b18565b9050600082118015610972575080518211155b6109b1576040517f08c379a00000000000000000000000000000000000000000000000000000000081526004016109a89061340a565b60405180910390fd5b816003819055507fb8ee0b0ffdcaa3f1628d7fc815008e4fd254f2914dc687df6a73206af29d06c2826040516109e79190612940565b60405180910390a15050565b600047905090565b600560008273ffffffffffffffffffffffffffffffffffffffff1673ffffffffffffffffffffffffffffffffffffffff16815260200190815260200160002060009054906101000a900460ff1615610a88576040517f08c379a0000000000000000000000000000000000000000000000000000000008152600401610a7f9061349c565b60405180910390fd5b600460003373ffffffffffffffffffffffffffffffffffffffff1673ffffffffffffffffffffffffffffffffffffffff16815260200190815260200160002060009054906101000a900460ff16610b14576040517f08c379a0000000000000000000000000000000000000000000000000000000008152600401610b0b90613508565b60405180910390fd5b600073ffffffffffffffffffffffffffffffffffffffff168173ffffffffffffffffffffffffffffffffffffffff1603610b83576040517f08c379a0000000000000000000000000000000000000000000000000000000008152600401610b7a90613574565b60405180910390fd5b600460008273ffffffffffffffffffffffffffffffffffffffff1673ffffffffffffffffffffffffffffffffffffffff16815260200190815260200160002060009054906101000a900460ff16610c0f576040517f08c379a0000000000000000000000000000000000000000000000000000000008152600401610c06906135e0565b60405180910390fd5b6000600460008373ffffffffffffffffffffffffffffffffffffffff1673ffffffffffffffffffffffffffffffffffffffff16815260200190815260200160002060006101000a81548160ff02191690831515021790555060005b6001600080549050610c7c919061362f565b811015610db8578173ffffffffffffffffffffffffffffffffffffffff1660008281548110610cae57610cad613663565b5b9060005260206000200160009054906101000a900473ffffffffffffffffffffffffffffffffffffffff1673ffffffffffffffffffffffffffffffffffffffff1603610da55760006001600080549050610d08919061362f565b81548110610d1957610d18613663565b5b9060005260206000200160009054906101000a900473ffffffffffffffffffffffffffffffffffffffff1660008281548110610d5857610d57613663565b5b9060005260206000200160006101000a81548173ffffffffffffffffffffffffffffffffffffffff021916908373ffffffffffffffffffffffffffffffffffffffff160217905550610db8565b8080610db090613692565b915050610c6a565b506000805480610dcb57610dca6136da565b5b6001900381819060005260206000200160006101000a81549073ffffffffffffffffffffffffffffffffffffffff021916905590558073ffffffffffffffffffffffffffffffffffffffff167f8001553a916ef2f495d26a907cc54d96ed840d7bda71e73194bf5a9df7a76b9060405160405180910390a250565b60018181548110610e5657600080fd5b906000526020600020016000915054906101000a900473ffffffffffffffffffffffffffffffffffffffff1681565b60035481565b600460003373ffffffffffffffffffffffffffffffffffffffff1673ffffffffffffffffffffffffffffffffffffffff16815260200190815260200160002060009054906101000a900460ff16610f17576040517f08c379a0000000000000000000000000000000000000000000000000000000008152600401610f0e90613508565b60405180910390fd5b6007600082815260200190815260200160002060003373ffffffffffffffffffffffffffffffffffffffff1673ffffffffffffffffffffffffffffffffffffffff16815260200190815260200160002060009054906101000a900460ff1615610fb5576040517f08c379a0000000000000000000000000000000000000000000000000000000008152600401610fac9061377b565b60405180910390fd5b600115156008600083815260200190815260200160002060003373ffffffffffffffffffffffffffffffffffffffff1673ffffffffffffffffffffffffffffffffffffffff16815260200190815260200160002060009054906101000a900460ff16151503611028576110278161175f565b5b60016007600083815260200190815260200160002060003373ffffffffffffffffffffffffffffffffffffffff1673ffffffffffffffffffffffffffffffffffffffff16815260200190815260200160002060006101000a81548160ff021916908315150217905550600061109c82611ba6565b9050600060025490508082106110b6576110b58361250f565b5b823373ffffffffffffffffffffffffffffffffffffffff167ffa624aadd8a0eae4ee975eae5cf13c9803b361b7fa2d832427db6207c088219360405160405180910390a3505050565b60046020528060005260406000206000915054906101000a900460ff1681565b6000806000905060005b6000805490508110156111f95760076000858152602001908152602001600020600080838154811061115e5761115d613663565b5b9060005260206000200160009054906101000a900473ffffffffffffffffffffffffffffffffffffffff1673ffffffffffffffffffffffffffffffffffffffff1673ffffffffffffffffffffffffffffffffffffffff16815260200190815260200160002060009054906101000a900460ff16156111e6576001826111e3919061379b565b91505b80806111f190613692565b915050611129565b5080915050919050565b6000600254905090565b60056020528060005260406000206000915054906101000a900460ff1681565b600460003373ffffffffffffffffffffffffffffffffffffffff1673ffffffffffffffffffffffffffffffffffffffff16815260200190815260200160002060009054906101000a900460ff166112b9576040517f08c379a00000000000000000000000000000000000000000000000000000000081526004016112b090613508565b60405180910390fd5b600073ffffffffffffffffffffffffffffffffffffffff168173ffffffffffffffffffffffffffffffffffffffff1603611328576040517f08c379a000000000000000000000000000000000000000000000000000000000815260040161131f90613574565b60405180910390fd5b600460008273ffffffffffffffffffffffffffffffffffffffff1673ffffffffffffffffffffffffffffffffffffffff16815260200190815260200160002060009054906101000a900460ff16156113b5576040517f08c379a00000000000000000000000000000000000000000000000000000000081526004016113ac9061381b565b60405180910390fd5b6001600460008373ffffffffffffffffffffffffffffffffffffffff1673ffffffffffffffffffffffffffffffffffffffff16815260200190815260200160002060006101000a81548160ff0219169083151502179055506000819080600181540180825580915050600190039060005260206000200160009091909190916101000a81548173ffffffffffffffffffffffffffffffffffffffff021916908373ffffffffffffffffffffffffffffffffffffffff1602179055508073ffffffffffffffffffffffffffffffffffffffff167ff39e6e1eb0edcf53c221607b54b00cd28f3196fed0a24994dc308b8f611b682d60405160405180910390a250565b600460003373ffffffffffffffffffffffffffffffffffffffff1673ffffffffffffffffffffffffffffffffffffffff16815260200190815260200160002060009054906101000a900460ff16611542576040517f08c379a000000000000000000000000000000000000000000000000000000000815260040161153990613508565b60405180910390fd5b6008600082815260200190815260200160002060003373ffffffffffffffffffffffffffffffffffffffff1673ffffffffffffffffffffffffffffffffffffffff16815260200190815260200160002060009054906101000a900460ff16156115e0576040517f08c379a00000000000000000000000000000000000000000000000000000000081526004016115d7906138ad565b60405180910390fd5b600115156007600083815260200190815260200160002060003373ffffffffffffffffffffffffffffffffffffffff1673ffffffffffffffffffffffffffffffffffffffff16815260200190815260200160002060009054906101000a900460ff16151503611653576116528161175f565b5b60016008600083815260200190815260200160002060003373ffffffffffffffffffffffffffffffffffffffff1673ffffffffffffffffffffffffffffffffffffffff16815260200190815260200160002060006101000a81548160ff02191690831515021790555060006116c782612843565b905060006003549050808210611716576001600684815481106116ed576116ec613663565b5b906000526020600020906004020160030160016101000a81548160ff0219169083151502179055505b823373ffffffffffffffffffffffffffffffffffffffff167fb22956aab7df08f483a6c7570110f8f745af34d6e5495cd82e04d48d79fff99160405160405180910390a3505050565b600460003373ffffffffffffffffffffffffffffffffffffffff1673ffffffffffffffffffffffffffffffffffffffff16815260200190815260200160002060009054906101000a900460ff166117eb576040517f08c379a00000000000000000000000000000000000000000000000000000000081526004016117e290613508565b60405180910390fd5b6007600082815260200190815260200160002060003373ffffffffffffffffffffffffffffffffffffffff1673ffffffffffffffffffffffffffffffffffffffff16815260200190815260200160002060009054906101000a900460ff16806118ae57506008600082815260200190815260200160002060003373ffffffffffffffffffffffffffffffffffffffff1673ffffffffffffffffffffffffffffffffffffffff16815260200190815260200160002060009054906101000a900460ff165b6118ed576040517f08c379a00000000000000000000000000000000000000000000000000000000081526004016118e49061393f565b60405180910390fd5b60006007600083815260200190815260200160002060003373ffffffffffffffffffffffffffffffffffffffff1673ffffffffffffffffffffffffffffffffffffffff16815260200190815260200160002060006101000a81548160ff02191690831515021790555060006008600083815260200190815260200160002060003373ffffffffffffffffffffffffffffffffffffffff1673ffffffffffffffffffffffffffffffffffffffff16815260200190815260200160002060006101000a81548160ff021916908315150217905550803373ffffffffffffffffffffffffffffffffffffffff167f1ad870073a851011d852bccd8634c29c7c0ac2265ba96d2bab01285001a465a860405160405180910390a350565b6000600354905090565b60068181548110611a2057600080fd5b90600052602060002090600402016000915090508060000160009054906101000a900473ffffffffffffffffffffffffffffffffffffffff1690806001015490806002018054611a6f9061398e565b80601f0160208091040260200160405190810160405280929190818152602001828054611a9b9061398e565b8015611ae85780601f10611abd57610100808354040283529160200191611ae8565b820191906000526020600020905b815481529060010190602001808311611acb57829003601f168201915b5050505050908060030160009054906101000a900460ff16908060030160019054906101000a900460ff16905085565b60606000805480602002602001604051908101604052809291908181526020018280548015611b9c57602002820191906000526020600020905b8160009054906101000a900473ffffffffffffffffffffffffffffffffffffffff1673ffffffffffffffffffffffffffffffffffffffff1681526020019060010190808311611b52575b5050505050905090565b6000806000905060005b600080549050811015611c8057600760008581526020019081526020016000206000808381548110611be557611be4613663565b5b9060005260206000200160009054906101000a900473ffffffffffffffffffffffffffffffffffffffff1673ffffffffffffffffffffffffffffffffffffffff1673ffffffffffffffffffffffffffffffffffffffff16815260200190815260200160002060009054906101000a900460ff1615611c6d57600182611c6a919061379b565b91505b8080611c7890613692565b915050611bb0565b5080915050919050565b60076020528160005260406000206020528060005260406000206000915091509054906101000a900460ff1681565b600460003373ffffffffffffffffffffffffffffffffffffffff1673ffffffffffffffffffffffffffffffffffffffff16815260200190815260200160002060009054906101000a900460ff16611d45576040517f08c379a0000000000000000000000000000000000000000000000000000000008152600401611d3c90613508565b60405180910390fd5b6000600680549050905060066040518060a001604052808673ffffffffffffffffffffffffffffffffffffffff16815260200185815260200184815260200160001515815260200160001515815250908060018154018082558091505060019003906000526020600020906004020160009091909190915060008201518160000160006101000a81548173ffffffffffffffffffffffffffffffffffffffff021916908373ffffffffffffffffffffffffffffffffffffffff160217905550602082015181600101556040820151816002019081611e239190613b6b565b5060608201518160030160006101000a81548160ff02191690831515021790555060808201518160030160016101000a81548160ff02191690831515021790555050508373ffffffffffffffffffffffffffffffffffffffff16813373ffffffffffffffffffffffffffffffffffffffff167fd5a05bf70715ad82a09a756320284a1b54c9ff74cd0f8cce6219e79b563fe59d8686604051611ec6929190613c3d565b60405180910390a450505050565b60608060608060606000805b600680549050811015611f845760068181548110611f0157611f00613663565b5b906000526020600020906004020160030160009054906101000a900460ff16158015611f5d575060068181548110611f3c57611f3b613663565b5b906000526020600020906004020160030160019054906101000a900460ff16155b15611f71578180611f6d90613692565b9250505b8080611f7c90613692565b915050611ee0565b5060008167ffffffffffffffff811115611fa157611fa0612cc7565b5b604051908082528060200260200182016040528015611fcf5781602001602082028036833780820191505090505b50905060008267ffffffffffffffff811115611fee57611fed612cc7565b5b60405190808252806020026020018201604052801561201c5781602001602082028036833780820191505090505b50905060008367ffffffffffffffff81111561203b5761203a612cc7565b5b60405190808252806020026020018201604052801561206e57816020015b60608152602001906001900390816120595790505b50905060008467ffffffffffffffff81111561208d5761208c612cc7565b5b6040519080825280602002602001820160405280156120bb5781602001602082028036833780820191505090505b50905060008567ffffffffffffffff8111156120da576120d9612cc7565b5b6040519080825280602002602001820160405280156121085781602001602082028036833780820191505090505b5090506000805b60068054905081101561240757600681815481106121305761212f613663565b5b906000526020600020906004020160030160009054906101000a900460ff1615801561218c57506006818154811061216b5761216a613663565b5b906000526020600020906004020160030160019054906101000a900460ff16155b156123f457600681815481106121a5576121a4613663565b5b906000526020600020906004020160000160009054906101000a900473ffffffffffffffffffffffffffffffffffffffff168783815181106121ea576121e9613663565b5b602002602001019073ffffffffffffffffffffffffffffffffffffffff16908173ffffffffffffffffffffffffffffffffffffffff16815250506006818154811061223857612237613663565b5b90600052602060002090600402016001015486838151811061225d5761225c613663565b5b6020026020010181815250506006818154811061227d5761227c613663565b5b906000526020600020906004020160020180546122999061398e565b80601f01602080910402602001604051908101604052809291908181526020018280546122c59061398e565b80156123125780601f106122e757610100808354040283529160200191612312565b820191906000526020600020905b8154815290600101906020018083116122f557829003601f168201915b505050505085838151811061232a57612329613663565b5b60200260200101819052506006818154811061234957612348613663565b5b906000526020600020906004020160030160009054906101000a900460ff1684838151811061237b5761237a613663565b5b602002602001019015159081151581525050600681815481106123a1576123a0613663565b5b906000526020600020906004020160030160019054906101000a900460ff168383815181106123d3576123d2613663565b5b60200260200101901515908115158152505081806123f090613692565b9250505b80806123ff90613692565b91505061210f565b5085858585859b509b509b509b509b50505050505050509091929394565b6000806000905060005b6000805490508110156124ff5760086000858152602001908152602001600020600080838154811061246457612463613663565b5b9060005260206000200160009054906101000a900473ffffffffffffffffffffffffffffffffffffffff1673ffffffffffffffffffffffffffffffffffffffff1673ffffffffffffffffffffffffffffffffffffffff16815260200190815260200160002060009054906101000a900460ff16156124ec576001826124e9919061379b565b91505b80806124f790613692565b91505061242f565b5080915050919050565b60025481565b600460003373ffffffffffffffffffffffffffffffffffffffff1673ffffffffffffffffffffffffffffffffffffffff16815260200190815260200160002060009054906101000a900460ff1661259b576040517f08c379a000000000000000000000000000000000000000000000000000000000815260040161259290613508565b60405180910390fd5b600681815481106125af576125ae613663565b5b906000526020600020906004020160030160009054906101000a900460ff161561260e576040517f08c379a000000000000000000000000000000000000000000000000000000000815260040161260590613cdf565b60405180910390fd5b6006818154811061262257612621613663565b5b906000526020600020906004020160030160019054906101000a900460ff1615612681576040517f08c379a000000000000000000000000000000000000000000000000000000000815260040161267890613d4b565b60405180910390fd5b60016006828154811061269757612696613663565b5b906000526020600020906004020160030160006101000a81548160ff0219169083151502179055506000600682815481106126d5576126d4613663565b5b906000526020600020906004020160000160009054906101000a900473ffffffffffffffffffffffffffffffffffffffff1673ffffffffffffffffffffffffffffffffffffffff166006838154811061273157612730613663565b5b9060005260206000209060040201600101546006848154811061275757612756613663565b5b90600052602060002090600402016002016040516127759190613df9565b60006040518083038185875af1925050503d80600081146127b2576040519150601f19603f3d011682016040523d82523d6000602084013e6127b7565b606091505b50509050806127fb576040517f08c379a00000000000000000000000000000000000000000000000000000000081526004016127f290613e5c565b60405180910390fd5b813373ffffffffffffffffffffffffffffffffffffffff167f5445f318f4f5fcfb66592e68e0cc5822aa15664039bd5f0ffde24c5a8142b1ac60405160405180910390a35050565b6000806000905060005b60008054905081101561291d5760086000858152602001908152602001600020600080838154811061288257612881613663565b5b9060005260206000200160009054906101000a900473ffffffffffffffffffffffffffffffffffffffff1673ffffffffffffffffffffffffffffffffffffffff1673ffffffffffffffffffffffffffffffffffffffff16815260200190815260200160002060009054906101000a900460ff161561290a57600182612907919061379b565b91505b808061291590613692565b91505061284d565b5080915050919050565b6000819050919050565b61293a81612927565b82525050565b60006020820190506129556000830184612931565b92915050565b6000604051905090565b600080fd5b600080fd5b61297881612927565b811461298357600080fd5b50565b6000813590506129958161296f565b92915050565b6000602082840312156129b1576129b0612965565b5b60006129bf84828501612986565b91505092915050565b600073ffffffffffffffffffffffffffffffffffffffff82169050919050565b60006129f3826129c8565b9050919050565b612a03816129e8565b82525050565b6000602082019050612a1e60008301846129fa565b92915050565b612a2d816129e8565b8114612a3857600080fd5b50565b600081359050612a4a81612a24565b92915050565b60008060408385031215612a6757612a66612965565b5b6000612a7585828601612986565b9250506020612a8685828601612a3b565b9150509250929050565b60008115159050919050565b612aa581612a90565b82525050565b6000602082019050612ac06000830184612a9c565b92915050565b600060208284031215612adc57612adb612965565b5b6000612aea84828501612a3b565b91505092915050565b600081519050919050565b600082825260208201905092915050565b60005b83811015612b2d578082015181840152602081019050612b12565b60008484015250505050565b6000601f19601f8301169050919050565b6000612b5582612af3565b612b5f8185612afe565b9350612b6f818560208601612b0f565b612b7881612b39565b840191505092915050565b600060a082019050612b9860008301886129fa565b612ba56020830187612931565b8181036040830152612bb78186612b4a565b9050612bc66060830185612a9c565b612bd36080830184612a9c565b9695505050505050565b600081519050919050565b600082825260208201905092915050565b6000819050602082019050919050565b612c12816129e8565b82525050565b6000612c248383612c09565b60208301905092915050565b6000602082019050919050565b6000612c4882612bdd565b612c528185612be8565b9350612c5d83612bf9565b8060005b83811015612c8e578151612c758882612c18565b9750612c8083612c30565b925050600181019050612c61565b5085935050505092915050565b60006020820190508181036000830152612cb58184612c3d565b905092915050565b600080fd5b600080fd5b7f4e487b7100000000000000000000000000000000000000000000000000000000600052604160045260246000fd5b612cff82612b39565b810181811067ffffffffffffffff82111715612d1e57612d1d612cc7565b5b80604052505050565b6000612d3161295b565b9050612d3d8282612cf6565b919050565b600067ffffffffffffffff821115612d5d57612d5c612cc7565b5b612d6682612b39565b9050602081019050919050565b82818337600083830152505050565b6000612d95612d9084612d42565b612d27565b905082815260208101848484011115612db157612db0612cc2565b5b612dbc848285612d73565b509392505050565b600082601f830112612dd957612dd8612cbd565b5b8135612de9848260208601612d82565b91505092915050565b600080600060608486031215612e0b57612e0a612965565b5b6000612e1986828701612a3b565b9350506020612e2a86828701612986565b925050604084013567ffffffffffffffff811115612e4b57612e4a61296a565b5b612e5786828701612dc4565b9150509250925092565b600081519050919050565b600082825260208201905092915050565b6000819050602082019050919050565b612e9681612927565b82525050565b6000612ea88383612e8d565b60208301905092915050565b6000602082019050919050565b6000612ecc82612e61565b612ed68185612e6c565b9350612ee183612e7d565b8060005b83811015612f12578151612ef98882612e9c565b9750612f0483612eb4565b925050600181019050612ee5565b5085935050505092915050565b600081519050919050565b600082825260208201905092915050565b6000819050602082019050919050565b600082825260208201905092915050565b6000612f6782612af3565b612f718185612f4b565b9350612f81818560208601612b0f565b612f8a81612b39565b840191505092915050565b6000612fa18383612f5c565b905092915050565b6000602082019050919050565b6000612fc182612f1f565b612fcb8185612f2a565b935083602082028501612fdd85612f3b565b8060005b858110156130195784840389528151612ffa8582612f95565b945061300583612fa9565b925060208a01995050600181019050612fe1565b50829750879550505050505092915050565b600081519050919050565b600082825260208201905092915050565b6000819050602082019050919050565b61306081612a90565b82525050565b60006130728383613057565b60208301905092915050565b6000602082019050919050565b60006130968261302b565b6130a08185613036565b93506130ab83613047565b8060005b838110156130dc5781516130c38882613066565b97506130ce8361307e565b9250506001810190506130af565b5085935050505092915050565b600060a08201905081810360008301526131038188612c3d565b905081810360208301526131178187612ec1565b9050818103604083015261312b8186612fb6565b9050818103606083015261313f818561308b565b90508181036080830152613153818461308b565b90509695505050505050565b600082825260208201905092915050565b7f55736572206973206e6f7420616e206f726967696e616c206f776e65722c207360008201527f6f2063616e6e6f74206368616e676520617070726f76616c732072657175697260208201527f6564000000000000000000000000000000000000000000000000000000000000604082015250565b60006131f260428361315f565b91506131fd82613170565b606082019050919050565b60006020820190508181036000830152613221816131e5565b9050919050565b7f417070726f76616c73207265717569726564206d75737420626520677265617460008201527f6572207468616e203020616e64206c657373207468616e206f7220657175616c60208201527f20746f20746865206e756d626572206f66206f776e6572730000000000000000604082015250565b60006132aa60588361315f565b91506132b582613228565b606082019050919050565b600060208201905081810360008301526132d98161329d565b9050919050565b7f55736572206973206e6f7420616e206f726967696e616c206f776e65722c207360008201527f6f2063616e6e6f74206368616e67652064656e69616c73207265717569726564602082015250565b600061333c60408361315f565b9150613347826132e0565b604082019050919050565b6000602082019050818103600083015261336b8161332f565b9050919050565b7f44656e69616c73207265717569726564206d757374206265206772656174657260008201527f207468616e203020616e64206c657373207468616e206f7220657175616c207460208201527f6f20746865206e756d626572206f66206f776e65727300000000000000000000604082015250565b60006133f460568361315f565b91506133ff82613372565b606082019050919050565b60006020820190508181036000830152613423816133e7565b9050919050565b7f5573657220697320616e206f726967696e616c206f776e657220736f2063616e60008201527f6e6f742062652072656d6f766564000000000000000000000000000000000000602082015250565b6000613486602e8361315f565b91506134918261342a565b604082019050919050565b600060208201905081810360008301526134b581613479565b9050919050565b7f55736572206973206e6f7420616e206f776e6572000000000000000000000000600082015250565b60006134f260148361315f565b91506134fd826134bc565b602082019050919050565b60006020820190508181036000830152613521816134e5565b9050919050565b7f6f776e657220697320746865207a65726f206164647265737300000000000000600082015250565b600061355e60198361315f565b915061356982613528565b602082019050919050565b6000602082019050818103600083015261358d81613551565b9050919050565b7f6f776e6572206973206e6f7420616e206f776e65720000000000000000000000600082015250565b60006135ca60158361315f565b91506135d582613594565b602082019050919050565b600060208201905081810360008301526135f9816135bd565b9050919050565b7f4e487b7100000000000000000000000000000000000000000000000000000000600052601160045260246000fd5b600061363a82612927565b915061364583612927565b925082820390508181111561365d5761365c613600565b5b92915050565b7f4e487b7100000000000000000000000000000000000000000000000000000000600052603260045260246000fd5b600061369d82612927565b91507fffffffffffffffffffffffffffffffffffffffffffffffffffffffffffffffff82036136cf576136ce613600565b5b600182019050919050565b7f4e487b7100000000000000000000000000000000000000000000000000000000600052603160045260246000fd5b7f557365722068617320616c726561647920617070726f7665642074686973207460008201527f72616e73616374696f6e00000000000000000000000000000000000000000000602082015250565b6000613765602a8361315f565b915061377082613709565b604082019050919050565b6000602082019050818103600083015261379481613758565b9050919050565b60006137a682612927565b91506137b183612927565b92508282019050808211156137c9576137c8613600565b5b92915050565b7f6f776e657220616c726561647920616464656400000000000000000000000000600082015250565b600061380560138361315f565b9150613810826137cf565b602082019050919050565b60006020820190508181036000830152613834816137f8565b9050919050565b7f557365722068617320616c72656164792064656e69656420746869732074726160008201527f6e73616374696f6e000000000000000000000000000000000000000000000000602082015250565b600061389760288361315f565b91506138a28261383b565b604082019050919050565b600060208201905081810360008301526138c68161388a565b9050919050565b7f5573657220686173206e6f7420617070726f766564206f722064656e6965642060008201527f74686973207472616e73616374696f6e00000000000000000000000000000000602082015250565b600061392960308361315f565b9150613934826138cd565b604082019050919050565b600060208201905081810360008301526139588161391c565b9050919050565b7f4e487b7100000000000000000000000000000000000000000000000000000000600052602260045260246000fd5b600060028204905060018216806139a657607f821691505b6020821081036139b9576139b861395f565b5b50919050565b60008190508160005260206000209050919050565b60006020601f8301049050919050565b600082821b905092915050565b600060088302613a217fffffffffffffffffffffffffffffffffffffffffffffffffffffffffffffffff826139e4565b613a2b86836139e4565b95508019841693508086168417925050509392505050565b6000819050919050565b6000613a68613a63613a5e84612927565b613a43565b612927565b9050919050565b6000819050919050565b613a8283613a4d565b613a96613a8e82613a6f565b8484546139f1565b825550505050565b600090565b613aab613a9e565b613ab6818484613a79565b505050565b5b81811015613ada57613acf600082613aa3565b600181019050613abc565b5050565b601f821115613b1f57613af0816139bf565b613af9846139d4565b81016020851015613b08578190505b613b1c613b14856139d4565b830182613abb565b50505b505050565b600082821c905092915050565b6000613b4260001984600802613b24565b1980831691505092915050565b6000613b5b8383613b31565b9150826002028217905092915050565b613b7482612af3565b67ffffffffffffffff811115613b8d57613b8c612cc7565b5b613b97825461398e565b613ba2828285613ade565b600060209050601f831160018114613bd55760008415613bc3578287015190505b613bcd8582613b4f565b865550613c35565b601f198416613be3866139bf565b60005b82811015613c0b57848901518255600182019150602085019450602081019050613be6565b86831015613c285784890151613c24601f891682613b31565b8355505b6001600288020188555050505b505050505050565b6000604082019050613c526000830185612931565b8181036020830152613c648184612b4a565b90509392505050565b7f5472616e73616374696f6e2068617320616c7265616479206265656e2065786560008201527f6375746564000000000000000000000000000000000000000000000000000000602082015250565b6000613cc960258361315f565b9150613cd482613c6d565b604082019050919050565b60006020820190508181036000830152613cf881613cbc565b9050919050565b7f5472616e73616374696f6e20686173206265656e2064656e6965640000000000600082015250565b6000613d35601b8361315f565b9150613d4082613cff565b602082019050919050565b60006020820190508181036000830152613d6481613d28565b9050919050565b600081905092915050565b60008154613d838161398e565b613d8d8186613d6b565b94506001821660008114613da85760018114613dbd57613df0565b60ff1983168652811515820286019350613df0565b613dc6856139bf565b60005b83811015613de857815481890152600182019150602081019050613dc9565b838801955050505b50505092915050565b6000613e058284613d76565b915081905092915050565b7f5472616e73616374696f6e206661696c65640000000000000000000000000000600082015250565b6000613e4660128361315f565b9150613e5182613e10565b602082019050919050565b60006020820190508181036000830152613e7581613e39565b905091905056fea2646970667358221220035e7eaba89e14aa72df3e49fbd3c4b151522cec4c4a8f578be5f8bef3b902a464736f6c63430008110033",
  "linkReferences": {},
  "deployedLinkReferences": {}
}