{
  "_format": "hh-sol-artifact-1",
  "contractName": "FrontierMultisig",
  "sourceName": "contracts/FrontierMultisig.sol",
  "abi": [
    {
      "inputs": [
        {
          "internalType": "address",
          "name": "owner",
          "type": "address"
        }
      ],
      "stateMutability": "nonpayable",
      "type": "constructor"
    },
    {
      "anonymous": false,
      "inputs": [
        {
          "indexed": false,
          "internalType": "uint256",
          "name": "required",
          "type": "uint256"
        }
      ],
      "name": "ApprovalRequirementChange",
      "type": "event"
    },
    {
      "anonymous": false,
      "inputs": [
        {
          "indexed": true,
          "internalType": "address",
          "name": "owner",
          "type": "address"
        },
        {
          "indexed": true,
          "internalType": "uint256",
          "name": "txIndex",
          "type": "uint256"
        }
      ],
      "name": "ApproveTransaction",
      "type": "event"
    },
    {
      "anonymous": false,
      "inputs": [
        {
          "indexed": false,
          "internalType": "uint256",
          "name": "required",
          "type": "uint256"
        }
      ],
      "name": "DenyRequirementChange",
      "type": "event"
    },
    {
      "anonymous": false,
      "inputs": [
        {
          "indexed": true,
          "internalType": "address",
          "name": "owner",
          "type": "address"
        },
        {
          "indexed": true,
          "internalType": "uint256",
          "name": "txIndex",
          "type": "uint256"
        }
      ],
      "name": "DenyTransaction",
      "type": "event"
    },
    {
      "anonymous": false,
      "inputs": [
        {
          "indexed": true,
          "internalType": "address",
          "name": "sender",
          "type": "address"
        },
        {
          "indexed": false,
          "internalType": "uint256",
          "name": "value",
          "type": "uint256"
        }
      ],
      "name": "Deposit",
      "type": "event"
    },
    {
      "anonymous": false,
      "inputs": [
        {
          "indexed": true,
          "internalType": "address",
          "name": "owner",
          "type": "address"
        },
        {
          "indexed": true,
          "internalType": "uint256",
          "name": "txIndex",
          "type": "uint256"
        }
      ],
      "name": "ExecuteTransaction",
      "type": "event"
    },
    {
      "anonymous": false,
      "inputs": [
        {
          "indexed": true,
          "internalType": "address",
          "name": "owner",
          "type": "address"
        }
      ],
      "name": "OwnerAddition",
      "type": "event"
    },
    {
      "anonymous": false,
      "inputs": [
        {
          "indexed": true,
          "internalType": "address",
          "name": "owner",
          "type": "address"
        }
      ],
      "name": "OwnerRemoval",
      "type": "event"
    },
    {
      "anonymous": false,
      "inputs": [
        {
          "indexed": true,
          "internalType": "address",
          "name": "owner",
          "type": "address"
        },
        {
          "indexed": true,
          "internalType": "uint256",
          "name": "txIndex",
          "type": "uint256"
        }
      ],
      "name": "RevokeTransaction",
      "type": "event"
    },
    {
      "anonymous": false,
      "inputs": [
        {
          "indexed": true,
          "internalType": "address",
          "name": "owner",
          "type": "address"
        },
        {
          "indexed": true,
          "internalType": "uint256",
          "name": "txIndex",
          "type": "uint256"
        },
        {
          "indexed": true,
          "internalType": "address",
          "name": "to",
          "type": "address"
        },
        {
          "indexed": false,
          "internalType": "uint256",
          "name": "value",
          "type": "uint256"
        },
        {
          "indexed": false,
          "internalType": "bytes",
          "name": "data",
          "type": "bytes"
        }
      ],
      "name": "SubmitTransaction",
      "type": "event"
    },
    {
      "inputs": [
        {
          "internalType": "address",
          "name": "owner",
          "type": "address"
        }
      ],
      "name": "addOwner",
      "outputs": [],
      "stateMutability": "nonpayable",
      "type": "function"
    },
    {
      "inputs": [
        {
          "internalType": "uint256",
          "name": "",
          "type": "uint256"
        },
        {
          "internalType": "address",
          "name": "",
          "type": "address"
        }
      ],
      "name": "approvals",
      "outputs": [
        {
          "internalType": "bool",
          "name": "",
          "type": "bool"
        }
      ],
      "stateMutability": "view",
      "type": "function"
    },
    {
      "inputs": [],
      "name": "approvalsRequired",
      "outputs": [
        {
          "internalType": "uint256",
          "name": "",
          "type": "uint256"
        }
      ],
      "stateMutability": "view",
      "type": "function"
    },
    {
      "inputs": [
        {
          "internalType": "uint256",
          "name": "txIndex",
          "type": "uint256"
        }
      ],
      "name": "approveTransaction",
      "outputs": [],
      "stateMutability": "nonpayable",
      "type": "function"
    },
    {
      "inputs": [
        {
          "internalType": "uint256",
          "name": "_approvalsRequired",
          "type": "uint256"
        }
      ],
      "name": "changeApprovalsRequired",
      "outputs": [],
      "stateMutability": "nonpayable",
      "type": "function"
    },
    {
      "inputs": [
        {
          "internalType": "uint256",
          "name": "_denialsRequired",
          "type": "uint256"
        }
      ],
      "name": "changeDenialsRequired",
      "outputs": [],
      "stateMutability": "nonpayable",
      "type": "function"
    },
    {
      "inputs": [
        {
          "internalType": "uint256",
          "name": "",
          "type": "uint256"
        },
        {
          "internalType": "address",
          "name": "",
          "type": "address"
        }
      ],
      "name": "denials",
      "outputs": [
        {
          "internalType": "bool",
          "name": "",
          "type": "bool"
        }
      ],
      "stateMutability": "view",
      "type": "function"
    },
    {
      "inputs": [],
      "name": "denialsRequired",
      "outputs": [
        {
          "internalType": "uint256",
          "name": "",
          "type": "uint256"
        }
      ],
      "stateMutability": "view",
      "type": "function"
    },
    {
      "inputs": [
        {
          "internalType": "uint256",
          "name": "txIndex",
          "type": "uint256"
        }
      ],
      "name": "denyTransaction",
      "outputs": [],
      "stateMutability": "nonpayable",
      "type": "function"
    },
    {
      "inputs": [
        {
          "internalType": "uint256",
          "name": "txIndex",
          "type": "uint256"
        }
      ],
      "name": "executeTransaction",
      "outputs": [],
      "stateMutability": "payable",
      "type": "function"
    },
    {
      "inputs": [],
      "name": "getApprovalsRequired",
      "outputs": [
        {
          "internalType": "uint256",
          "name": "",
          "type": "uint256"
        }
      ],
      "stateMutability": "view",
      "type": "function"
    },
    {
      "inputs": [],
      "name": "getBalance",
      "outputs": [
        {
          "internalType": "uint256",
          "name": "",
          "type": "uint256"
        }
      ],
      "stateMutability": "view",
      "type": "function"
    },
    {
      "inputs": [],
      "name": "getDenialsRequired",
      "outputs": [
        {
          "internalType": "uint256",
          "name": "",
          "type": "uint256"
        }
      ],
      "stateMutability": "view",
      "type": "function"
    },
    {
      "inputs": [],
      "name": "getOwners",
      "outputs": [
        {
          "internalType": "address[]",
          "name": "",
          "type": "address[]"
        }
      ],
      "stateMutability": "view",
      "type": "function"
    },
    {
      "inputs": [
        {
          "internalType": "uint256",
          "name": "txIndex",
          "type": "uint256"
        }
      ],
      "name": "getTransactionApprovalCount",
      "outputs": [
        {
          "internalType": "uint256",
          "name": "",
          "type": "uint256"
        }
      ],
      "stateMutability": "view",
      "type": "function"
    },
    {
      "inputs": [
        {
          "internalType": "uint256",
          "name": "txIndex",
          "type": "uint256"
        }
      ],
      "name": "getTransactionApprovals",
      "outputs": [
        {
          "internalType": "uint256",
          "name": "",
          "type": "uint256"
        }
      ],
      "stateMutability": "view",
      "type": "function"
    },
    {
      "inputs": [
        {
          "internalType": "uint256",
          "name": "txIndex",
          "type": "uint256"
        }
      ],
      "name": "getTransactionDenialCount",
      "outputs": [
        {
          "internalType": "uint256",
          "name": "",
          "type": "uint256"
        }
      ],
      "stateMutability": "view",
      "type": "function"
    },
    {
      "inputs": [
        {
          "internalType": "uint256",
          "name": "txIndex",
          "type": "uint256"
        }
      ],
      "name": "getTransactionDenials",
      "outputs": [
        {
          "internalType": "uint256",
          "name": "",
          "type": "uint256"
        }
      ],
      "stateMutability": "view",
      "type": "function"
    },
    {
      "inputs": [],
      "name": "getTransactions",
      "outputs": [
        {
          "components": [
            {
              "internalType": "address",
              "name": "to",
              "type": "address"
            },
            {
              "internalType": "uint256",
              "name": "value",
              "type": "uint256"
            },
            {
              "internalType": "bytes",
              "name": "data",
              "type": "bytes"
            },
            {
              "internalType": "bool",
              "name": "executed",
              "type": "bool"
            },
            {
              "internalType": "bool",
              "name": "denied",
              "type": "bool"
            }
          ],
          "internalType": "struct FrontierMultisig.Transaction[]",
          "name": "",
          "type": "tuple[]"
        }
      ],
      "stateMutability": "view",
      "type": "function"
    },
    {
      "inputs": [
        {
          "internalType": "address",
          "name": "",
          "type": "address"
        }
      ],
      "name": "isOriginalOwner",
      "outputs": [
        {
          "internalType": "bool",
          "name": "",
          "type": "bool"
        }
      ],
      "stateMutability": "view",
      "type": "function"
    },
    {
      "inputs": [
        {
          "internalType": "address",
          "name": "",
          "type": "address"
        }
      ],
      "name": "isOwner",
      "outputs": [
        {
          "internalType": "bool",
          "name": "",
          "type": "bool"
        }
      ],
      "stateMutability": "view",
      "type": "function"
    },
    {
      "inputs": [
        {
          "internalType": "uint256",
          "name": "",
          "type": "uint256"
        }
      ],
      "name": "originalOwners",
      "outputs": [
        {
          "internalType": "address",
          "name": "",
          "type": "address"
        }
      ],
      "stateMutability": "view",
      "type": "function"
    },
    {
      "inputs": [
        {
          "internalType": "uint256",
          "name": "",
          "type": "uint256"
        }
      ],
      "name": "owners",
      "outputs": [
        {
          "internalType": "address",
          "name": "",
          "type": "address"
        }
      ],
      "stateMutability": "view",
      "type": "function"
    },
    {
      "inputs": [
        {
          "internalType": "address",
          "name": "owner",
          "type": "address"
        }
      ],
      "name": "removeOwner",
      "outputs": [],
      "stateMutability": "nonpayable",
      "type": "function"
    },
    {
      "inputs": [
        {
          "internalType": "uint256",
          "name": "txIndex",
          "type": "uint256"
        }
      ],
      "name": "revokeTransaction",
      "outputs": [],
      "stateMutability": "nonpayable",
      "type": "function"
    },
    {
      "inputs": [
        {
          "internalType": "address",
          "name": "to",
          "type": "address"
        },
        {
          "internalType": "uint256",
          "name": "value",
          "type": "uint256"
        },
        {
          "internalType": "bytes",
          "name": "data",
          "type": "bytes"
        }
      ],
      "name": "submitTransaction",
      "outputs": [],
      "stateMutability": "nonpayable",
      "type": "function"
    },
    {
      "inputs": [
        {
          "internalType": "uint256",
          "name": "",
          "type": "uint256"
        }
      ],
      "name": "transactions",
      "outputs": [
        {
          "internalType": "address",
          "name": "to",
          "type": "address"
        },
        {
          "internalType": "uint256",
          "name": "value",
          "type": "uint256"
        },
        {
          "internalType": "bytes",
          "name": "data",
          "type": "bytes"
        },
        {
          "internalType": "bool",
          "name": "executed",
          "type": "bool"
        },
        {
          "internalType": "bool",
          "name": "denied",
          "type": "bool"
        }
      ],
      "stateMutability": "view",
      "type": "function"
    },
    {
      "stateMutability": "payable",
      "type": "receive"
    }
  ],
  "bytecode": "0x6080604052600160025560016003553480156200001b57600080fd5b5060405162003c9438038062003c9483398181016040528101906200004191906200029a565b600073ffffffffffffffffffffffffffffffffffffffff168173ffffffffffffffffffffffffffffffffffffffff1603620000b3576040517f08c379a0000000000000000000000000000000000000000000000000000000008152600401620000aa906200032d565b60405180910390fd5b6001600460008373ffffffffffffffffffffffffffffffffffffffff1673ffffffffffffffffffffffffffffffffffffffff16815260200190815260200160002060006101000a81548160ff0219169083151502179055506000819080600181540180825580915050600190039060005260206000200160009091909190916101000a81548173ffffffffffffffffffffffffffffffffffffffff021916908373ffffffffffffffffffffffffffffffffffffffff1602179055506001600560008373ffffffffffffffffffffffffffffffffffffffff1673ffffffffffffffffffffffffffffffffffffffff16815260200190815260200160002060006101000a81548160ff0219169083151502179055506001819080600181540180825580915050600190039060005260206000200160009091909190916101000a81548173ffffffffffffffffffffffffffffffffffffffff021916908373ffffffffffffffffffffffffffffffffffffffff160217905550506200034f565b600080fd5b600073ffffffffffffffffffffffffffffffffffffffff82169050919050565b6000620002628262000235565b9050919050565b620002748162000255565b81146200028057600080fd5b50565b600081519050620002948162000269565b92915050565b600060208284031215620002b357620002b262000230565b5b6000620002c38482850162000283565b91505092915050565b600082825260208201905092915050565b7f6f776e657220697320746865207a65726f206164647265737300000000000000600082015250565b600062000315601983620002cc565b91506200032282620002dd565b602082019050919050565b60006020820190508181036000830152620003488162000306565b9050919050565b613935806200035f6000396000f3fe60806040526004361061019f5760003560e01c80637065cb48116100ec578063a4ee77f31161008a578063de5d22d611610064578063de5d22d61461066c578063ea1d59c9146106a9578063ee22610b146106d4578063f592ba45146106f0576101f4565b8063a4ee77f3146105c9578063ab2850da14610606578063c642747414610643576101f4565b806383920e90116100c657806383920e90146105075780638ad6afec146105325780639ace38c21461055d578063a0e67e2b1461059e576101f4565b80637065cb481461048c57806371a1c5d8146104b5578063735631ad146104de576101f4565b80631ade0a3b116101595780632f54bf6e116101335780632f54bf6e146103aa57806332f0cba0146103e75780633c6f868c1461042457806346da8e731461044f576101f4565b80631ade0a3b1461031957806322e3d3d714610356578063242232d114610381576101f4565b806251acbc146101f9578063025e7c27146102225780630dd07bdb1461025f57806311402c761461029c57806312065fe0146102c5578063173825d9146102f0576101f4565b366101f4573373ffffffffffffffffffffffffffffffffffffffff167fe1fffcc4923d04b559f4d29a8bfc6cda04eb5b0d3c460751c2402c5c5cc9109c346040516101ea919061246d565b60405180910390a2005b600080fd5b34801561020557600080fd5b50610220600480360381019061021b91906124c8565b61072d565b005b34801561022e57600080fd5b50610249600480360381019061024491906124c8565b610857565b6040516102569190612536565b60405180910390f35b34801561026b57600080fd5b506102866004803603810190610281919061257d565b610896565b60405161029391906125d8565b60405180910390f35b3480156102a857600080fd5b506102c360048036038101906102be91906124c8565b6108c5565b005b3480156102d157600080fd5b506102da6109ef565b6040516102e7919061246d565b60405180910390f35b3480156102fc57600080fd5b50610317600480360381019061031291906125f3565b6109f7565b005b34801561032557600080fd5b50610340600480360381019061033b91906124c8565b610e42565b60405161034d9190612536565b60405180910390f35b34801561036257600080fd5b5061036b610e81565b604051610378919061246d565b60405180910390f35b34801561038d57600080fd5b506103a860048036038101906103a391906124c8565b610e87565b005b3480156103b657600080fd5b506103d160048036038101906103cc91906125f3565b6110d4565b6040516103de91906125d8565b60405180910390f35b3480156103f357600080fd5b5061040e600480360381019061040991906124c8565b6110f4565b60405161041b919061246d565b60405180910390f35b34801561043057600080fd5b506104396111d8565b604051610446919061246d565b60405180910390f35b34801561045b57600080fd5b50610476600480360381019061047191906125f3565b6111e2565b60405161048391906125d8565b60405180910390f35b34801561049857600080fd5b506104b360048036038101906104ae91906125f3565b611202565b005b3480156104c157600080fd5b506104dc60048036038101906104d791906124c8565b61148b565b005b3480156104ea57600080fd5b50610505600480360381019061050091906124c8565b6116d8565b005b34801561051357600080fd5b5061051c6118b1565b6040516105299190612815565b60405180910390f35b34801561053e57600080fd5b50610547611a38565b604051610554919061246d565b60405180910390f35b34801561056957600080fd5b50610584600480360381019061057f91906124c8565b611a42565b604051610595959493929190612881565b60405180910390f35b3480156105aa57600080fd5b506105b3611b4a565b6040516105c0919061298a565b60405180910390f35b3480156105d557600080fd5b506105f060048036038101906105eb91906124c8565b611bd8565b6040516105fd919061246d565b60405180910390f35b34801561061257600080fd5b5061062d6004803603810190610628919061257d565b611cbc565b60405161063a91906125d8565b60405180910390f35b34801561064f57600080fd5b5061066a60048036038101906106659190612ae1565b611ceb565b005b34801561067857600080fd5b50610693600480360381019061068e91906124c8565b611f06565b6040516106a0919061246d565b60405180910390f35b3480156106b557600080fd5b506106be611fea565b6040516106cb919061246d565b60405180910390f35b6106ee60048036038101906106e991906124c8565b611ff0565b005b3480156106fc57600080fd5b50610717600480360381019061071291906124c8565b612370565b604051610724919061246d565b60405180910390f35b600560003373ffffffffffffffffffffffffffffffffffffffff1673ffffffffffffffffffffffffffffffffffffffff16815260200190815260200160002060009054906101000a900460ff166107b9576040517f08c379a00000000000000000000000000000000000000000000000000000000081526004016107b090612bf9565b60405180910390fd5b60006107c3611b4a565b90506000821180156107d6575080518211155b610815576040517f08c379a000000000000000000000000000000000000000000000000000000000815260040161080c90612cb1565b60405180910390fd5b816002819055507f82d358668ec18939208535db7d6f67cf9b8b8a3f3f791a226ca20bed738e3de08260405161084b919061246d565b60405180910390a15050565b6000818154811061086757600080fd5b906000526020600020016000915054906101000a900473ffffffffffffffffffffffffffffffffffffffff1681565b60086020528160005260406000206020528060005260406000206000915091509054906101000a900460ff1681565b600560003373ffffffffffffffffffffffffffffffffffffffff1673ffffffffffffffffffffffffffffffffffffffff16815260200190815260200160002060009054906101000a900460ff16610951576040517f08c379a000000000000000000000000000000000000000000000000000000000815260040161094890612d43565b60405180910390fd5b600061095b611b4a565b905060008211801561096e575080518211155b6109ad576040517f08c379a00000000000000000000000000000000000000000000000000000000081526004016109a490612dfb565b60405180910390fd5b816003819055507fb8ee0b0ffdcaa3f1628d7fc815008e4fd254f2914dc687df6a73206af29d06c2826040516109e3919061246d565b60405180910390a15050565b600047905090565b600560008273ffffffffffffffffffffffffffffffffffffffff1673ffffffffffffffffffffffffffffffffffffffff16815260200190815260200160002060009054906101000a900460ff1615610a84576040517f08c379a0000000000000000000000000000000000000000000000000000000008152600401610a7b90612e8d565b60405180910390fd5b600460003373ffffffffffffffffffffffffffffffffffffffff1673ffffffffffffffffffffffffffffffffffffffff16815260200190815260200160002060009054906101000a900460ff16610b10576040517f08c379a0000000000000000000000000000000000000000000000000000000008152600401610b0790612ef9565b60405180910390fd5b600073ffffffffffffffffffffffffffffffffffffffff168173ffffffffffffffffffffffffffffffffffffffff1603610b7f576040517f08c379a0000000000000000000000000000000000000000000000000000000008152600401610b7690612f65565b60405180910390fd5b600460008273ffffffffffffffffffffffffffffffffffffffff1673ffffffffffffffffffffffffffffffffffffffff16815260200190815260200160002060009054906101000a900460ff16610c0b576040517f08c379a0000000000000000000000000000000000000000000000000000000008152600401610c0290612fd1565b60405180910390fd5b6000600460008373ffffffffffffffffffffffffffffffffffffffff1673ffffffffffffffffffffffffffffffffffffffff16815260200190815260200160002060006101000a81548160ff02191690831515021790555060005b6001600080549050610c789190613020565b811015610db4578173ffffffffffffffffffffffffffffffffffffffff1660008281548110610caa57610ca9613054565b5b9060005260206000200160009054906101000a900473ffffffffffffffffffffffffffffffffffffffff1673ffffffffffffffffffffffffffffffffffffffff1603610da15760006001600080549050610d049190613020565b81548110610d1557610d14613054565b5b9060005260206000200160009054906101000a900473ffffffffffffffffffffffffffffffffffffffff1660008281548110610d5457610d53613054565b5b9060005260206000200160006101000a81548173ffffffffffffffffffffffffffffffffffffffff021916908373ffffffffffffffffffffffffffffffffffffffff160217905550610db4565b8080610dac90613083565b915050610c66565b506000805480610dc757610dc66130cb565b5b6001900381819060005260206000200160006101000a81549073ffffffffffffffffffffffffffffffffffffffff021916905590558073ffffffffffffffffffffffffffffffffffffffff167f8001553a916ef2f495d26a907cc54d96ed840d7bda71e73194bf5a9df7a76b9060405160405180910390a250565b60018181548110610e5257600080fd5b906000526020600020016000915054906101000a900473ffffffffffffffffffffffffffffffffffffffff1681565b60035481565b600460003373ffffffffffffffffffffffffffffffffffffffff1673ffffffffffffffffffffffffffffffffffffffff16815260200190815260200160002060009054906101000a900460ff16610f13576040517f08c379a0000000000000000000000000000000000000000000000000000000008152600401610f0a90612ef9565b60405180910390fd5b6007600082815260200190815260200160002060003373ffffffffffffffffffffffffffffffffffffffff1673ffffffffffffffffffffffffffffffffffffffff16815260200190815260200160002060009054906101000a900460ff1615610fb1576040517f08c379a0000000000000000000000000000000000000000000000000000000008152600401610fa89061316c565b60405180910390fd5b600115156008600083815260200190815260200160002060003373ffffffffffffffffffffffffffffffffffffffff1673ffffffffffffffffffffffffffffffffffffffff16815260200190815260200160002060009054906101000a900460ff1615150361102457611023816116d8565b5b60016007600083815260200190815260200160002060003373ffffffffffffffffffffffffffffffffffffffff1673ffffffffffffffffffffffffffffffffffffffff16815260200190815260200160002060006101000a81548160ff021916908315150217905550803373ffffffffffffffffffffffffffffffffffffffff167ffa624aadd8a0eae4ee975eae5cf13c9803b361b7fa2d832427db6207c088219360405160405180910390a350565b60046020528060005260406000206000915054906101000a900460ff1681565b6000806000905060005b6000805490508110156111ce5760076000858152602001908152602001600020600080838154811061113357611132613054565b5b9060005260206000200160009054906101000a900473ffffffffffffffffffffffffffffffffffffffff1673ffffffffffffffffffffffffffffffffffffffff1673ffffffffffffffffffffffffffffffffffffffff16815260200190815260200160002060009054906101000a900460ff16156111bb576001826111b8919061318c565b91505b80806111c690613083565b9150506110fe565b5080915050919050565b6000600254905090565b60056020528060005260406000206000915054906101000a900460ff1681565b600460003373ffffffffffffffffffffffffffffffffffffffff1673ffffffffffffffffffffffffffffffffffffffff16815260200190815260200160002060009054906101000a900460ff1661128e576040517f08c379a000000000000000000000000000000000000000000000000000000000815260040161128590612ef9565b60405180910390fd5b600073ffffffffffffffffffffffffffffffffffffffff168173ffffffffffffffffffffffffffffffffffffffff16036112fd576040517f08c379a00000000000000000000000000000000000000000000000000000000081526004016112f490612f65565b60405180910390fd5b600460008273ffffffffffffffffffffffffffffffffffffffff1673ffffffffffffffffffffffffffffffffffffffff16815260200190815260200160002060009054906101000a900460ff161561138a576040517f08c379a00000000000000000000000000000000000000000000000000000000081526004016113819061320c565b60405180910390fd5b6001600460008373ffffffffffffffffffffffffffffffffffffffff1673ffffffffffffffffffffffffffffffffffffffff16815260200190815260200160002060006101000a81548160ff0219169083151502179055506000819080600181540180825580915050600190039060005260206000200160009091909190916101000a81548173ffffffffffffffffffffffffffffffffffffffff021916908373ffffffffffffffffffffffffffffffffffffffff1602179055508073ffffffffffffffffffffffffffffffffffffffff167ff39e6e1eb0edcf53c221607b54b00cd28f3196fed0a24994dc308b8f611b682d60405160405180910390a250565b600460003373ffffffffffffffffffffffffffffffffffffffff1673ffffffffffffffffffffffffffffffffffffffff16815260200190815260200160002060009054906101000a900460ff16611517576040517f08c379a000000000000000000000000000000000000000000000000000000000815260040161150e90612ef9565b60405180910390fd5b6008600082815260200190815260200160002060003373ffffffffffffffffffffffffffffffffffffffff1673ffffffffffffffffffffffffffffffffffffffff16815260200190815260200160002060009054906101000a900460ff16156115b5576040517f08c379a00000000000000000000000000000000000000000000000000000000081526004016115ac9061329e565b60405180910390fd5b600115156007600083815260200190815260200160002060003373ffffffffffffffffffffffffffffffffffffffff1673ffffffffffffffffffffffffffffffffffffffff16815260200190815260200160002060009054906101000a900460ff1615150361162857611627816116d8565b5b60016008600083815260200190815260200160002060003373ffffffffffffffffffffffffffffffffffffffff1673ffffffffffffffffffffffffffffffffffffffff16815260200190815260200160002060006101000a81548160ff021916908315150217905550803373ffffffffffffffffffffffffffffffffffffffff167fb22956aab7df08f483a6c7570110f8f745af34d6e5495cd82e04d48d79fff99160405160405180910390a350565b600460003373ffffffffffffffffffffffffffffffffffffffff1673ffffffffffffffffffffffffffffffffffffffff16815260200190815260200160002060009054906101000a900460ff16611764576040517f08c379a000000000000000000000000000000000000000000000000000000000815260040161175b90612ef9565b60405180910390fd5b6007600082815260200190815260200160002060003373ffffffffffffffffffffffffffffffffffffffff1673ffffffffffffffffffffffffffffffffffffffff16815260200190815260200160002060009054906101000a900460ff16611801576040517f08c379a00000000000000000000000000000000000000000000000000000000081526004016117f890613330565b60405180910390fd5b60006007600083815260200190815260200160002060003373ffffffffffffffffffffffffffffffffffffffff1673ffffffffffffffffffffffffffffffffffffffff16815260200190815260200160002060006101000a81548160ff021916908315150217905550803373ffffffffffffffffffffffffffffffffffffffff167f1ad870073a851011d852bccd8634c29c7c0ac2265ba96d2bab01285001a465a860405160405180910390a350565b60606006805480602002602001604051908101604052809291908181526020016000905b82821015611a2f57838290600052602060002090600402016040518060a00160405290816000820160009054906101000a900473ffffffffffffffffffffffffffffffffffffffff1673ffffffffffffffffffffffffffffffffffffffff1673ffffffffffffffffffffffffffffffffffffffff168152602001600182015481526020016002820180546119689061337f565b80601f01602080910402602001604051908101604052809291908181526020018280546119949061337f565b80156119e15780601f106119b6576101008083540402835291602001916119e1565b820191906000526020600020905b8154815290600101906020018083116119c457829003601f168201915b505050505081526020016003820160009054906101000a900460ff161515151581526020016003820160019054906101000a900460ff161515151581525050815260200190600101906118d5565b50505050905090565b6000600354905090565b60068181548110611a5257600080fd5b90600052602060002090600402016000915090508060000160009054906101000a900473ffffffffffffffffffffffffffffffffffffffff1690806001015490806002018054611aa19061337f565b80601f0160208091040260200160405190810160405280929190818152602001828054611acd9061337f565b8015611b1a5780601f10611aef57610100808354040283529160200191611b1a565b820191906000526020600020905b815481529060010190602001808311611afd57829003601f168201915b5050505050908060030160009054906101000a900460ff16908060030160019054906101000a900460ff16905085565b60606000805480602002602001604051908101604052809291908181526020018280548015611bce57602002820191906000526020600020905b8160009054906101000a900473ffffffffffffffffffffffffffffffffffffffff1673ffffffffffffffffffffffffffffffffffffffff1681526020019060010190808311611b84575b5050505050905090565b6000806000905060005b600080549050811015611cb257600760008581526020019081526020016000206000808381548110611c1757611c16613054565b5b9060005260206000200160009054906101000a900473ffffffffffffffffffffffffffffffffffffffff1673ffffffffffffffffffffffffffffffffffffffff1673ffffffffffffffffffffffffffffffffffffffff16815260200190815260200160002060009054906101000a900460ff1615611c9f57600182611c9c919061318c565b91505b8080611caa90613083565b915050611be2565b5080915050919050565b60076020528160005260406000206020528060005260406000206000915091509054906101000a900460ff1681565b600460003373ffffffffffffffffffffffffffffffffffffffff1673ffffffffffffffffffffffffffffffffffffffff16815260200190815260200160002060009054906101000a900460ff16611d77576040517f08c379a0000000000000000000000000000000000000000000000000000000008152600401611d6e90612ef9565b60405180910390fd5b6000600680549050905060066040518060a001604052808673ffffffffffffffffffffffffffffffffffffffff16815260200185815260200184815260200160001515815260200160001515815250908060018154018082558091505060019003906000526020600020906004020160009091909190915060008201518160000160006101000a81548173ffffffffffffffffffffffffffffffffffffffff021916908373ffffffffffffffffffffffffffffffffffffffff160217905550602082015181600101556040820151816002019081611e55919061355c565b5060608201518160030160006101000a81548160ff02191690831515021790555060808201518160030160016101000a81548160ff02191690831515021790555050508373ffffffffffffffffffffffffffffffffffffffff16813373ffffffffffffffffffffffffffffffffffffffff167fd5a05bf70715ad82a09a756320284a1b54c9ff74cd0f8cce6219e79b563fe59d8686604051611ef892919061362e565b60405180910390a450505050565b6000806000905060005b600080549050811015611fe057600860008581526020019081526020016000206000808381548110611f4557611f44613054565b5b9060005260206000200160009054906101000a900473ffffffffffffffffffffffffffffffffffffffff1673ffffffffffffffffffffffffffffffffffffffff1673ffffffffffffffffffffffffffffffffffffffff16815260200190815260200160002060009054906101000a900460ff1615611fcd57600182611fca919061318c565b91505b8080611fd890613083565b915050611f10565b5080915050919050565b60025481565b600460003373ffffffffffffffffffffffffffffffffffffffff1673ffffffffffffffffffffffffffffffffffffffff16815260200190815260200160002060009054906101000a900460ff1661207c576040517f08c379a000000000000000000000000000000000000000000000000000000000815260040161207390612ef9565b60405180910390fd5b600261208782611bd8565b10156120c8576040517f08c379a00000000000000000000000000000000000000000000000000000000081526004016120bf906136d0565b60405180910390fd5b600681815481106120dc576120db613054565b5b906000526020600020906004020160030160009054906101000a900460ff161561213b576040517f08c379a000000000000000000000000000000000000000000000000000000000815260040161213290613762565b60405180910390fd5b6006818154811061214f5761214e613054565b5b906000526020600020906004020160030160019054906101000a900460ff16156121ae576040517f08c379a00000000000000000000000000000000000000000000000000000000081526004016121a5906137ce565b60405180910390fd5b6001600682815481106121c4576121c3613054565b5b906000526020600020906004020160030160006101000a81548160ff02191690831515021790555060006006828154811061220257612201613054565b5b906000526020600020906004020160000160009054906101000a900473ffffffffffffffffffffffffffffffffffffffff1673ffffffffffffffffffffffffffffffffffffffff166006838154811061225e5761225d613054565b5b9060005260206000209060040201600101546006848154811061228457612283613054565b5b90600052602060002090600402016002016040516122a2919061387c565b60006040518083038185875af1925050503d80600081146122df576040519150601f19603f3d011682016040523d82523d6000602084013e6122e4565b606091505b5050905080612328576040517f08c379a000000000000000000000000000000000000000000000000000000000815260040161231f906138df565b60405180910390fd5b813373ffffffffffffffffffffffffffffffffffffffff167f5445f318f4f5fcfb66592e68e0cc5822aa15664039bd5f0ffde24c5a8142b1ac60405160405180910390a35050565b6000806000905060005b60008054905081101561244a576008600085815260200190815260200160002060008083815481106123af576123ae613054565b5b9060005260206000200160009054906101000a900473ffffffffffffffffffffffffffffffffffffffff1673ffffffffffffffffffffffffffffffffffffffff1673ffffffffffffffffffffffffffffffffffffffff16815260200190815260200160002060009054906101000a900460ff161561243757600182612434919061318c565b91505b808061244290613083565b91505061237a565b5080915050919050565b6000819050919050565b61246781612454565b82525050565b6000602082019050612482600083018461245e565b92915050565b6000604051905090565b600080fd5b600080fd5b6124a581612454565b81146124b057600080fd5b50565b6000813590506124c28161249c565b92915050565b6000602082840312156124de576124dd612492565b5b60006124ec848285016124b3565b91505092915050565b600073ffffffffffffffffffffffffffffffffffffffff82169050919050565b6000612520826124f5565b9050919050565b61253081612515565b82525050565b600060208201905061254b6000830184612527565b92915050565b61255a81612515565b811461256557600080fd5b50565b60008135905061257781612551565b92915050565b6000806040838503121561259457612593612492565b5b60006125a2858286016124b3565b92505060206125b385828601612568565b9150509250929050565b60008115159050919050565b6125d2816125bd565b82525050565b60006020820190506125ed60008301846125c9565b92915050565b60006020828403121561260957612608612492565b5b600061261784828501612568565b91505092915050565b600081519050919050565b600082825260208201905092915050565b6000819050602082019050919050565b61265581612515565b82525050565b61266481612454565b82525050565b600081519050919050565b600082825260208201905092915050565b60005b838110156126a4578082015181840152602081019050612689565b60008484015250505050565b6000601f19601f8301169050919050565b60006126cc8261266a565b6126d68185612675565b93506126e6818560208601612686565b6126ef816126b0565b840191505092915050565b612703816125bd565b82525050565b600060a083016000830151612721600086018261264c565b506020830151612734602086018261265b565b506040830151848203604086015261274c82826126c1565b915050606083015161276160608601826126fa565b50608083015161277460808601826126fa565b508091505092915050565b600061278b8383612709565b905092915050565b6000602082019050919050565b60006127ab82612620565b6127b5818561262b565b9350836020820285016127c78561263c565b8060005b8581101561280357848403895281516127e4858261277f565b94506127ef83612793565b925060208a019950506001810190506127cb565b50829750879550505050505092915050565b6000602082019050818103600083015261282f81846127a0565b905092915050565b600082825260208201905092915050565b60006128538261266a565b61285d8185612837565b935061286d818560208601612686565b612876816126b0565b840191505092915050565b600060a0820190506128966000830188612527565b6128a3602083018761245e565b81810360408301526128b58186612848565b90506128c460608301856125c9565b6128d160808301846125c9565b9695505050505050565b600081519050919050565b600082825260208201905092915050565b6000819050602082019050919050565b6000612913838361264c565b60208301905092915050565b6000602082019050919050565b6000612937826128db565b61294181856128e6565b935061294c836128f7565b8060005b8381101561297d5781516129648882612907565b975061296f8361291f565b925050600181019050612950565b5085935050505092915050565b600060208201905081810360008301526129a4818461292c565b905092915050565b600080fd5b600080fd5b7f4e487b7100000000000000000000000000000000000000000000000000000000600052604160045260246000fd5b6129ee826126b0565b810181811067ffffffffffffffff82111715612a0d57612a0c6129b6565b5b80604052505050565b6000612a20612488565b9050612a2c82826129e5565b919050565b600067ffffffffffffffff821115612a4c57612a4b6129b6565b5b612a55826126b0565b9050602081019050919050565b82818337600083830152505050565b6000612a84612a7f84612a31565b612a16565b905082815260208101848484011115612aa057612a9f6129b1565b5b612aab848285612a62565b509392505050565b600082601f830112612ac857612ac76129ac565b5b8135612ad8848260208601612a71565b91505092915050565b600080600060608486031215612afa57612af9612492565b5b6000612b0886828701612568565b9350506020612b19868287016124b3565b925050604084013567ffffffffffffffff811115612b3a57612b39612497565b5b612b4686828701612ab3565b9150509250925092565b600082825260208201905092915050565b7f55736572206973206e6f7420616e206f726967696e616c206f776e65722c207360008201527f6f2063616e6e6f74206368616e676520617070726f76616c732072657175697260208201527f6564000000000000000000000000000000000000000000000000000000000000604082015250565b6000612be3604283612b50565b9150612bee82612b61565b606082019050919050565b60006020820190508181036000830152612c1281612bd6565b9050919050565b7f417070726f76616c73207265717569726564206d75737420626520677265617460008201527f6572207468616e203020616e64206c657373207468616e206f7220657175616c60208201527f20746f20746865206e756d626572206f66206f776e6572730000000000000000604082015250565b6000612c9b605883612b50565b9150612ca682612c19565b606082019050919050565b60006020820190508181036000830152612cca81612c8e565b9050919050565b7f55736572206973206e6f7420616e206f726967696e616c206f776e65722c207360008201527f6f2063616e6e6f74206368616e67652064656e69616c73207265717569726564602082015250565b6000612d2d604083612b50565b9150612d3882612cd1565b604082019050919050565b60006020820190508181036000830152612d5c81612d20565b9050919050565b7f44656e69616c73207265717569726564206d757374206265206772656174657260008201527f207468616e203020616e64206c657373207468616e206f7220657175616c207460208201527f6f20746865206e756d626572206f66206f776e65727300000000000000000000604082015250565b6000612de5605683612b50565b9150612df082612d63565b606082019050919050565b60006020820190508181036000830152612e1481612dd8565b9050919050565b7f5573657220697320616e206f726967696e616c206f776e657220736f2063616e60008201527f6e6f742062652072656d6f766564000000000000000000000000000000000000602082015250565b6000612e77602e83612b50565b9150612e8282612e1b565b604082019050919050565b60006020820190508181036000830152612ea681612e6a565b9050919050565b7f55736572206973206e6f7420616e206f776e6572000000000000000000000000600082015250565b6000612ee3601483612b50565b9150612eee82612ead565b602082019050919050565b60006020820190508181036000830152612f1281612ed6565b9050919050565b7f6f776e657220697320746865207a65726f206164647265737300000000000000600082015250565b6000612f4f601983612b50565b9150612f5a82612f19565b602082019050919050565b60006020820190508181036000830152612f7e81612f42565b9050919050565b7f6f776e6572206973206e6f7420616e206f776e65720000000000000000000000600082015250565b6000612fbb601583612b50565b9150612fc682612f85565b602082019050919050565b60006020820190508181036000830152612fea81612fae565b9050919050565b7f4e487b7100000000000000000000000000000000000000000000000000000000600052601160045260246000fd5b600061302b82612454565b915061303683612454565b925082820390508181111561304e5761304d612ff1565b5b92915050565b7f4e487b7100000000000000000000000000000000000000000000000000000000600052603260045260246000fd5b600061308e82612454565b91507fffffffffffffffffffffffffffffffffffffffffffffffffffffffffffffffff82036130c0576130bf612ff1565b5b600182019050919050565b7f4e487b7100000000000000000000000000000000000000000000000000000000600052603160045260246000fd5b7f557365722068617320616c726561647920617070726f7665642074686973207460008201527f72616e73616374696f6e00000000000000000000000000000000000000000000602082015250565b6000613156602a83612b50565b9150613161826130fa565b604082019050919050565b6000602082019050818103600083015261318581613149565b9050919050565b600061319782612454565b91506131a283612454565b92508282019050808211156131ba576131b9612ff1565b5b92915050565b7f6f776e657220616c726561647920616464656400000000000000000000000000600082015250565b60006131f6601383612b50565b9150613201826131c0565b602082019050919050565b60006020820190508181036000830152613225816131e9565b9050919050565b7f557365722068617320616c72656164792064656e69656420746869732074726160008201527f6e73616374696f6e000000000000000000000000000000000000000000000000602082015250565b6000613288602883612b50565b91506132938261322c565b604082019050919050565b600060208201905081810360008301526132b78161327b565b9050919050565b7f5573657220686173206e6f7420617070726f7665642074686973207472616e7360008201527f616374696f6e0000000000000000000000000000000000000000000000000000602082015250565b600061331a602683612b50565b9150613325826132be565b604082019050919050565b600060208201905081810360008301526133498161330d565b9050919050565b7f4e487b7100000000000000000000000000000000000000000000000000000000600052602260045260246000fd5b6000600282049050600182168061339757607f821691505b6020821081036133aa576133a9613350565b5b50919050565b60008190508160005260206000209050919050565b60006020601f8301049050919050565b600082821b905092915050565b6000600883026134127fffffffffffffffffffffffffffffffffffffffffffffffffffffffffffffffff826133d5565b61341c86836133d5565b95508019841693508086168417925050509392505050565b6000819050919050565b600061345961345461344f84612454565b613434565b612454565b9050919050565b6000819050919050565b6134738361343e565b61348761347f82613460565b8484546133e2565b825550505050565b600090565b61349c61348f565b6134a781848461346a565b505050565b5b818110156134cb576134c0600082613494565b6001810190506134ad565b5050565b601f821115613510576134e1816133b0565b6134ea846133c5565b810160208510156134f9578190505b61350d613505856133c5565b8301826134ac565b50505b505050565b600082821c905092915050565b600061353360001984600802613515565b1980831691505092915050565b600061354c8383613522565b9150826002028217905092915050565b6135658261266a565b67ffffffffffffffff81111561357e5761357d6129b6565b5b613588825461337f565b6135938282856134cf565b600060209050601f8311600181146135c657600084156135b4578287015190505b6135be8582613540565b865550613626565b601f1984166135d4866133b0565b60005b828110156135fc578489015182556001820191506020850194506020810190506135d7565b868310156136195784890151613615601f891682613522565b8355505b6001600288020188555050505b505050505050565b6000604082019050613643600083018561245e565b81810360208301526136558184612848565b90509392505050565b7f5472616e73616374696f6e20686173206e6f74206265656e20617070726f766560008201527f6420627920656e6f756768206f776e6572730000000000000000000000000000602082015250565b60006136ba603283612b50565b91506136c58261365e565b604082019050919050565b600060208201905081810360008301526136e9816136ad565b9050919050565b7f5472616e73616374696f6e2068617320616c7265616479206265656e2065786560008201527f6375746564000000000000000000000000000000000000000000000000000000602082015250565b600061374c602583612b50565b9150613757826136f0565b604082019050919050565b6000602082019050818103600083015261377b8161373f565b9050919050565b7f5472616e73616374696f6e20686173206265656e2064656e6965640000000000600082015250565b60006137b8601b83612b50565b91506137c382613782565b602082019050919050565b600060208201905081810360008301526137e7816137ab565b9050919050565b600081905092915050565b600081546138068161337f565b61381081866137ee565b9450600182166000811461382b576001811461384057613873565b60ff1983168652811515820286019350613873565b613849856133b0565b60005b8381101561386b5781548189015260018201915060208101905061384c565b838801955050505b50505092915050565b600061388882846137f9565b915081905092915050565b7f5472616e73616374696f6e206661696c65640000000000000000000000000000600082015250565b60006138c9601283612b50565b91506138d482613893565b602082019050919050565b600060208201905081810360008301526138f8816138bc565b905091905056fea26469706673582212200fe2496d9ec7756b17a2ccdecbc047daea552b760c45ea97a7304d93ccd5c51664736f6c63430008110033",
  "linkReferences": {},
  "deployedLinkReferences": {}
}