{
  "_format": "hh-sol-artifact-1",
  "contractName": "FrontierMultisig",
  "sourceName": "contracts/FrontierMultisig.sol",
  "abi": [
    {
      "inputs": [
        {
          "internalType": "address",
          "name": "owner",
          "type": "address"
        }
      ],
      "stateMutability": "nonpayable",
      "type": "constructor"
    },
    {
      "anonymous": false,
      "inputs": [
        {
          "indexed": false,
          "internalType": "uint256",
          "name": "required",
          "type": "uint256"
        }
      ],
      "name": "ApprovalRequirementChange",
      "type": "event"
    },
    {
      "anonymous": false,
      "inputs": [
        {
          "indexed": true,
          "internalType": "address",
          "name": "owner",
          "type": "address"
        },
        {
          "indexed": true,
          "internalType": "uint256",
          "name": "txIndex",
          "type": "uint256"
        }
      ],
      "name": "ApproveTransaction",
      "type": "event"
    },
    {
      "anonymous": false,
      "inputs": [
        {
          "indexed": false,
          "internalType": "uint256",
          "name": "required",
          "type": "uint256"
        }
      ],
      "name": "DenyRequirementChange",
      "type": "event"
    },
    {
      "anonymous": false,
      "inputs": [
        {
          "indexed": true,
          "internalType": "address",
          "name": "owner",
          "type": "address"
        },
        {
          "indexed": true,
          "internalType": "uint256",
          "name": "txIndex",
          "type": "uint256"
        }
      ],
      "name": "DenyTransaction",
      "type": "event"
    },
    {
      "anonymous": false,
      "inputs": [
        {
          "indexed": true,
          "internalType": "address",
          "name": "sender",
          "type": "address"
        },
        {
          "indexed": false,
          "internalType": "uint256",
          "name": "value",
          "type": "uint256"
        }
      ],
      "name": "Deposit",
      "type": "event"
    },
    {
      "anonymous": false,
      "inputs": [
        {
          "indexed": true,
          "internalType": "address",
          "name": "owner",
          "type": "address"
        },
        {
          "indexed": true,
          "internalType": "uint256",
          "name": "txIndex",
          "type": "uint256"
        }
      ],
      "name": "ExecuteTransaction",
      "type": "event"
    },
    {
      "anonymous": false,
      "inputs": [
        {
          "indexed": true,
          "internalType": "address",
          "name": "owner",
          "type": "address"
        }
      ],
      "name": "OwnerAddition",
      "type": "event"
    },
    {
      "anonymous": false,
      "inputs": [
        {
          "indexed": true,
          "internalType": "address",
          "name": "owner",
          "type": "address"
        }
      ],
      "name": "OwnerRemoval",
      "type": "event"
    },
    {
      "anonymous": false,
      "inputs": [
        {
          "indexed": true,
          "internalType": "address",
          "name": "owner",
          "type": "address"
        },
        {
          "indexed": true,
          "internalType": "uint256",
          "name": "txIndex",
          "type": "uint256"
        }
      ],
      "name": "RevokeTransaction",
      "type": "event"
    },
    {
      "anonymous": false,
      "inputs": [
        {
          "indexed": true,
          "internalType": "address",
          "name": "owner",
          "type": "address"
        },
        {
          "indexed": true,
          "internalType": "uint256",
          "name": "txIndex",
          "type": "uint256"
        },
        {
          "indexed": true,
          "internalType": "address",
          "name": "to",
          "type": "address"
        },
        {
          "indexed": false,
          "internalType": "uint256",
          "name": "value",
          "type": "uint256"
        },
        {
          "indexed": false,
          "internalType": "bytes",
          "name": "data",
          "type": "bytes"
        }
      ],
      "name": "SubmitTransaction",
      "type": "event"
    },
    {
      "inputs": [
        {
          "internalType": "address",
          "name": "owner",
          "type": "address"
        }
      ],
      "name": "addOwner",
      "outputs": [],
      "stateMutability": "nonpayable",
      "type": "function"
    },
    {
      "inputs": [
        {
          "internalType": "uint256",
          "name": "",
          "type": "uint256"
        },
        {
          "internalType": "address",
          "name": "",
          "type": "address"
        }
      ],
      "name": "approvals",
      "outputs": [
        {
          "internalType": "bool",
          "name": "",
          "type": "bool"
        }
      ],
      "stateMutability": "view",
      "type": "function"
    },
    {
      "inputs": [],
      "name": "approvalsRequired",
      "outputs": [
        {
          "internalType": "uint256",
          "name": "",
          "type": "uint256"
        }
      ],
      "stateMutability": "view",
      "type": "function"
    },
    {
      "inputs": [
        {
          "internalType": "uint256",
          "name": "txIndex",
          "type": "uint256"
        }
      ],
      "name": "approveTransaction",
      "outputs": [],
      "stateMutability": "nonpayable",
      "type": "function"
    },
    {
      "inputs": [
        {
          "internalType": "uint256",
          "name": "_approvalsRequired",
          "type": "uint256"
        }
      ],
      "name": "changeApprovalsRequired",
      "outputs": [],
      "stateMutability": "nonpayable",
      "type": "function"
    },
    {
      "inputs": [
        {
          "internalType": "uint256",
          "name": "_denialsRequired",
          "type": "uint256"
        }
      ],
      "name": "changeDenialsRequired",
      "outputs": [],
      "stateMutability": "nonpayable",
      "type": "function"
    },
    {
      "inputs": [
        {
          "internalType": "uint256",
          "name": "",
          "type": "uint256"
        },
        {
          "internalType": "address",
          "name": "",
          "type": "address"
        }
      ],
      "name": "denials",
      "outputs": [
        {
          "internalType": "bool",
          "name": "",
          "type": "bool"
        }
      ],
      "stateMutability": "view",
      "type": "function"
    },
    {
      "inputs": [],
      "name": "denialsRequired",
      "outputs": [
        {
          "internalType": "uint256",
          "name": "",
          "type": "uint256"
        }
      ],
      "stateMutability": "view",
      "type": "function"
    },
    {
      "inputs": [
        {
          "internalType": "uint256",
          "name": "txIndex",
          "type": "uint256"
        }
      ],
      "name": "denyTransaction",
      "outputs": [],
      "stateMutability": "nonpayable",
      "type": "function"
    },
    {
      "inputs": [
        {
          "internalType": "uint256",
          "name": "txIndex",
          "type": "uint256"
        }
      ],
      "name": "executeTransaction",
      "outputs": [],
      "stateMutability": "payable",
      "type": "function"
    },
    {
      "inputs": [],
      "name": "getApprovalsRequired",
      "outputs": [
        {
          "internalType": "uint256",
          "name": "",
          "type": "uint256"
        }
      ],
      "stateMutability": "view",
      "type": "function"
    },
    {
      "inputs": [],
      "name": "getBalance",
      "outputs": [
        {
          "internalType": "uint256",
          "name": "",
          "type": "uint256"
        }
      ],
      "stateMutability": "view",
      "type": "function"
    },
    {
      "inputs": [],
      "name": "getDenialsRequired",
      "outputs": [
        {
          "internalType": "uint256",
          "name": "",
          "type": "uint256"
        }
      ],
      "stateMutability": "view",
      "type": "function"
    },
    {
      "inputs": [],
      "name": "getOwners",
      "outputs": [
        {
          "internalType": "address[]",
          "name": "",
          "type": "address[]"
        }
      ],
      "stateMutability": "view",
      "type": "function"
    },
    {
      "inputs": [],
      "name": "getPendingTransactions",
      "outputs": [
        {
          "internalType": "address[]",
          "name": "",
          "type": "address[]"
        },
        {
          "internalType": "uint256[]",
          "name": "",
          "type": "uint256[]"
        },
        {
          "internalType": "bytes[]",
          "name": "",
          "type": "bytes[]"
        },
        {
          "internalType": "bool[]",
          "name": "",
          "type": "bool[]"
        },
        {
          "internalType": "bool[]",
          "name": "",
          "type": "bool[]"
        }
      ],
      "stateMutability": "view",
      "type": "function"
    },
    {
      "inputs": [
        {
          "internalType": "uint256",
          "name": "txIndex",
          "type": "uint256"
        }
      ],
      "name": "getTransactionApprovalCount",
      "outputs": [
        {
          "internalType": "uint256",
          "name": "",
          "type": "uint256"
        }
      ],
      "stateMutability": "view",
      "type": "function"
    },
    {
      "inputs": [
        {
          "internalType": "uint256",
          "name": "txIndex",
          "type": "uint256"
        }
      ],
      "name": "getTransactionApprovals",
      "outputs": [
        {
          "internalType": "uint256",
          "name": "",
          "type": "uint256"
        }
      ],
      "stateMutability": "view",
      "type": "function"
    },
    {
      "inputs": [
        {
          "internalType": "uint256",
          "name": "txIndex",
          "type": "uint256"
        }
      ],
      "name": "getTransactionDenialCount",
      "outputs": [
        {
          "internalType": "uint256",
          "name": "",
          "type": "uint256"
        }
      ],
      "stateMutability": "view",
      "type": "function"
    },
    {
      "inputs": [
        {
          "internalType": "uint256",
          "name": "txIndex",
          "type": "uint256"
        }
      ],
      "name": "getTransactionDenials",
      "outputs": [
        {
          "internalType": "uint256",
          "name": "",
          "type": "uint256"
        }
      ],
      "stateMutability": "view",
      "type": "function"
    },
    {
      "inputs": [
        {
          "internalType": "address",
          "name": "",
          "type": "address"
        }
      ],
      "name": "isOriginalOwner",
      "outputs": [
        {
          "internalType": "bool",
          "name": "",
          "type": "bool"
        }
      ],
      "stateMutability": "view",
      "type": "function"
    },
    {
      "inputs": [
        {
          "internalType": "address",
          "name": "",
          "type": "address"
        }
      ],
      "name": "isOwner",
      "outputs": [
        {
          "internalType": "bool",
          "name": "",
          "type": "bool"
        }
      ],
      "stateMutability": "view",
      "type": "function"
    },
    {
      "inputs": [
        {
          "internalType": "uint256",
          "name": "",
          "type": "uint256"
        }
      ],
      "name": "originalOwners",
      "outputs": [
        {
          "internalType": "address",
          "name": "",
          "type": "address"
        }
      ],
      "stateMutability": "view",
      "type": "function"
    },
    {
      "inputs": [
        {
          "internalType": "uint256",
          "name": "",
          "type": "uint256"
        }
      ],
      "name": "owners",
      "outputs": [
        {
          "internalType": "address",
          "name": "",
          "type": "address"
        }
      ],
      "stateMutability": "view",
      "type": "function"
    },
    {
      "inputs": [
        {
          "internalType": "address",
          "name": "owner",
          "type": "address"
        }
      ],
      "name": "removeOwner",
      "outputs": [],
      "stateMutability": "nonpayable",
      "type": "function"
    },
    {
      "inputs": [
        {
          "internalType": "uint256",
          "name": "txIndex",
          "type": "uint256"
        }
      ],
      "name": "revokeTransaction",
      "outputs": [],
      "stateMutability": "nonpayable",
      "type": "function"
    },
    {
      "inputs": [
        {
          "internalType": "address",
          "name": "to",
          "type": "address"
        },
        {
          "internalType": "uint256",
          "name": "value",
          "type": "uint256"
        },
        {
          "internalType": "bytes",
          "name": "data",
          "type": "bytes"
        }
      ],
      "name": "submitTransaction",
      "outputs": [],
      "stateMutability": "nonpayable",
      "type": "function"
    },
    {
      "inputs": [
        {
          "internalType": "uint256",
          "name": "",
          "type": "uint256"
        }
      ],
      "name": "transactions",
      "outputs": [
        {
          "internalType": "address",
          "name": "to",
          "type": "address"
        },
        {
          "internalType": "uint256",
          "name": "value",
          "type": "uint256"
        },
        {
          "internalType": "bytes",
          "name": "data",
          "type": "bytes"
        },
        {
          "internalType": "bool",
          "name": "executed",
          "type": "bool"
        },
        {
          "internalType": "bool",
          "name": "denied",
          "type": "bool"
        }
      ],
      "stateMutability": "view",
      "type": "function"
    },
    {
      "stateMutability": "payable",
      "type": "receive"
    }
  ],
  "bytecode": "0x6080604052600160025560016003553480156200001b57600080fd5b506040516200419e3803806200419e83398181016040528101906200004191906200029a565b600073ffffffffffffffffffffffffffffffffffffffff168173ffffffffffffffffffffffffffffffffffffffff1603620000b3576040517f08c379a0000000000000000000000000000000000000000000000000000000008152600401620000aa906200032d565b60405180910390fd5b6001600460008373ffffffffffffffffffffffffffffffffffffffff1673ffffffffffffffffffffffffffffffffffffffff16815260200190815260200160002060006101000a81548160ff0219169083151502179055506000819080600181540180825580915050600190039060005260206000200160009091909190916101000a81548173ffffffffffffffffffffffffffffffffffffffff021916908373ffffffffffffffffffffffffffffffffffffffff1602179055506001600560008373ffffffffffffffffffffffffffffffffffffffff1673ffffffffffffffffffffffffffffffffffffffff16815260200190815260200160002060006101000a81548160ff0219169083151502179055506001819080600181540180825580915050600190039060005260206000200160009091909190916101000a81548173ffffffffffffffffffffffffffffffffffffffff021916908373ffffffffffffffffffffffffffffffffffffffff160217905550506200034f565b600080fd5b600073ffffffffffffffffffffffffffffffffffffffff82169050919050565b6000620002628262000235565b9050919050565b620002748162000255565b81146200028057600080fd5b50565b600081519050620002948162000269565b92915050565b600060208284031215620002b357620002b262000230565b5b6000620002c38482850162000283565b91505092915050565b600082825260208201905092915050565b7f6f776e657220697320746865207a65726f206164647265737300000000000000600082015250565b600062000315601983620002cc565b91506200032282620002dd565b602082019050919050565b60006020820190508181036000830152620003488162000306565b9050919050565b613e3f806200035f6000396000f3fe60806040526004361061019f5760003560e01c80637065cb48116100ec578063ab2850da1161008a578063de5d22d611610064578063de5d22d614610670578063ea1d59c9146106ad578063ee22610b146106d8578063f592ba45146106f4576101f4565b8063ab2850da146105db578063c642747414610618578063d11db83f14610641576101f4565b80638ad6afec116100c65780638ad6afec146105075780639ace38c214610532578063a0e67e2b14610573578063a4ee77f31461059e576101f4565b80637065cb481461048c57806371a1c5d8146104b5578063735631ad146104de576101f4565b80631ade0a3b116101595780632f54bf6e116101335780632f54bf6e146103aa57806332f0cba0146103e75780633c6f868c1461042457806346da8e731461044f576101f4565b80631ade0a3b1461031957806322e3d3d714610356578063242232d114610381576101f4565b806251acbc146101f9578063025e7c27146102225780630dd07bdb1461025f57806311402c761461029c57806312065fe0146102c5578063173825d9146102f0576101f4565b366101f4573373ffffffffffffffffffffffffffffffffffffffff167fe1fffcc4923d04b559f4d29a8bfc6cda04eb5b0d3c460751c2402c5c5cc9109c346040516101ea919061283b565b60405180910390a2005b600080fd5b34801561020557600080fd5b50610220600480360381019061021b9190612896565b610731565b005b34801561022e57600080fd5b5061024960048036038101906102449190612896565b61085b565b6040516102569190612904565b60405180910390f35b34801561026b57600080fd5b506102866004803603810190610281919061294b565b61089a565b60405161029391906129a6565b60405180910390f35b3480156102a857600080fd5b506102c360048036038101906102be9190612896565b6108c9565b005b3480156102d157600080fd5b506102da6109f3565b6040516102e7919061283b565b60405180910390f35b3480156102fc57600080fd5b50610317600480360381019061031291906129c1565b6109fb565b005b34801561032557600080fd5b50610340600480360381019061033b9190612896565b610e46565b60405161034d9190612904565b60405180910390f35b34801561036257600080fd5b5061036b610e85565b604051610378919061283b565b60405180910390f35b34801561038d57600080fd5b506103a860048036038101906103a39190612896565b610e8b565b005b3480156103b657600080fd5b506103d160048036038101906103cc91906129c1565b6110d8565b6040516103de91906129a6565b60405180910390f35b3480156103f357600080fd5b5061040e60048036038101906104099190612896565b6110f8565b60405161041b919061283b565b60405180910390f35b34801561043057600080fd5b506104396111dc565b604051610446919061283b565b60405180910390f35b34801561045b57600080fd5b50610476600480360381019061047191906129c1565b6111e6565b60405161048391906129a6565b60405180910390f35b34801561049857600080fd5b506104b360048036038101906104ae91906129c1565b611206565b005b3480156104c157600080fd5b506104dc60048036038101906104d79190612896565b61148f565b005b3480156104ea57600080fd5b5061050560048036038101906105009190612896565b6116dc565b005b34801561051357600080fd5b5061051c6118b5565b604051610529919061283b565b60405180910390f35b34801561053e57600080fd5b5061055960048036038101906105549190612896565b6118bf565b60405161056a959493929190612a7e565b60405180910390f35b34801561057f57600080fd5b506105886119c7565b6040516105959190612b96565b60405180910390f35b3480156105aa57600080fd5b506105c560048036038101906105c09190612896565b611a55565b6040516105d2919061283b565b60405180910390f35b3480156105e757600080fd5b5061060260048036038101906105fd919061294b565b611b39565b60405161060f91906129a6565b60405180910390f35b34801561062457600080fd5b5061063f600480360381019061063a9190612ced565b611b68565b005b34801561064d57600080fd5b50610656611d83565b604051610667959493929190612fe4565b60405180910390f35b34801561067c57600080fd5b5061069760048036038101906106929190612896565b6122d4565b6040516106a4919061283b565b60405180910390f35b3480156106b957600080fd5b506106c26123b8565b6040516106cf919061283b565b60405180910390f35b6106f260048036038101906106ed9190612896565b6123be565b005b34801561070057600080fd5b5061071b60048036038101906107169190612896565b61273e565b604051610728919061283b565b60405180910390f35b600560003373ffffffffffffffffffffffffffffffffffffffff1673ffffffffffffffffffffffffffffffffffffffff16815260200190815260200160002060009054906101000a900460ff166107bd576040517f08c379a00000000000000000000000000000000000000000000000000000000081526004016107b490613103565b60405180910390fd5b60006107c76119c7565b90506000821180156107da575080518211155b610819576040517f08c379a0000000000000000000000000000000000000000000000000000000008152600401610810906131bb565b60405180910390fd5b816002819055507f82d358668ec18939208535db7d6f67cf9b8b8a3f3f791a226ca20bed738e3de08260405161084f919061283b565b60405180910390a15050565b6000818154811061086b57600080fd5b906000526020600020016000915054906101000a900473ffffffffffffffffffffffffffffffffffffffff1681565b60086020528160005260406000206020528060005260406000206000915091509054906101000a900460ff1681565b600560003373ffffffffffffffffffffffffffffffffffffffff1673ffffffffffffffffffffffffffffffffffffffff16815260200190815260200160002060009054906101000a900460ff16610955576040517f08c379a000000000000000000000000000000000000000000000000000000000815260040161094c9061324d565b60405180910390fd5b600061095f6119c7565b9050600082118015610972575080518211155b6109b1576040517f08c379a00000000000000000000000000000000000000000000000000000000081526004016109a890613305565b60405180910390fd5b816003819055507fb8ee0b0ffdcaa3f1628d7fc815008e4fd254f2914dc687df6a73206af29d06c2826040516109e7919061283b565b60405180910390a15050565b600047905090565b600560008273ffffffffffffffffffffffffffffffffffffffff1673ffffffffffffffffffffffffffffffffffffffff16815260200190815260200160002060009054906101000a900460ff1615610a88576040517f08c379a0000000000000000000000000000000000000000000000000000000008152600401610a7f90613397565b60405180910390fd5b600460003373ffffffffffffffffffffffffffffffffffffffff1673ffffffffffffffffffffffffffffffffffffffff16815260200190815260200160002060009054906101000a900460ff16610b14576040517f08c379a0000000000000000000000000000000000000000000000000000000008152600401610b0b90613403565b60405180910390fd5b600073ffffffffffffffffffffffffffffffffffffffff168173ffffffffffffffffffffffffffffffffffffffff1603610b83576040517f08c379a0000000000000000000000000000000000000000000000000000000008152600401610b7a9061346f565b60405180910390fd5b600460008273ffffffffffffffffffffffffffffffffffffffff1673ffffffffffffffffffffffffffffffffffffffff16815260200190815260200160002060009054906101000a900460ff16610c0f576040517f08c379a0000000000000000000000000000000000000000000000000000000008152600401610c06906134db565b60405180910390fd5b6000600460008373ffffffffffffffffffffffffffffffffffffffff1673ffffffffffffffffffffffffffffffffffffffff16815260200190815260200160002060006101000a81548160ff02191690831515021790555060005b6001600080549050610c7c919061352a565b811015610db8578173ffffffffffffffffffffffffffffffffffffffff1660008281548110610cae57610cad61355e565b5b9060005260206000200160009054906101000a900473ffffffffffffffffffffffffffffffffffffffff1673ffffffffffffffffffffffffffffffffffffffff1603610da55760006001600080549050610d08919061352a565b81548110610d1957610d1861355e565b5b9060005260206000200160009054906101000a900473ffffffffffffffffffffffffffffffffffffffff1660008281548110610d5857610d5761355e565b5b9060005260206000200160006101000a81548173ffffffffffffffffffffffffffffffffffffffff021916908373ffffffffffffffffffffffffffffffffffffffff160217905550610db8565b8080610db09061358d565b915050610c6a565b506000805480610dcb57610dca6135d5565b5b6001900381819060005260206000200160006101000a81549073ffffffffffffffffffffffffffffffffffffffff021916905590558073ffffffffffffffffffffffffffffffffffffffff167f8001553a916ef2f495d26a907cc54d96ed840d7bda71e73194bf5a9df7a76b9060405160405180910390a250565b60018181548110610e5657600080fd5b906000526020600020016000915054906101000a900473ffffffffffffffffffffffffffffffffffffffff1681565b60035481565b600460003373ffffffffffffffffffffffffffffffffffffffff1673ffffffffffffffffffffffffffffffffffffffff16815260200190815260200160002060009054906101000a900460ff16610f17576040517f08c379a0000000000000000000000000000000000000000000000000000000008152600401610f0e90613403565b60405180910390fd5b6007600082815260200190815260200160002060003373ffffffffffffffffffffffffffffffffffffffff1673ffffffffffffffffffffffffffffffffffffffff16815260200190815260200160002060009054906101000a900460ff1615610fb5576040517f08c379a0000000000000000000000000000000000000000000000000000000008152600401610fac90613676565b60405180910390fd5b600115156008600083815260200190815260200160002060003373ffffffffffffffffffffffffffffffffffffffff1673ffffffffffffffffffffffffffffffffffffffff16815260200190815260200160002060009054906101000a900460ff1615150361102857611027816116dc565b5b60016007600083815260200190815260200160002060003373ffffffffffffffffffffffffffffffffffffffff1673ffffffffffffffffffffffffffffffffffffffff16815260200190815260200160002060006101000a81548160ff021916908315150217905550803373ffffffffffffffffffffffffffffffffffffffff167ffa624aadd8a0eae4ee975eae5cf13c9803b361b7fa2d832427db6207c088219360405160405180910390a350565b60046020528060005260406000206000915054906101000a900460ff1681565b6000806000905060005b6000805490508110156111d2576007600085815260200190815260200160002060008083815481106111375761113661355e565b5b9060005260206000200160009054906101000a900473ffffffffffffffffffffffffffffffffffffffff1673ffffffffffffffffffffffffffffffffffffffff1673ffffffffffffffffffffffffffffffffffffffff16815260200190815260200160002060009054906101000a900460ff16156111bf576001826111bc9190613696565b91505b80806111ca9061358d565b915050611102565b5080915050919050565b6000600254905090565b60056020528060005260406000206000915054906101000a900460ff1681565b600460003373ffffffffffffffffffffffffffffffffffffffff1673ffffffffffffffffffffffffffffffffffffffff16815260200190815260200160002060009054906101000a900460ff16611292576040517f08c379a000000000000000000000000000000000000000000000000000000000815260040161128990613403565b60405180910390fd5b600073ffffffffffffffffffffffffffffffffffffffff168173ffffffffffffffffffffffffffffffffffffffff1603611301576040517f08c379a00000000000000000000000000000000000000000000000000000000081526004016112f89061346f565b60405180910390fd5b600460008273ffffffffffffffffffffffffffffffffffffffff1673ffffffffffffffffffffffffffffffffffffffff16815260200190815260200160002060009054906101000a900460ff161561138e576040517f08c379a000000000000000000000000000000000000000000000000000000000815260040161138590613716565b60405180910390fd5b6001600460008373ffffffffffffffffffffffffffffffffffffffff1673ffffffffffffffffffffffffffffffffffffffff16815260200190815260200160002060006101000a81548160ff0219169083151502179055506000819080600181540180825580915050600190039060005260206000200160009091909190916101000a81548173ffffffffffffffffffffffffffffffffffffffff021916908373ffffffffffffffffffffffffffffffffffffffff1602179055508073ffffffffffffffffffffffffffffffffffffffff167ff39e6e1eb0edcf53c221607b54b00cd28f3196fed0a24994dc308b8f611b682d60405160405180910390a250565b600460003373ffffffffffffffffffffffffffffffffffffffff1673ffffffffffffffffffffffffffffffffffffffff16815260200190815260200160002060009054906101000a900460ff1661151b576040517f08c379a000000000000000000000000000000000000000000000000000000000815260040161151290613403565b60405180910390fd5b6008600082815260200190815260200160002060003373ffffffffffffffffffffffffffffffffffffffff1673ffffffffffffffffffffffffffffffffffffffff16815260200190815260200160002060009054906101000a900460ff16156115b9576040517f08c379a00000000000000000000000000000000000000000000000000000000081526004016115b0906137a8565b60405180910390fd5b600115156007600083815260200190815260200160002060003373ffffffffffffffffffffffffffffffffffffffff1673ffffffffffffffffffffffffffffffffffffffff16815260200190815260200160002060009054906101000a900460ff1615150361162c5761162b816116dc565b5b60016008600083815260200190815260200160002060003373ffffffffffffffffffffffffffffffffffffffff1673ffffffffffffffffffffffffffffffffffffffff16815260200190815260200160002060006101000a81548160ff021916908315150217905550803373ffffffffffffffffffffffffffffffffffffffff167fb22956aab7df08f483a6c7570110f8f745af34d6e5495cd82e04d48d79fff99160405160405180910390a350565b600460003373ffffffffffffffffffffffffffffffffffffffff1673ffffffffffffffffffffffffffffffffffffffff16815260200190815260200160002060009054906101000a900460ff16611768576040517f08c379a000000000000000000000000000000000000000000000000000000000815260040161175f90613403565b60405180910390fd5b6007600082815260200190815260200160002060003373ffffffffffffffffffffffffffffffffffffffff1673ffffffffffffffffffffffffffffffffffffffff16815260200190815260200160002060009054906101000a900460ff16611805576040517f08c379a00000000000000000000000000000000000000000000000000000000081526004016117fc9061383a565b60405180910390fd5b60006007600083815260200190815260200160002060003373ffffffffffffffffffffffffffffffffffffffff1673ffffffffffffffffffffffffffffffffffffffff16815260200190815260200160002060006101000a81548160ff021916908315150217905550803373ffffffffffffffffffffffffffffffffffffffff167f1ad870073a851011d852bccd8634c29c7c0ac2265ba96d2bab01285001a465a860405160405180910390a350565b6000600354905090565b600681815481106118cf57600080fd5b90600052602060002090600402016000915090508060000160009054906101000a900473ffffffffffffffffffffffffffffffffffffffff169080600101549080600201805461191e90613889565b80601f016020809104026020016040519081016040528092919081815260200182805461194a90613889565b80156119975780601f1061196c57610100808354040283529160200191611997565b820191906000526020600020905b81548152906001019060200180831161197a57829003601f168201915b5050505050908060030160009054906101000a900460ff16908060030160019054906101000a900460ff16905085565b60606000805480602002602001604051908101604052809291908181526020018280548015611a4b57602002820191906000526020600020905b8160009054906101000a900473ffffffffffffffffffffffffffffffffffffffff1673ffffffffffffffffffffffffffffffffffffffff1681526020019060010190808311611a01575b5050505050905090565b6000806000905060005b600080549050811015611b2f57600760008581526020019081526020016000206000808381548110611a9457611a9361355e565b5b9060005260206000200160009054906101000a900473ffffffffffffffffffffffffffffffffffffffff1673ffffffffffffffffffffffffffffffffffffffff1673ffffffffffffffffffffffffffffffffffffffff16815260200190815260200160002060009054906101000a900460ff1615611b1c57600182611b199190613696565b91505b8080611b279061358d565b915050611a5f565b5080915050919050565b60076020528160005260406000206020528060005260406000206000915091509054906101000a900460ff1681565b600460003373ffffffffffffffffffffffffffffffffffffffff1673ffffffffffffffffffffffffffffffffffffffff16815260200190815260200160002060009054906101000a900460ff16611bf4576040517f08c379a0000000000000000000000000000000000000000000000000000000008152600401611beb90613403565b60405180910390fd5b6000600680549050905060066040518060a001604052808673ffffffffffffffffffffffffffffffffffffffff16815260200185815260200184815260200160001515815260200160001515815250908060018154018082558091505060019003906000526020600020906004020160009091909190915060008201518160000160006101000a81548173ffffffffffffffffffffffffffffffffffffffff021916908373ffffffffffffffffffffffffffffffffffffffff160217905550602082015181600101556040820151816002019081611cd29190613a66565b5060608201518160030160006101000a81548160ff02191690831515021790555060808201518160030160016101000a81548160ff02191690831515021790555050508373ffffffffffffffffffffffffffffffffffffffff16813373ffffffffffffffffffffffffffffffffffffffff167fd5a05bf70715ad82a09a756320284a1b54c9ff74cd0f8cce6219e79b563fe59d8686604051611d75929190613b38565b60405180910390a450505050565b60608060608060606000805b600680549050811015611e335760068181548110611db057611daf61355e565b5b906000526020600020906004020160030160009054906101000a900460ff16158015611e0c575060068181548110611deb57611dea61355e565b5b906000526020600020906004020160030160019054906101000a900460ff16155b15611e20578180611e1c9061358d565b9250505b8080611e2b9061358d565b915050611d8f565b5060008167ffffffffffffffff811115611e5057611e4f612bc2565b5b604051908082528060200260200182016040528015611e7e5781602001602082028036833780820191505090505b50905060008267ffffffffffffffff811115611e9d57611e9c612bc2565b5b604051908082528060200260200182016040528015611ecb5781602001602082028036833780820191505090505b50905060008367ffffffffffffffff811115611eea57611ee9612bc2565b5b604051908082528060200260200182016040528015611f1d57816020015b6060815260200190600190039081611f085790505b50905060008467ffffffffffffffff811115611f3c57611f3b612bc2565b5b604051908082528060200260200182016040528015611f6a5781602001602082028036833780820191505090505b50905060008567ffffffffffffffff811115611f8957611f88612bc2565b5b604051908082528060200260200182016040528015611fb75781602001602082028036833780820191505090505b5090506000805b6006805490508110156122b65760068181548110611fdf57611fde61355e565b5b906000526020600020906004020160030160009054906101000a900460ff1615801561203b57506006818154811061201a5761201961355e565b5b906000526020600020906004020160030160019054906101000a900460ff16155b156122a357600681815481106120545761205361355e565b5b906000526020600020906004020160000160009054906101000a900473ffffffffffffffffffffffffffffffffffffffff168783815181106120995761209861355e565b5b602002602001019073ffffffffffffffffffffffffffffffffffffffff16908173ffffffffffffffffffffffffffffffffffffffff1681525050600681815481106120e7576120e661355e565b5b90600052602060002090600402016001015486838151811061210c5761210b61355e565b5b6020026020010181815250506006818154811061212c5761212b61355e565b5b9060005260206000209060040201600201805461214890613889565b80601f016020809104026020016040519081016040528092919081815260200182805461217490613889565b80156121c15780601f10612196576101008083540402835291602001916121c1565b820191906000526020600020905b8154815290600101906020018083116121a457829003601f168201915b50505050508583815181106121d9576121d861355e565b5b6020026020010181905250600681815481106121f8576121f761355e565b5b906000526020600020906004020160030160009054906101000a900460ff1684838151811061222a5761222961355e565b5b602002602001019015159081151581525050600681815481106122505761224f61355e565b5b906000526020600020906004020160030160019054906101000a900460ff168383815181106122825761228161355e565b5b602002602001019015159081151581525050818061229f9061358d565b9250505b80806122ae9061358d565b915050611fbe565b5085858585859b509b509b509b509b50505050505050509091929394565b6000806000905060005b6000805490508110156123ae576008600085815260200190815260200160002060008083815481106123135761231261355e565b5b9060005260206000200160009054906101000a900473ffffffffffffffffffffffffffffffffffffffff1673ffffffffffffffffffffffffffffffffffffffff1673ffffffffffffffffffffffffffffffffffffffff16815260200190815260200160002060009054906101000a900460ff161561239b576001826123989190613696565b91505b80806123a69061358d565b9150506122de565b5080915050919050565b60025481565b600460003373ffffffffffffffffffffffffffffffffffffffff1673ffffffffffffffffffffffffffffffffffffffff16815260200190815260200160002060009054906101000a900460ff1661244a576040517f08c379a000000000000000000000000000000000000000000000000000000000815260040161244190613403565b60405180910390fd5b600261245582611a55565b1015612496576040517f08c379a000000000000000000000000000000000000000000000000000000000815260040161248d90613bda565b60405180910390fd5b600681815481106124aa576124a961355e565b5b906000526020600020906004020160030160009054906101000a900460ff1615612509576040517f08c379a000000000000000000000000000000000000000000000000000000000815260040161250090613c6c565b60405180910390fd5b6006818154811061251d5761251c61355e565b5b906000526020600020906004020160030160019054906101000a900460ff161561257c576040517f08c379a000000000000000000000000000000000000000000000000000000000815260040161257390613cd8565b60405180910390fd5b6001600682815481106125925761259161355e565b5b906000526020600020906004020160030160006101000a81548160ff0219169083151502179055506000600682815481106125d0576125cf61355e565b5b906000526020600020906004020160000160009054906101000a900473ffffffffffffffffffffffffffffffffffffffff1673ffffffffffffffffffffffffffffffffffffffff166006838154811061262c5761262b61355e565b5b906000526020600020906004020160010154600684815481106126525761265161355e565b5b90600052602060002090600402016002016040516126709190613d86565b60006040518083038185875af1925050503d80600081146126ad576040519150601f19603f3d011682016040523d82523d6000602084013e6126b2565b606091505b50509050806126f6576040517f08c379a00000000000000000000000000000000000000000000000000000000081526004016126ed90613de9565b60405180910390fd5b813373ffffffffffffffffffffffffffffffffffffffff167f5445f318f4f5fcfb66592e68e0cc5822aa15664039bd5f0ffde24c5a8142b1ac60405160405180910390a35050565b6000806000905060005b6000805490508110156128185760086000858152602001908152602001600020600080838154811061277d5761277c61355e565b5b9060005260206000200160009054906101000a900473ffffffffffffffffffffffffffffffffffffffff1673ffffffffffffffffffffffffffffffffffffffff1673ffffffffffffffffffffffffffffffffffffffff16815260200190815260200160002060009054906101000a900460ff1615612805576001826128029190613696565b91505b80806128109061358d565b915050612748565b5080915050919050565b6000819050919050565b61283581612822565b82525050565b6000602082019050612850600083018461282c565b92915050565b6000604051905090565b600080fd5b600080fd5b61287381612822565b811461287e57600080fd5b50565b6000813590506128908161286a565b92915050565b6000602082840312156128ac576128ab612860565b5b60006128ba84828501612881565b91505092915050565b600073ffffffffffffffffffffffffffffffffffffffff82169050919050565b60006128ee826128c3565b9050919050565b6128fe816128e3565b82525050565b600060208201905061291960008301846128f5565b92915050565b612928816128e3565b811461293357600080fd5b50565b6000813590506129458161291f565b92915050565b6000806040838503121561296257612961612860565b5b600061297085828601612881565b925050602061298185828601612936565b9150509250929050565b60008115159050919050565b6129a08161298b565b82525050565b60006020820190506129bb6000830184612997565b92915050565b6000602082840312156129d7576129d6612860565b5b60006129e584828501612936565b91505092915050565b600081519050919050565b600082825260208201905092915050565b60005b83811015612a28578082015181840152602081019050612a0d565b60008484015250505050565b6000601f19601f8301169050919050565b6000612a50826129ee565b612a5a81856129f9565b9350612a6a818560208601612a0a565b612a7381612a34565b840191505092915050565b600060a082019050612a9360008301886128f5565b612aa0602083018761282c565b8181036040830152612ab28186612a45565b9050612ac16060830185612997565b612ace6080830184612997565b9695505050505050565b600081519050919050565b600082825260208201905092915050565b6000819050602082019050919050565b612b0d816128e3565b82525050565b6000612b1f8383612b04565b60208301905092915050565b6000602082019050919050565b6000612b4382612ad8565b612b4d8185612ae3565b9350612b5883612af4565b8060005b83811015612b89578151612b708882612b13565b9750612b7b83612b2b565b925050600181019050612b5c565b5085935050505092915050565b60006020820190508181036000830152612bb08184612b38565b905092915050565b600080fd5b600080fd5b7f4e487b7100000000000000000000000000000000000000000000000000000000600052604160045260246000fd5b612bfa82612a34565b810181811067ffffffffffffffff82111715612c1957612c18612bc2565b5b80604052505050565b6000612c2c612856565b9050612c388282612bf1565b919050565b600067ffffffffffffffff821115612c5857612c57612bc2565b5b612c6182612a34565b9050602081019050919050565b82818337600083830152505050565b6000612c90612c8b84612c3d565b612c22565b905082815260208101848484011115612cac57612cab612bbd565b5b612cb7848285612c6e565b509392505050565b600082601f830112612cd457612cd3612bb8565b5b8135612ce4848260208601612c7d565b91505092915050565b600080600060608486031215612d0657612d05612860565b5b6000612d1486828701612936565b9350506020612d2586828701612881565b925050604084013567ffffffffffffffff811115612d4657612d45612865565b5b612d5286828701612cbf565b9150509250925092565b600081519050919050565b600082825260208201905092915050565b6000819050602082019050919050565b612d9181612822565b82525050565b6000612da38383612d88565b60208301905092915050565b6000602082019050919050565b6000612dc782612d5c565b612dd18185612d67565b9350612ddc83612d78565b8060005b83811015612e0d578151612df48882612d97565b9750612dff83612daf565b925050600181019050612de0565b5085935050505092915050565b600081519050919050565b600082825260208201905092915050565b6000819050602082019050919050565b600082825260208201905092915050565b6000612e62826129ee565b612e6c8185612e46565b9350612e7c818560208601612a0a565b612e8581612a34565b840191505092915050565b6000612e9c8383612e57565b905092915050565b6000602082019050919050565b6000612ebc82612e1a565b612ec68185612e25565b935083602082028501612ed885612e36565b8060005b85811015612f145784840389528151612ef58582612e90565b9450612f0083612ea4565b925060208a01995050600181019050612edc565b50829750879550505050505092915050565b600081519050919050565b600082825260208201905092915050565b6000819050602082019050919050565b612f5b8161298b565b82525050565b6000612f6d8383612f52565b60208301905092915050565b6000602082019050919050565b6000612f9182612f26565b612f9b8185612f31565b9350612fa683612f42565b8060005b83811015612fd7578151612fbe8882612f61565b9750612fc983612f79565b925050600181019050612faa565b5085935050505092915050565b600060a0820190508181036000830152612ffe8188612b38565b905081810360208301526130128187612dbc565b905081810360408301526130268186612eb1565b9050818103606083015261303a8185612f86565b9050818103608083015261304e8184612f86565b90509695505050505050565b600082825260208201905092915050565b7f55736572206973206e6f7420616e206f726967696e616c206f776e65722c207360008201527f6f2063616e6e6f74206368616e676520617070726f76616c732072657175697260208201527f6564000000000000000000000000000000000000000000000000000000000000604082015250565b60006130ed60428361305a565b91506130f88261306b565b606082019050919050565b6000602082019050818103600083015261311c816130e0565b9050919050565b7f417070726f76616c73207265717569726564206d75737420626520677265617460008201527f6572207468616e203020616e64206c657373207468616e206f7220657175616c60208201527f20746f20746865206e756d626572206f66206f776e6572730000000000000000604082015250565b60006131a560588361305a565b91506131b082613123565b606082019050919050565b600060208201905081810360008301526131d481613198565b9050919050565b7f55736572206973206e6f7420616e206f726967696e616c206f776e65722c207360008201527f6f2063616e6e6f74206368616e67652064656e69616c73207265717569726564602082015250565b600061323760408361305a565b9150613242826131db565b604082019050919050565b600060208201905081810360008301526132668161322a565b9050919050565b7f44656e69616c73207265717569726564206d757374206265206772656174657260008201527f207468616e203020616e64206c657373207468616e206f7220657175616c207460208201527f6f20746865206e756d626572206f66206f776e65727300000000000000000000604082015250565b60006132ef60568361305a565b91506132fa8261326d565b606082019050919050565b6000602082019050818103600083015261331e816132e2565b9050919050565b7f5573657220697320616e206f726967696e616c206f776e657220736f2063616e60008201527f6e6f742062652072656d6f766564000000000000000000000000000000000000602082015250565b6000613381602e8361305a565b915061338c82613325565b604082019050919050565b600060208201905081810360008301526133b081613374565b9050919050565b7f55736572206973206e6f7420616e206f776e6572000000000000000000000000600082015250565b60006133ed60148361305a565b91506133f8826133b7565b602082019050919050565b6000602082019050818103600083015261341c816133e0565b9050919050565b7f6f776e657220697320746865207a65726f206164647265737300000000000000600082015250565b600061345960198361305a565b915061346482613423565b602082019050919050565b600060208201905081810360008301526134888161344c565b9050919050565b7f6f776e6572206973206e6f7420616e206f776e65720000000000000000000000600082015250565b60006134c560158361305a565b91506134d08261348f565b602082019050919050565b600060208201905081810360008301526134f4816134b8565b9050919050565b7f4e487b7100000000000000000000000000000000000000000000000000000000600052601160045260246000fd5b600061353582612822565b915061354083612822565b9250828203905081811115613558576135576134fb565b5b92915050565b7f4e487b7100000000000000000000000000000000000000000000000000000000600052603260045260246000fd5b600061359882612822565b91507fffffffffffffffffffffffffffffffffffffffffffffffffffffffffffffffff82036135ca576135c96134fb565b5b600182019050919050565b7f4e487b7100000000000000000000000000000000000000000000000000000000600052603160045260246000fd5b7f557365722068617320616c726561647920617070726f7665642074686973207460008201527f72616e73616374696f6e00000000000000000000000000000000000000000000602082015250565b6000613660602a8361305a565b915061366b82613604565b604082019050919050565b6000602082019050818103600083015261368f81613653565b9050919050565b60006136a182612822565b91506136ac83612822565b92508282019050808211156136c4576136c36134fb565b5b92915050565b7f6f776e657220616c726561647920616464656400000000000000000000000000600082015250565b600061370060138361305a565b915061370b826136ca565b602082019050919050565b6000602082019050818103600083015261372f816136f3565b9050919050565b7f557365722068617320616c72656164792064656e69656420746869732074726160008201527f6e73616374696f6e000000000000000000000000000000000000000000000000602082015250565b600061379260288361305a565b915061379d82613736565b604082019050919050565b600060208201905081810360008301526137c181613785565b9050919050565b7f5573657220686173206e6f7420617070726f7665642074686973207472616e7360008201527f616374696f6e0000000000000000000000000000000000000000000000000000602082015250565b600061382460268361305a565b915061382f826137c8565b604082019050919050565b6000602082019050818103600083015261385381613817565b9050919050565b7f4e487b7100000000000000000000000000000000000000000000000000000000600052602260045260246000fd5b600060028204905060018216806138a157607f821691505b6020821081036138b4576138b361385a565b5b50919050565b60008190508160005260206000209050919050565b60006020601f8301049050919050565b600082821b905092915050565b60006008830261391c7fffffffffffffffffffffffffffffffffffffffffffffffffffffffffffffffff826138df565b61392686836138df565b95508019841693508086168417925050509392505050565b6000819050919050565b600061396361395e61395984612822565b61393e565b612822565b9050919050565b6000819050919050565b61397d83613948565b6139916139898261396a565b8484546138ec565b825550505050565b600090565b6139a6613999565b6139b1818484613974565b505050565b5b818110156139d5576139ca60008261399e565b6001810190506139b7565b5050565b601f821115613a1a576139eb816138ba565b6139f4846138cf565b81016020851015613a03578190505b613a17613a0f856138cf565b8301826139b6565b50505b505050565b600082821c905092915050565b6000613a3d60001984600802613a1f565b1980831691505092915050565b6000613a568383613a2c565b9150826002028217905092915050565b613a6f826129ee565b67ffffffffffffffff811115613a8857613a87612bc2565b5b613a928254613889565b613a9d8282856139d9565b600060209050601f831160018114613ad05760008415613abe578287015190505b613ac88582613a4a565b865550613b30565b601f198416613ade866138ba565b60005b82811015613b0657848901518255600182019150602085019450602081019050613ae1565b86831015613b235784890151613b1f601f891682613a2c565b8355505b6001600288020188555050505b505050505050565b6000604082019050613b4d600083018561282c565b8181036020830152613b5f8184612a45565b90509392505050565b7f5472616e73616374696f6e20686173206e6f74206265656e20617070726f766560008201527f6420627920656e6f756768206f776e6572730000000000000000000000000000602082015250565b6000613bc460328361305a565b9150613bcf82613b68565b604082019050919050565b60006020820190508181036000830152613bf381613bb7565b9050919050565b7f5472616e73616374696f6e2068617320616c7265616479206265656e2065786560008201527f6375746564000000000000000000000000000000000000000000000000000000602082015250565b6000613c5660258361305a565b9150613c6182613bfa565b604082019050919050565b60006020820190508181036000830152613c8581613c49565b9050919050565b7f5472616e73616374696f6e20686173206265656e2064656e6965640000000000600082015250565b6000613cc2601b8361305a565b9150613ccd82613c8c565b602082019050919050565b60006020820190508181036000830152613cf181613cb5565b9050919050565b600081905092915050565b60008154613d1081613889565b613d1a8186613cf8565b94506001821660008114613d355760018114613d4a57613d7d565b60ff1983168652811515820286019350613d7d565b613d53856138ba565b60005b83811015613d7557815481890152600182019150602081019050613d56565b838801955050505b50505092915050565b6000613d928284613d03565b915081905092915050565b7f5472616e73616374696f6e206661696c65640000000000000000000000000000600082015250565b6000613dd360128361305a565b9150613dde82613d9d565b602082019050919050565b60006020820190508181036000830152613e0281613dc6565b905091905056fea26469706673582212203dedd95872b1f5164bf38fb8e436f9b6a83857883da4f59d420407176136387864736f6c63430008110033",
  "linkReferences": {},
  "deployedLinkReferences": {}
}